:020000040800F2
:10000000802D002005150008B58D0008F1140008AA
:10001000F1140008F1140008F114000800000000B9
:1000200000000000000000000000000009160008A9
:10003000F114000800000000A1150008A5640008E4
:10004000D5170008D5170008D5170008D5170008E0
:10005000D5170008D5170008D5170008D5170008D0
:10006000D5170008D5170008D5170008D5170008C0
:10007000D5170008D5170008D5170008D5170008B0
:10008000D5170008D5170008D5170008D5170008A0
:10009000D5170008D5170008D5170008D517000890
:1000A000D5170008D5170008D5170008D517000880
:1000B000D5170008D5170008D5170008D517000870
:1000C000D5170008D5170008D5170008D517000860
:1000D000D5170008D5170008D5170008D517000850
:1000E000D5170008D5170008D5170008D517000840
:1000F000D5170008D5170008D5170008D517000830
:10010000D5170008D5170008D5170008D51700081F
:10011000D5170008D5170008D5170008D51700080F
:10012000D5170008D5170008D5170008D5170008FF
:0C013000D5170008D5170008D5170008E7
:10013C0053B94AB9002908BF00281CBF4FF0FF3142
:10014C004FF0FF3000F00CB8ADF1080C6DE904CEA7
:10015C0000F008F8DDF804E0DDE9022304B0704794
:10016C00704700BF2DE9F04786468C460846089E2E
:10017C00154674461946002B40F0C2808542B2FAEF
:10018C0082F245D94AB1C2F1200300FA02FC2EFAE0
:10019C0003F3954043EA0C0C94404FEA154EA8B279
:1001AC00BCFBFEF8230C0EFB18CC08FB00F943EA51
:1001BC000C43994528D9EB1808F1FF3704D299451F
:1001CC0002D9A8F102072B44A3EB0903A4B2B3FB99
:1001DC00FEFC0EFB1C330CFB00F044EA0344A04273
:1001EC0014D92C190CF1FF3304D2A04202D9ACF172
:1001FC0002032C44241A43EA07401EB1D4400023C6
:10020C0034607360BDE8F0874746DDE76346F1E78D
:10021C0092BB431B01214FEA154EAFB2B3FBFEFC60
:10022C00200C0EFB1C330CFB07F840EA03439845EB
:10023C0062D9EB180CF1FF3004D2984502D9ACF11D
:10024C0002002B44A3EB0803A4B2B3FBFEFC0EFB91
:10025C001C330CFB07F744EA0344A7424ED92C1974
:10026C000CF1FF3304D2A74202D9ACF102032C44A7
:10027C00E41B43EA0040C0E7C2F1200320FA03F17B
:10028C00954090402EFA03F303434FEA154EAFB25C
:10029C00B1FBFEFC0EFB1C10190C0CFB07F841EA21
:1002AC000041884504FA02F422D969180CF1FF3098
:1002BC0004D2884502D9ACF102002944A1EB080113
:1002CC009BB2B1FBFEFC0EFB1C110CFB07F743EAC7
:1002DC0001439F420ED9EB180CF1FF3104D29F421F
:1002EC0002D9ACF102012B44DB1B41EA004192E73D
:1002FC006046E3E76146F7E76046A3E76346B7E786
:10030C00834206D916B9002108467BE7C6E900E00E
:10031C00F9E7B3FA83F78FB9834201D3724508D852
:10032C00BEEB020460EB030301209C461EB90021C6
:10033C0068E73846FAE7C6E9004CF8E7C7F1200C45
:10034C00BB4022FA0CF41C432EFA0CF120FA0CF3ED
:10035C00B84001434FEA14490EFA07F5B3FBF9F81C
:10036C001FFA84FE09FB18300B0C08FB0EFA43EA4B
:10037C0000439A4502FA07F240D9E31808F1FF301E
:10038C0004D29A4502D9A8F102002344A3EB0A0334
:10039C0089B2B3FBF9F809FB183308FB0EFE41EAEE
:1003AC0003418E452CD9611808F1FF3304D28E45D8
:1003BC0002D9A8F10203214443EA0040A0FB0298B1
:1003CC00A1EB0E014145CE46434602D306D14D4525
:1003DC0004D2B9EB020E68EB04030138002EA6D050
:1003EC00B5EB0E0261EB030101FA0CFC22FA07F3E8
:1003FC004CEA0303F940C6E9003198E74046C5E7EB
:10040C004346D9E7034613F8012B002AFBD1181AEF
:10041C0001387047F0B58BB004460D46164603788C
:10042C00032B38D8DFE803F002212B311D4B93E866
:10043C0003000790ADF82010090C8DF82210637999
:10044C002279E178A07867780DF11C0CCDF814C0F6
:10045C0004970390029101920093A379124A3146BA
:10046C00284607F015FB0BB0F0BD104B93E80300CA
:10047C000790ADF82010090C8DF82210DFE70C4A1C
:10048C0007AB07CA03C31A80D9E70A4A07AB07CAE6
:10049C0003C31A80D3E7084A0A2107A807F0F8FA21
:1004AC00CDE700BF14E400082CE400081CE40008AD
:1004BC0050E400085CE4000824E4000810B586B0A1
:1004CC000DF1040C0A4C0FCCACE80F002368CCF8EF
:1004DC000030084901A802F0B5FD20B9064807F024
:1004EC0068FF06B010BD0146044807F062FFF8E74C
:1004FC0090E30008510500088CE4000868E400084B
:10050C000E4B1B68834200D0704710B588B00C4668
:10051C0009F066FE1E226946FFF77CFF22466946FB
:10052C00074807F046FF054C206809F087FD0023BB
:10053C002360FFF7C3FF08B010BD00BF080D0020FB
:10054C00ACE400081B4B1B6803B1704770B58EB050
:10055C0005460C46012A01D90EB070BD1E22694613
:10056C00FFF758FF22466946134807F022FF14F1A3
:10057C00460FF1DB02F0E6FD0028EDD10F4E08AC82
:10058C0006F114030FCB84E80F000CAA243696E86E
:10059C00030082E80300074B2146284609F022FE9F
:1005AC0002460028D8D06946054807F002FFFFF73D
:1005BC0085FFD1E7080D0020D0E4000890E3000887
:1005CC00ECE4000830B589B005460C4609F008FE8D
:1005DC001E226946FFF71EFF2CB90E4B1B68AB425F
:1005EC000FD009B030BD224669460B4807F0E1FE3A
:1005FC00084C206809F022FD00232360FFF75EFF02
:10060C00EFE76946054807F0D4FE1321284609F0A8
:10061C0022FEE6E7080D00200CE500082CE500089A
:10062C0008B5002002F060F930B9064807F0C1FEA9
:10063C00FFF744FF002008BD0146034807F0B9FE50
:10064C00F8E700BF5CE500083CE5000808B5024B84
:10065C001B68984708BD00BF6001002000B585B03D
:10066C000A460023009301930293039302238DF80F
:10067C000230044B01930146684607F035FA05B089
:10068C005DF804FB59060008014B1860704700BF69
:10069C006001002080B505460E461746984606F0C8
:1006AC00DBFD03460DF05CFC0446DFF8189049F8BE
:1006BC000030424639463046A84754F8090000F04D
:1006CC0035FF00BF08000000064B074A1A60074AB6
:1006DC00D2F8803023F0070343F00403C2F88030D3
:1006EC00002070478402002000093D0000040058DF
:1006FC00034A536823F0020353600020704700BF85
:10070C00002004E0014B03600020704774E50008F2
:10071C0010B5064C636843F400236360044B1B68FC
:10072C0098474FF40023A36010BD00BF000C005885
:10073C000C0D002082B04FF0B043D3F8502142F49E
:10074C008012C3F85021D3F8503103F48013019375
:10075C00019B0A4B1A6A42F400721A62D3F8D42035
:10076C0042F40072C3F8D42040BF20BF044AD368BF
:10077C0043F40043D36002B0704700BF0008005838
:10078C000004005800B583B04FF0B0431A6D42F42A
:10079C0080121A651B6D03F480130193019B094BA6
:1007AC001A6842F001021A601A6842F480321A6028
:1007BC002C200CF08AFB2D200CF087FB03B05DF88D
:1007CC0004FB00BF000C0058024A536823F00103DD
:1007DC0053607047000C0058024B4FF480329A6003
:1007EC00704700BF000C0058044B4FF400129A6085
:1007FC005A6822F400125A60704700BF000C00586F
:10080C0008B5044A536843F40013536000F02CFA03
:10081C0008BD00BF000C005808B500F001FA024BEF
:10082C0001229A6008BD00BF000C0058024A5368B0
:10083C0023F0020353607047000C0058044B4FF434
:10084C0000329A605A6822F400325A60704700BF36
:10085C00000C005808B5044A536843F40033536045
:10086C0000F036FA08BD00BF000C005808B5144B58
:10087C00DB6813F0020F04D1114B5B6813F4003FDB
:10088C0014D00F4BDB6813F0080F04D10C4B5B68D2
:10089C0013F4002F0DD00A4BDB6813F0200F04D19A
:1008AC00074B5B6813F4001F06D008BDFFF7D2FF9F
:1008BC00FBE7FFF72DFFF8E7FFF7A2FFF5E700BF17
:1008CC00000C005808B500F011FA024B02229A6095
:1008DC0008BD00BF000C005808B5094BDB6813F0CD
:1008EC00080F05D18047064B4FF400229A6008BDD3
:1008FC00044B1860024A536823F400235360F6E754
:10090C00000C00580C0D002008B500F039FA024B11
:10091C0008229A6008BD00BF000C005808B5144BA3
:10092C00DB6913F0020F0AD1114BDB6913F0010FD5
:10093C000DD10F4BDB6913F0080F10D108BD0C4B18
:10094C005B6813F0020FEFD1FFF7BCFFF6E7084B23
:10095C005B6813F0010FECD1FFF75EFFEEE7044B81
:10096C005B6813F0080FE9D1FFF7CEFFE6E700BF95
:10097C00000C005808B538B9084B1B6803B19847F0
:10098C00074B00221A7008BD054B01221A70034B4D
:10099C001B68002BF7D010469847F4E7100D002089
:1009AC002010002010B584B004460B4B18600B4887
:1009BC0007F03EFD0120FFF7DDFF094B01221A7005
:1009CC00084B1B6833B10394074A0192074A029201
:1009DC0001A8984704B010BD340D0020380D00203C
:1009EC001F100020140D002033840008FD0900089E
:1009FC0010B50146034C204607F035FD20460BF0A0
:100A0C008DFD10BD380D002010B50C464A68054B05
:100A1C001A60054BD861184600F07CF82068FFF787
:100A2C00C1FF10BD100D0020140D002000B585B0C5
:100A3C001B4807F000FD10B91A4B1B784BB918482E
:100A4C0007F0F9FC10B9174B1B7823BB05B05DF808
:100A5C0004FB03A9124807F01EFD134BDB698BB195
:100A6C00039A029201228DF8042001A898479DF860
:100A7C0004200C4B1A700B4B1B783BB1039800F005
:100A8C0071F9DCE7074B01221A70F4E7039904486B
:100A9C0007F0DDFCD3E702480BF040FDD6E700BFC2
:100AAC00380D00201F100020140D00202DE9F041FE
:100ABC0007460C4616461D460020FFF75BFFDFF885
:100ACC004880D8F80000A0F80970C472224631465C
:100ADC000C300DF026FA01240C4B1C700C4B1B69CE
:100AEC0000210846984748F2E80004F0ADFED8F81B
:100AFC0000108A78033205F108000DF012FA204636
:100B0C00FFF738FFBDE8F081340D00201E100020E7
:100B1C00140D0020024B0360024B0361704700BFB1
:100B2C00850C0008C10C000800B583B009E001A9D0
:100B3C00084807F0B0FC084B1B690199186907F0CD
:100B4C0092FC044807F077FC0028F0D003B05DF865
:100B5C0004FB00BF540D00200000032008B50C4B13
:100B6C000C4A1A600C4A5A600C4A9A600C4A1A6277
:100B7C000C4A5A620C4ADA600C4A1A610C4A5A61E5
:100B8C000C4A9A610C4ADA61FFF7FCFD08BD00BF04
:100B9C0000000320B8000320A800032098000320C5
:100BAC0090000320880003208000032064000320B1
:100BBC0060000320540003204800032038B504468D
:100BCC000B4D284607F034FC0A4B5B68A2681A6090
:100BDC00E268DA60084A5A609D60FFF7F5FD22680A
:100BEC00064B1A606268064B1A60002038BD00BFC5
:100BFC003000032000000320E4010320500D0020EE
:100C0C004C0D002008B5054B5A6812680121117271
:100C1C005B68FFF7E1FD002008BD00BF000003206A
:100C2C0000B583B007E001A9074807F034FC074B77
:100C3C001B6801989847044807F0FDFB0028F2D088
:100C4C0003B05DF804FB00BF30000320500D002002
:100C5C0008B5044B5B68DB6802221A72FFF7C4FD0F
:100C6C00002008BD0000032008B5024B1B68984704
:100C7C0008BD00BF4C0D002038B50446094D284670
:100C8C0007F0D6FB084BDB68A2681A605D60FFF7C3
:100C9C00CDFD2268054B1A606268054B1A60002076
:100CAC0038BD00BF2800032000000320480D0020A1
:100CBC00440D002008B5054BDA681268102111723A
:100CCC00DB68FFF7BBFD002008BD00BF0000032060
:100CDC0008B5044BDA68DA68034B1B681068984750
:100CEC0008BD00BF00000320480D002000B583B0F4
:100CFC0007E001A9074807F0CEFB074B1B680198DA
:100D0C009847044807F097FB0028F2D003B05DF831
:100D1C0004FB00BF28000320440D002038B5044616
:100D2C000C4D284607F084FB0B4807F081FB0B4B5E
:100D3C001B690B4A1360A2689A60E268DA601D6155
:100D4C0022681A6062685A6022695A6162699A6103
:100D5C0038BD00BF40000320540D002000000320CC
:100D6C00400D002008B50146034807F07CFB034802
:100D7C00FFF7B2FD08BD00BF540D0020350B000875
:100D8C0000B583B006E001A9064807F084FB019882
:100D9C0007F091FB034807F04EFB0028F3D003B09B
:100DAC005DF804FB3800032070B48DB006460D4688
:100DBC000DF1040C2B4C0FCCACE80F000FCCACE8B5
:100DCC000F0094E807008CE80700002E45D0304651
:100DDC00002D44D000230FE015F8234005EB8301D0
:100DEC004A78120442EA04628C7842EA0422C978F6
:100DFC000A4340F823200133032BEDD906E0191FD9
:100E0C0050F821104A4040F8232001332B2B20D8D6
:100E1C005A1E50F8222013F0030FF0D14FEA326221
:100E2C00110E114C655CC2F30741615C090441EA87
:100E3C000561C2F30725655D41EA0521D2B2A25CCA
:100E4C00114323F0030230326A4452F82C2C4A40EE
:100E5C00D5E701200DB070BC70470020FAE70020E8
:100E6C00F8E700BFBCE3000874E5000800284ED08A
:100E7C0070B584B01546064600294AD0002A4AD0DF
:100E8C0010230A461946684607F016FB29466846A1
:100E9C0007F02CFB002414E01DF803101F48415CE4
:100EAC000DF8031001330F2BF6D9684607F05FFBE2
:100EBC00684607F0D6FB013405EB0411684607F0D1
:100ECC0015FB082C01D80023EDE7002306E01DF8E4
:100EDC00032012498A5C0DF8032001330F2BF6D93D
:100EEC00684607F044FB611C05EB0111684607F0EE
:100EFC00FDFA10236A461946304607F0DDFA102237
:100F0C000021684607F0E5FA012004B070BD00200E
:100F1C0070470020F9E70020F7E700BF74E50008F0
:100F2C002DE9F04F95B003910568D0F804808768DF
:100F3C00D0F80CB00469D0F814A0D0F81890D0F800
:100F4C001CC00026CDF804B0E346029030E003A8A4
:100F5C0007F0B2FC14AB03EB860343F8400C4FEAEA
:100F6C00F42383EAB41383EA74635B4404EA0A024D
:100F7C0029EA04014A4013444E4A52F826201344ED
:100F8C0018444FEA753383EAB50383EAB55388EA0C
:100F9C0007022A4008EA07014A4013440136CB46AF
:100FAC00D146A246019C044401974746A846C51861
:100FBC000F2ECCD9DC46DDF804B03F2E5ED806F1FE
:100FCC00010E0EF00F0314AA02EB830353F8402C0E
:100FDC004FEAB24383EAF21383EAD20306F10E021C
:100FEC0002F00F0214A901EB820252F8401C4FEAE6
:100FFC00F14282EA714282EA912206F00F0114A8B2
:10100C0000EB810151F8400C0190134406F10902E8
:10101C0002F00F0214A800EB820252F8402C134489
:10102C00019A134441F8403C4FEAF42282EAB4128C
:10103C0082EA7462624404EA0A0129EA040041402B
:10104C000A441C4951F826100A4413444FEA7532DD
:10105C0082EAB50282EAB55188EA07022A4008EA18
:10106C00070042400A447646CC46D146A2460BEBDA
:10107C000304BB464746A8469D189EE702980368A2
:10108C002B44036043684344436083683B44836060
:10109C00C3685B44C36003692344036143695344DD
:1010AC00436183694B448361C3696344C36115B075
:1010BC00BDE8F08F74E60008E0B110B5044670226C
:1010CC00002107F006FA0C4B23600C4B63600C4BB1
:1010DC00A3600C4BE3600C4B23610C4B63610C4B1A
:1010EC00A36103F17453A3F52303A3F69243E361C5
:1010FC00012010BD0020704767E6096A85AE67BB0A
:10110C0072F36E3C3AF54FA57F520E518C68059BDD
:10111C00ABD9831F30BFFFF7FDBF00BF38B5044606
:10112C00084D2A4608490CF0FCFE0848431E2B4487
:10113C00B3FBF0F3064A002100FB03400CF0FFFE6A
:10114C0038BD00BF0000000090E300080100000063
:10115C000400000070B505460C480D4A0244013AE3
:10116C00B2FBF0F20B4B0C4C1C44013CB4FBF3F403
:10117C0004FB03F300FB02340E1B3046FFF7CEFFDB
:10118C00083EC5F8A86004F1080070BD010000001D
:10119C00000000000400000004000000044B9968EB
:1011AC005869884203D003494FF080520A60704757
:1011BC00DC0F002004ED00E038B51546204B9B6A8F
:1011CC0013F4805F19D116241D4B9B6A13F4006F26
:1011DC0000D018241A4B9B6A13F4007F10D0184BC4
:1011EC009A6B9B6A13F4004F09D0D9B1144A936AD5
:1011FC0023F400439362192402E01724E4E7192432
:10120C000F4B9B6A13F4806F00D01A240C4B9B6A13
:10121C0013F4807F08D10A4B9B6A13F4005F04D04F
:10122C001C2402E01924EBE71B24054A936A43F4BF
:10123C007F439362012107F0BDFD2870204638BD25
:10124C0000ED00E0174B9B6A13F0007F25D11D20A9
:10125C00144B9B6A13F0807F00D01F20114B9B6AAC
:10126C0013F4002F00D021200E4B9B6A13F4802F17
:10127C0000D022200B4B9B6A13F4003F00D023209C
:10128C00084B9B6A13F4803F09D1064A936A6FEAB4
:10129C0003436FEA1343936270471E20D8E7242060
:1012AC00F3E700BF00ED00E081690D4B5A6942F491
:1012BC0080725A61BFF34F8FBFF36F8F31F8021CEE
:1012CC005A6922F480725A61BFF34F8FBFF36F8F4C
:1012DC004DF60273994201D00020704701207047EF
:1012EC0000ED00E070B504461646324B9B6A13F0D5
:1012FC00100F1AD110252F4B9B6A13F0080F00D03A
:10130C0012252C4B9B6A13F0020F10D0294B586BF3
:10131C009B6A13F0800F3DD000293FD0254A936A79
:10132C0023F080039362132503E01125E3E76FF0AC
:10133C001500204B9B6A13F0010F00D014251D4B98
:10134C009B6A13F0200F00D015251A4B9B6A13F0E3
:10135C00100F04D1174B9B6A13F0020F04D0154BDE
:10136C005B6813F4006F1BD1124B9B6A13F0200FB8
:10137C0004D0104A536A23F4005353620D4A936A03
:10138C0043F0FF0393620121204607F013FD3070F8
:10139C00284670BD6FF015001325CAE71325C8E762
:1013AC00214600F0A3F90028DED080F3098802253D
:1013BC00DAE700BF00ED00E038B5054600230B70FE
:1013CC001A4BD86A10F002002DD10C46DB6A002BA8
:1013DC002ADB164BD86A10F0804025D02846FFF740
:1013EC0063FF08B128681FE0104B9B6A13F0FF0FD6
:1013FC000DD10E4B986A10F47F400ED10B4B9B6AAB
:10140C00B3F5803F10D32846FFF71CFF0CE02246B3
:10141C0001212846FFF766FF06E0224601212846F7
:10142C00FFF7CAFE00E0002038BD00BF00ED00E071
:10143C0030B58BB00C46264B5968C1F3080100231C
:10144C0083F31188BFF36F8F02F07F43B3F17F4FAB
:10145C0015D102F00C03082B14D012F0080F0BD08E
:10146C0000250DF12702204607F0A9FC86469DF8C1
:10147C00273053B10BB030BD04460125F1E70025F0
:10148C002C46EEE700252C46EBE70DF1040C20680A
:10149C006168A268E368ACE80F0020696169A26921
:1014AC00E369ACE80F0045B1C3F308025AB96FEA1F
:1014BC0053236FEA4323089305E0089B23F4FF733F
:1014CC0023F00103089301A9704607F063FCD1E7F0
:1014DC0000ED00E0024A536943F01003536170477A
:1014EC0000ED00E0EFF30880EFF3098101B57246DF
:1014FC00FFF79EFF01BD00BF00200A4908701020B5
:10150C0080F3118808484FF40461401880F309886F
:10151C00EFF314800221084380F31488BFF36F8F1C
:10152C0000F09EF824100020C01F002008B50A4BC4
:10153C009B68834202D00BF023FF08BDEFF30583B9
:10154C00002BF8D0054B5A6842F080525A605A6A08
:10155C0022F400425A62EEE7DC0F002000ED00E0BE
:10156C000A4A9368C3F8AC006FF00A01C3F8B010D4
:10157C0007494B6843F080534B60002383F3118879
:10158C00BFF36F8F9368D3F8B0007047DC0F002067
:10159C0000ED00E016498A684FF030001044EFF37C
:1015AC00098C80E8F01F102080F31288BFF36F8F36
:1015BC00104F4FF000664A698A603E604FF0A804F5
:1015CC00141920680C4C2060D2F8AC000023C2F82F
:1015DC00AC3080F3118804B5104600F017F9BDE863
:1015EC00044002F1300090E8F01F8CF3098870473A
:1015FC00DC0F002004ED00E05C0D00201EF0040F59
:10160C000CBFEFF30880EFF30980816911F8021C1D
:10161C000229FFD001B507F0C1FB01BD002807DB93
:10162C0000F01F02400901239340024A42F8203087
:10163C00704700BF00E100E0002808DB0901C9B2D7
:10164C0000F1604000F5614080F80013704700F035
:10165C000F000901C9B2014B1954704714ED00E099
:10166C0008B50F4B0F4A22F07F029A60BFF34F8FE1
:10167C00BFF36F8FD3F8882022F47002C3F8882050
:10168C00EFF3148323F0040383F31488BFF36F8FF9
:10169C0005F052F906F018F800F07CF805F0B8F9EE
:1016AC0000ED00E00000000810B4A2F120040E4987
:1016BC0042F8081C21F0010142F8081C42F8203CB9
:1016CC00019B42F81C3C029B42F8183C039B42F8DD
:1016DC00143C4FF0807342F8043C04650023C0F8BE
:1016EC00AC3010BC704700BFA1060008104B9B68C3
:1016FC00BBB110F1160F0BD0D3F89820A2F1400C0F
:10170C00844510D8824210D98A4207D800207047ED
:10171C00D3F898208A4201D800207047D3F898005B
:10172C00704700207047002070470020704700BFB2
:10173C00DC0F002008B50D4614460A4A9060D0F81C
:10174C00A820094B1A6000F061F8204685F309883F
:10175C00002163B681F31188BFF36F8F0022002341
:10176C00FEF798FFDC0F00205C0D002001491022D1
:10177C000A60704710ED00E072B6404080F31188AB
:10178C00BFF36F8FBFF34F8F30BF62B6BFF36F8F56
:10179C00704700BF002206E003F00F03094919440B
:1017AC0010230B7601323E2A0ADC53B2002BF3DBFA
:1017BC0003F1604303F56143102183F80013F1E753
:1017CC00704700BFFCEC00E001B5EFF30580A0F121
:1017DC0010004FEAC0000449014409C99847BDE80C
:1017EC00014002490847000004E10008A911000863
:1017FC0008B5034B034A0121034807F045FC08BD1B
:10180C00000003200000002074E7000808B5D0F8A1
:10181C009830403B0448036040234360034B836093
:10182C00012107F035FC08BD600D002000000B15F0
:10183C00084AC2F898000B6823F01F03034343F0D7
:10184C001003C2F89C308B6843F00103C2F8A0303F
:10185C00704700BF00ED00E0084BD3F89030C3F3A5
:10186C000723013B984205D810B50446FFF7E0FF6B
:10187C00204610BD6FF01500704700BF00ED00E072
:10188C0010B5034C0123227807F0FDFA207010BD2F
:10189C002110002008B500230B4A127807F0F3FA48
:1018AC0010F1160F0FD0024606E0084BC3F8982033
:1018BC000021C3F8A0100132044BD3F89030C3F3CD
:1018CC0007239342F1DC08BD2110002000ED00E05D
:1018DC00044B0522C3F89420BFF34F8FBFF36F8FD7
:1018EC00704700BF00ED00E0BFF35F8F024B00229A
:1018FC00C3F89420704700BF00ED00E038B51C4BD6
:10190C001D681C4BD3F89030C3F307239D422BD892
:10191C00FFF7EAFF002409E0154B5B6804EB440178
:10192C0003EB81012046FFF783FF0134A542F3D876
:10193C001148057007F0CFFA10F1160F13D00E4BAB
:10194C001A780C4BD3F89030C3F307239A4207DA7A
:10195C00084BC3F898200021C3F8A0100132F0E71F
:10196C00FFF7B6FF002038BD4FF0FF30FBE700BF9C
:10197C0080E7000800ED00E02110002008B5024BC4
:10198C001B689847002008BD6C0D0020034B1860A5
:10199C00034A937843F00203937070476C0D002058
:1019AC006401002008B5064921F00701C1F100527D
:1019BC0002F54032034806F0B8FC002008BD00BF19
:1019CC00A73A0020700D002070B584B002AE002440
:1019DC0002940394084B0293084D28460BF003FF26
:1019EC0000960A234FF4A3620549284605F01EFE13
:1019FC00204604B070BD00BFC8E70008C804002032
:101A0C004010002008B5014601480BF00EFF08BD40
:101A1C00C804002010B586468C460378012B18D0DC
:101A2C00022B32D003B110BD224C0FCCCCF80000ED
:101A3C00CCF80410CCF80820CCF80C3023788CF8B7
:101A4C001030BEF802308CF80D301B0A8CF80E30BA
:101A5C00E9E7184C0FCCCCF80000CCF80410CCF80B
:101A6C000820CCF80C3023788CF81030DEF80430D9
:101A7C008CF80D30C3F307228CF80E201A0C8CF85E
:101A8C000F201B0E8CF81030CDE70068DEF8041028
:101A9C00DEF80820DEF80C30CCF80000CCF804108E
:101AAC00CCF80820CCF80C309EF810308CF81030A4
:101ABC00B9E700BFD4E7000838B5044605480AF07A
:101ACC00E3FB054620B101210C300AF057FC2C76C3
:101ADC00284638BD7004002010B513280ED091B1E3
:101AEC000B480AF0D1FB044634B1012104F10C007F
:101AFC000AF044FC01232376204610BD05480AF069
:101B0C00C3FB0446F0E70120FFF7D6FF0446F3E7DA
:101B1C00EC0300209C040020002303B17047054A0D
:101B2C0032F8132022B940F47042024921F81320F4
:101B3C000133F2E77C0D002040F4704000230BB120
:101B4C0000207047064A32F81320824201D001333C
:101B5C00F5E7034A002122F813100120704700BF5B
:101B6C007C0D0020C2685178084B83F870105188A6
:101B7C00A3F87210117983F87110B2F80710A3F85A
:101B8C007410B2F80520A3F87620704700000020EE
:101B9C00C268034BD2F80100D2F8051003C370479A
:101BAC00D800002030B5C46804F1010C094D413453
:101BBC00AE46DCF80000DCF80410DCF80820DCF899
:101BCC000C30AEE80F000CF1100C7546A445EFD1AB
:101BDC0030BD00BF80000020C268034BD2F801006A
:101BEC00D2F8051003C370477800002008B5C06810
:101BFC00013007F0EBFA024BC3E9380108BD00BF16
:101C0C000000002008B5C3681B789BB901F0A8F848
:101C1C00094BBFF35B8F1A68BFF35B8F02F00902AD
:101C2C00BFF35B8F53E8001F43E800200028F9D175
:101C3C00BFF35B8F08BD00BFD000002008B5C368A0
:101C4C00B3F8012091B209B1D97801B908BD0548A2
:101C5C00A0F80421D9780A4600F584700BF0ABFC8F
:101C6C00F4E700BF0000002008B5C268084BB3F8C9
:101C7C00043103B108BDB2F801300548A0F80431B5
:101C8C0091880A4600F584700BF095FCF2E700BFD2
:101C9C000000002000B970472DE9F0410E461546B2
:101CAC0080463A4B0022BFF35B8F53E8004F43E86A
:101CBC0000210029F9D1BFF35B8F27462CB917B14E
:101CCC0038460AF01DFBBDE8F08120460AF053FAB5
:101CDC0000EB40002E4B03EB80035B88434539D16E
:101CEC00AC420ED020460AF065FA0121217604F1AF
:101CFC000C0840460AF042FB2A8AE96840460AF082
:101D0C0047FB20460AF037FA00EB4000204B03EB70
:101D1C0080035B6803B14EB320460AF02CFA00EB4B
:101D2C0040001B4B03EB80039B68002BC7D0204665
:101D3C000AF021FA164D00EB400005F82060204611
:101D4C000AF019FA00EB400005EB8005A86805F0D5
:101D5C00DBFAB4E70D4BBFF35B8F53E8007F43E82E
:101D6C000042002AF9D1BFF35B8FA8E720460AF0A6
:101D7C0002FA00EB4000064B03EB80035B681A7A17
:101D8C005968186807F0ADFBC6E700BF38010020A2
:101D9C00800D002038B5044604210C300AF01AFBE3
:101DAC004578224601784088FFF774FF05B938BDA5
:101DBC00014805F0A9FAFAE72001002038B50446DD
:101DCC0003210C300AF006FB0578B0F80100E3683B
:101DDC00197840F63543984203D02246FFF75AFF54
:101DEC0005B938BD014805F08FFAFAE7200100204B
:101DFC0038B50446038A012B14D902210C300AF0A1
:101E0C00E9FA0546007807F0FAF910F0020F0CD049
:101E1C0004230D4A2146287807F025FA20460AF0BB
:101E2C006FFA38BD0AF06CFAFBE740F6B523074AA7
:101E3C000749084806F0CBFA404080F311884FF070
:101E4C00030002DFE4E700BF40E9000818E80008DF
:101E5C0058E8000888E8000810B5044601210C3049
:101E6C000AF0B8FA0823034A2146007807F0FBF978
:101E7C0010BD00BF60E9000808B5014603480AF030
:101E8C000DFA034903480BF0A4FC08BD3C010020EB
:101E9C00B00100205806002008B50D480AF014FACD
:101EAC0070B1027E012A0CD0032A0DD107F082FBFF
:101EBC00084BD3F83C311BB1074908480BF089FC9F
:101ECC0008BDFFF795FFF3E70AF01AFAF0E700BF39
:101EDC003C01002000000020B0010020580600202A
:101EEC0010B50C460A604B609DF808300B720AF076
:101EFC0042F900EB4000024B03EB80035C6010BD29
:101F0C00800D00202DE9F84306460F464FF0FF32B6
:101F1C004FF0FF3318480AF0B7F9044600F10C09EA
:101F2C00012148460AF02AFA4FF0000884F818807C
:101F3C0020460AF020F9114D00EB400005EB800023
:101F4C00468020460AF017F900EB400005EB8003B1
:101F5C00C3F8088020460AF00EF900EB400005EBB0
:101F6C008005C5F80480032148460AF00BFA068068
:101F7C0087702046BDE8F88344040020800D0020C3
:101F8C00F0B587B0064615460C4651B30122002128
:101F9C0068460BF010FB20460AF0EDF800EB400011
:101FAC002A4B03EB8003C3F808D020460AF0C2F991
:101FBC00014627480AF0A0F9264A0023684605F096
:101FCC00CBF90746A8B920460AF0D5F800EB40003B
:101FDC001E4B13F82060FEB96DB32C60002007B0C7
:101FEC00F0BDFFF78FFF04460028CFD16FF06800DB
:101FFC00F5E740F24B13184A1849194806F0E7F96F
:10200C003A463146174806F0E2F9404080F3118811
:10201C004FF0030002DFD6E720460AF071F90D2ECF
:10202C000ED0122E0FD0092E02D06FF00400D6E77E
:10203C006FF06E00D3E720460AF062F90020CEE77D
:10204C006FF00B00CBE76FF01500C8E7800D002098
:10205C0044010020A086010018E80008A8E8000848
:10206C0088E80008B4E8000800B583B0244BD3F826
:10207C005C319B6813F0010F0DD101AA002140F6D1
:10208C000340FFF77DFF034668B90198FFF7BAFDDF
:10209C0001980AF035F901AA002141F20300FFF77B
:1020AC006FFF034618B1184603B05DF804FB0198A6
:1020BC00FFF792FD01980AF023F901AA002141F2E1
:1020CC000100FFF75DFF03460028ECD10198FFF7F4
:1020DC0049FD01980AF014F901AA002141F202000D
:1020EC00FFF74EFF03460028DDD10198FFF75AFD9C
:1020FC0001980AF005F901F07FF80346D3E700BF19
:10210C000000002010B5082142F20100FFF7FAFE92
:10211C0030B3044608210C300AF034F90246124B55
:10212C0093F8D83013F0020F17D10F20002113F0C1
:10213C00200F01D040F040000B4B93F8D93013F036
:10214C00090F01D040F4006007F02FF8002221465F
:10215C0042F20100FFF714FF10BD2F200021E6E72B
:10216C006FF06800F8E700BF00000020494B93F8BF
:10217C007C3013F0400F00F0868010B582B001AABD
:10218C00002142F20300FFF7FBFE034610B1184694
:10219C0002B010BD0198FFF7FBFC01980AF0B0F8F3
:1021AC0001AA002142F20200FFF7EAFE03460028D2
:1021BC00EDD10198FFF742FD01980AF0A1F8354BDB
:1021CC0093F87C3013F0200F32D0324B93F89C30C4
:1021DC0013F0080F44D12F4B93F8D83013F0200F85
:1021EC0022D00DF10201684607F055FA034600288B
:1021FC00CDD1042142F22400FFF784FE04460028CE
:10220C003ED004210C300AF0BDF8BDF8003003803C
:10221C00BDF8023043800022214642F22400FFF731
:10222C00AFFE03460028B2D1FFF76CFF0346AEE7C2
:10223C00022140F66D40FFF765FE044638B30221DB
:10224C000C300AF09FF801230370002242702146E3
:10225C0040F66D40FFF794FE03460028B5D096E794
:10226C0001AA002142F21C00FFF78AFE0346002857
:10227C008DD10198FFF7BAFC01980AF041F8AAE752
:10228C006FF0680383E76FF01203184670476FF026
:10229C0068037CE70000002010B582B00B4BB3F84C
:1022AC0004311BB10024204602B010BD01AA00214C
:1022BC0041F20500FFF764FE04460028F3D10198B3
:1022CC00FFF7D2FC01980AF01BF8ECE700000020A5
:1022DC0010B5082140F60140FFF714FE88B1044602
:1022EC0008210C300AF04EF8024607484FF0005116
:1022FC0006F05BFF0022214640F60140FFF740FE4E
:10230C0010BD6FF06800FBE71088000208B5FFF7FE
:10231C00ABFE034608B1184608BDFFF727FF03467E
:10232C000028F8D10D4B93F87C3013F0200F0CD013
:10233C000A4BB3F8043173B1FFF7CAFF0346002808
:10234C00E9D100F0BDFC0346E5E7FFF7A5FF034626
:10235C000028F1D0DFE76FF00403DCE70000002079
:10236C0070B586B004460DF10B01002000F076FC30
:10237C0008B106B070BD192142F20D00FFF7C2FD85
:10238C00064600283ED019210C3009F0FBFF002531
:10239C00056045608560C5600561456105769DF801
:1023AC000B200273D4F88820C0F80520B4F88C10E8
:1023BC0094F88E20A0F80910C272144A91890180F9
:1023CC00D1894180B4F8A010A0F80D10B4F8A21077
:1023DC00A0F80F10B4F8A410A0F81110B4F8A610BF
:1023EC00A0F81310012300930C23D0320DEB030142
:1023FC003046FFF775FD2A46314642F20D00FFF7D5
:10240C00BFFDB6E76FF06800B3E700BF0000002027
:10241C0070B582B006460C46124B93F99B30002BDC
:10242C001DDAC4B12546082C28BF082501AA0021B5
:10243C0042F21800FFF7A4FD034668B9019BD96866
:10244C002A46013130460BF06CFD019809F058FF1B
:10245C002E44641BE5E70023184602B070BD6FF0F4
:10246C008503F9E70000002030B587B0002142F267
:10247C000E00FFF747FD0446002500950C23064A85
:10248C000DEB0301FFF72CFD2A46214642F20E000C
:10249C00FFF776FD07B030BDD0000020837A072B04
:1024AC0000D0704710B582B004460C21043006F001
:1024BC00E0FE50B9E3782BB1134B93F8D83013F0FE
:1024CC00080F02D0204607F000F90F4B93F8D830D4
:1024DC0013F0200F06D00C4BD3F85C319B6813F033
:1024EC00020F01D102B010BD0DF1060101A807F0D9
:1024FC00D2F80028F6D1BDF80620BDF8041020460D
:10250C0007F03FF9EEE700BF00000020F0B585B002
:10251C000446B0F801703846FFF70EFB237853B130
:10252C00022B01D005B0F0BD184606F003FF0020C9
:10253C0000F05CFCF6E70646E278012A3AD0224627
:10254C00694602A806F0C2FE6946E07806F0EAFE8B
:10255C000546E37863B92B4BBFF35B8F53E8001F41
:10256C0021F4805143E80012002AF7D1BFF35B8FAE
:10257C0025B322466946284606F088FE012385F8D5
:10258C00B83085F8B930EB78EBB10721284600F06C
:10259C00CBFF96BB284607F0AAFD2846FFF77EFF27
:1025AC00284607F04BFDEB78002BBBD1002000F048
:1025BC001DFCB7E7144B93F86F30C0E71321384676
:1025CC0007F0C5F8AEE70298C5F89600BDF80C20E8
:1025DC009DF80E30A5F89A2085F89C302B7AC3EB29
:1025EC00C30309495A18CB58C5F88F309188937991
:1025FC00A5F8931085F89530C7E70121284600F01F
:10260C0093FFC7E7D00000200000002000B589B080
:10261C00C3681A788DF80020B3F80120ADF80120BA
:10262C00DA788DF80320B3F80B20ADF81720B3F847
:10263C000D20ADF81920B3F80F20ADF81B205A7CF3
:10264C008DF81D20586801901A899B7AADF80820E6
:10265C008DF80A30084B1A68CDF80B209B88ADF822
:10266C000F30CDF81120ADF81530684607F0A6F8FC
:10267C0009B05DF804FB00BFC0E7000808B5034BC8
:10268C00D3F85C315B69984708BD00BF000000209F
:10269C0038B504460D4651B140F635439C420ED038
:1026AC0029460C4809F028FE0024204638BDFFF7C7
:1026BC0029FC05460028EFD16FF06804F5E72846A1
:1026CC00FFF7DCFF04460028EFD0284609F018FE7F
:1026DC00EBE700BF4401002038B50022002321485D
:1026EC0009F0D8FD0446D8B11F4D4FF0FF324FF022
:1026FC00FF33284604F030FEA86930B109F000FE23
:10270C00A5F590730022C3F83821204609F012FE7B
:10271C00164BC3F838012046FFF7B0FF70B938BD2F
:10272C0040F6C423124A1349134805F050FE4040AA
:10273C0080F311884FF0030002DFD5E70A4804F05C
:10274C00E3FD204609F017FD00EB40000B4B03EBBB
:10275C00800322461F215888FFF79CFA204609F077
:10276C00CFFDDCE744010020200100200000002008
:10277C0018E80008E0E8000888E80008800D002050
:10278C0038B512E040F63233124A1349134805F0BB
:10279C001EFE404080F311884FF0030002DF2146FB
:1027AC000F4807F0A4F804F011FD0D4DEB686FF322
:1027BC009433EB6005F1140000F092FE441C4FF0D2
:1027CC00FF324FF0FF332146284605F0BDF80028B4
:1027DC00D8D1E4E718E80008A8E8000888E8000861
:1027EC007401002070B582B0044600F10C05284637
:1027FC0009F008FEADF80400238AADF80630012B71
:10280C001ED90221284609F0E5FD0646007806F09F
:10281C00F6FC054610F0010F16D00523134A21468D
:10282C00307806F020FD15F0020F1BD06369BDF85F
:10283C0004201344E360BDF80630238202B070BD5F
:10284C00204609F05DFDF9E74FF46F63084A09492A
:10285C00094805F0BCFD404080F311884FF003009F
:10286C0002DFDAE7204609F04BFDE7E718E900083C
:10287C0018E80008E4E8000888E800080A4BD3F8D8
:10288C005C3143B9C3684BB1436953B1064BC3F8D0
:10289C005C01002070476FF0770070476FF01500F7
:1028AC0070476FF0150070470000002008B5084B0A
:1028BC00BFF35B8F53E8001F41F0040143E80012A3
:1028CC00002AF7D1BFF35B8F002000F08FFA08BD10
:1028DC00D000002008B507F049F8024B1B6803B183
:1028EC00984708BD980D0020F0B589B0364BD3F849
:1028FC005C31002B61D00546344BBFF35B8F53E842
:10290C00002F22F0020243E800210029F7D1BFF387
:10291C005B8FBFF35B8F53E8002F42F0010143E85C
:10292C0000100028F7D1BFF35B8F12F0010F47D1D5
:10293C00274B1D60274E0122114630460AF03BFE04
:10294C0006F124000AF00EFE234F00220023CDE9ED
:10295C000623002404946FF008030393029401945B
:10296C0000941E4B4FF420721D4938460AF0C3FBED
:10297C001C49384604F008F91B4F38460AF033FF5F
:10298C0000946FF007034FF496621849384604F030
:10299C004DFE1749384604F0F7F8F36BDB6898479F
:1029AC00044618B92DB1134804F038FE204609B07E
:1029BC00F0BD06F0DBFF0446F8E76FF01204F5E714
:1029CC006FF07704F2E700BF00000020D000002079
:1029DC00980D002020010020A00500208D27000864
:1029EC00C015002000E900085806002080180020BF
:1029FC0008E90008C00000200048704710E90008F2
:102A0C0070B50546002401E00134E4B2094BDB79D2
:102A1C00A3420BD92646C4EBC4010722054B19442B
:102A2C0028460BF0FBF90028EED101E06FF001060F
:102A3C00304670BD0000002038B50446062213490C
:102A4C000BF0ECF900B938BD062142F20500FFF796
:102A5C0059FA0546B8B1062221460C3009F098FC0B
:102A6C000022294642F20500FFF78AFA0028EAD133
:102A7C00074B2268C3F86920A288A3F86D200122B5
:102A8C0083F86820DFE76FF06800DCE7690000205E
:102A9C000000002070B582B005460E4629B1072211
:102AAC00184930460BF0BAF9E8B9684606F060FBF5
:102ABC00044618BB6846FFF7A3FF0028F5DAC5EB00
:102ACC00C505114AAB1800985051BDF804009DF88B
:102ADC000610988099718EB1525932609A889B7900
:102AEC00B280B3710AE0C5EBC505074AAB18316873
:102AFC005151B188B27999809A710024204602B064
:102B0C0070BD00BFB0E700080000002070B584B0B5
:102B1C00002946D104460E4620B1072227490BF066
:102B2C007DF928BB264BDB79012B43D0BFF35B8FA0
:102B3C00244B1B68BFF35B8F13F0010F0BD10023E9
:102B4C00009301930293039314B307221B4920466D
:102B5C000BF064F9E0B11A4BD879421CDA710546D6
:102B6C0032462146FFF796FFA8B9284604B070BD3F
:102B7C002046FFF745FF002816DA2378012B16D1E3
:102B8C00A37903F0C003C02BCCD06FF01505ECE794
:102B9C006FF01505E9E70A49CB79013BCB71054686
:102BAC00E3E76FF01505E0E76FF07705DDE76FF011
:102BBC001505DAE76FF00B05D7E700BFB0E70008A3
:102BCC0000000020D000002060B3F0B583B00446B4
:102BDC0001AA002141F20900FFF7D2F920BB019EA6
:102BEC00F7687D1C0622114928460BF017F928B10D
:102BFC0006220F4928460BF011F928B9304609F086
:102C0C007FFB002003B0F0BDD7F80130C4F80130D1
:102C1C00AB88A4F8053000232370019809F070FBF1
:102C2C000120EFE7002070470020EBE7C0E7000829
:102C3C00B8E7000800B583B06846FFF7C5FF064B40
:102C4C00D87118B9002003B05DF804FB0022694666
:102C5C001046FFF71FFFF6E70000002081B110B50A
:102C6C000C46094B1B78012B04D0074B1B782370A7
:102C7C00002010BD0548FFF7DFFE0028F5D0F8E76F
:102C8C006FF01500704700BF00000020010000200D
:102C9C0081B110B50C46094B1B780B7006F079FE10
:102CAC0008B1002010BD06F07EFE0028FAD10123E9
:102CBC002370F7E76FF01500704700BF000000208D
:102CCC0008B50A4BDB7923B1084BDB7933B1002013
:102CDC0008BDFFF7AFFF0028F6D0F9E706F07DFE40
:102CEC000028F5D10248FFF7A7FEF1E7000000200D
:102CFC000100002030B587B00446022142F20C00DE
:102D0C00FFF700F930B3054602210C3009F03AFB0D
:102D1C00012C15D0002343700470012C14BF002427
:102D2C000124009406230D4A03A92846FFF7D8F87E
:102D3C000022294642F20C00FFF722F907B030BD01
:102D4C00BFF35B8F054B1B68BFF35B8FC3F3402353
:102D5C004370E1E76FF06800F0E700BFD00000209F
:102D6C00014B00221A607047A40D002030B583B0CF
:102D7C0000230093CDF803308DF80000ADF801105E
:102D8C00ADF80320012814BF002401240DF1050126
:102D9C002046FFF77DFF054610B1284603B030BD35
:102DAC00072142F20B00FFF7ADF80546C8B1072228
:102DBC0069460C3009F0ECFA0022294642F20B006D
:102DCC00FFF7DEF805460028E7D1012006F063FE88
:102DDC0005460028E1D122460821034806F036FEBC
:102DEC00DBE76FF06805D8E7D000002038B5BFF3FB
:102DFC005B8F214B1B68BFF35B8FC3F3C01413F0C5
:102E0C00800F02D00024204638BD0546BFF35B8FEF
:102E1C00194B1B68BFF35B8F13F0400F03D00020DE
:102E2C0006F039FE28BB06220021084600F06AFD98
:102E3C0010B107F003F9E6E702220021084600F082
:102E4C0061FD03460028DED00B4ABFF35B8F52E8CE
:102E5C00000F40F4007042E800010029F7D1BFF3E5
:102E6C005B8F184607F0EAF8284606F018FE044671
:102E7C00C9E70446C7E700BFD000002038B5BFF350
:102E8C005B8F214B1B68BFF35B8F13F0800F03D15B
:102E9C000C4612F0010F00D138BD02220146002071
:102EAC0000F030FD05460028F6D0BFF35B8F164BC3
:102EBC001B68BFF35B8F13F0400F03D0002006F0AC
:102ECC00EAFD60B92368C5F89630A288A379A5F805
:102EDC009A2085F89C30284606F035FC60B11F23FB
:102EEC006B720021284600F01FFB284607F0A6F85D
:102EFC000020FFF77BFFCFE70621284600F014FBEC
:102F0C00284607F09BF8C7E7D00000202DE9F04FCA
:102F1C0085B08246884614469946BFF35B8F454B75
:102F2C001B68BFF35B8F13F0800F03D00B8913F07A
:102F3C00040F7CD1504606F034F9002836D19AF8AB
:102F4C000030FF2B37D13C4B186801909A889B7945
:102F5C00ADF808208DF80A30384B1B68C3B12046F9
:102F6C0009F050FA0546ADF80C00A688ADF80E60D5
:102F7C00A4F80490314B1F68234698F8072098F961
:102F8C00051001A8B847A36813FA85F52560A6803B
:102F9C0001ABC8F800302A4B1E68D6B1083E16F1BA
:102FAC0008051BD0B568CDB1083D17E0514601A806
:102FBC0006F0ECF8D0E75146002006F0ECFC034696
:102FCC00006801909A889B79ADF808208DF80A303A
:102FDC00C2E7354602E02A462E461546F6B133685E
:102FEC00ABB1204609F00EFA0746ADF80C00B4F868
:102FFC0004B0ADF80EB0A4F80490336821464046F6
:10300C009847A36813FA87F72760A4F804B0002D3B
:10301C00E1D0AA68002ADFD0083ADDE70023C8F81F
:10302C00003098F80820514601A8FFF727FF05B09B
:10303C00BDE8F08FD0000020B0E70008A40D002000
:10304C009C0D002038B5BFF35B8F3C4B1B68BFF366
:10305C005B8F13F0040F65D004460D4606F0D4FCCC
:10306C00002862D023781BB106F0B5FC00285FD095
:10307C00324BBFF35B8F53E8002F42F0800143E8E3
:10308C0000100028F7D1BFF35B8F12F0800F52D1E4
:10309C00BFF35B8F1B68BFF35B8F13F0400F03D044
:1030AC00002006F0F8FC88B9626802F001020921E0
:1030BC00224806F0CBFCA389B3B962892189207818
:1030CC00FFF754FE00BB1E4B1D6038BD1B4BBFF3FE
:1030DC005B8F53E8001F21F0800143E80012002AA7
:1030EC00F7D1BFF35B8FF0E7144BBFF35B8F53E863
:1030FC00001F21F0800143E80012002AF7D1BFF332
:10310C005B8F6FF08500E0E70C4BBFF35B8F53E8F0
:10311C00001F21F0800143E80012002AF7D1BFF311
:10312C005B8FD2E76FF00A00CFE76FF01500CCE7AA
:10313C006FF01500C9E76FF07700C6E7D0000020EC
:10314C00A40D002008B50C4BBFF35B8F53E8002F88
:10315C0022F0800143E800100028F7D1BFF35B8F09
:10316C0012F0800F05D0FFF7FBFD0020FFF73EFEAD
:10317C0008BD6FF07700FBE7D000002070B58CB075
:10318C000446202104A8FFF743F9054610B1284650
:10319C000CB070BD0AF00DFC034600205A1827D263
:1031AC000244144EA6FB020C2CF0030000EB9C0016
:1031BC00121A9B1A61F100004FF0CC3103FB01F1A4
:1031CC0006FB0011A3FB063211445B0843EAC173F2
:1031DC00490802930391082300936B44202204A90D
:1031EC00204605F060FD0028D1D16FF00405CEE734
:1031FC000120D5E7CDCCCCCC00B583B008216846F6
:10320C00FFF706F910B103B05DF804FB082269461C
:10321C00054805F025FD18B10348FFF7AFFFF2E7AD
:10322C006FF00400EFE700BF30070020D8B138B5CD
:10323C000C460546D1B10F4A05F057FDB0F1FF3FE2
:10324C0003D001280CD1002038BD0A48FFF796FFA7
:10325C000028F9D1074A2146284605F046FDF0E73B
:10326C006FF00400F0E76FF0150070476FF0150079
:10327C00EAE700BF3007002010B50B4B1C6801E0DB
:10328C009847A4691CB1A368002BF9D1F9E7074C46
:10329C0000E01C34064B9C4204D2A368002BF8D0EF
:1032AC009847F6E710BD00BFD80D002020E30008BA
:1032BC003CE3000838B505460C4B1C6803E0697A02
:1032CC0028469847A4691CB12368002BF7D1F9E76D
:1032DC00074C00E01C34074B9C4206D22368002BA1
:1032EC00F8D0697A28469847F4E738BDD80D002005
:1032FC0020E300083CE3000838B505460C4B1C687D
:10330C0003E0697A28469847A4691CB16368002BCE
:10331C00F7D1F9E7074C00E01C34074B9C4206D26E
:10332C006368002BF8D0697A28469847F4E738BDD3
:10333C00D80D002020E300083CE3000810B40C4C2E
:10334C0004F1080C0FC88CE80F00A38A0BB94FF4DA
:10335C009673074A9382138A03B99389044A13829A
:10336C00538A03B9D389024A538210BC704700BFF9
:10337C000000002008B50146002343608360C36051
:10338C0001480AF0FBF808BD6403002008B50AF0F8
:10339C00E7FD094B1A58094B9A4207D04FF0FF3200
:1033AC004FF0FF33064803F071FF08BD00220023E5
:1033BC00034803F06BFFF8E708000000280C00201E
:1033CC0064030020034BB3F804310BB1024870477F
:1033DC000020704700000020080100202DE9F84370
:1033EC0006460D4614461F46FFF7ECFF002200234D
:1033FC0003F0B2FF08BBB37A072B2FD134B3194BB0
:10340C00B3F8048104F10C09484608F0FFFF40456D
:10341C0016D9144BB3F80481424655F80C1F484694
:10342C0008F0B6FF4146284608F0CCFF3A46214644
:10343C00304606F04CFCBDE8F8836FF06800FAE704
:10344C00484608F0E3FF1FFA80F8E5E70022002366
:10345C0006F1380008F01EFF0446E7E76FF07F0026
:10346C00E9E700BF0000002038B500238B4229D2C9
:10347C0003EB430400EB841404F1BC024FF0010C89
:10348C00BFF35B8F52E800EFBEF1000F03D142E8AF
:10349C0000C5002DF6D1BFF35B8F11D174B1BC22E6
:1034AC00002120460AF04BFD074904F158000AF0B0
:1034BC00A0F9064904F128000AF06FF9204638BD3E
:1034CC006344D3E70024E9E719A30008F19B000843
:1034DC0008B501210148FFF7C7FF08BD68080020A7
:1034EC0070B506460E4C20460AF071FC23460022AD
:1034FC00012130460AF038FC012500240CB1284685
:10350C0070BD04EB440005EB850106EB8101054B16
:10351C0003EB801006F0F0FC00B901350134EDE747
:10352C00C00100206808002038B5857A8D4200F073
:10353C009E80044681725DB1062D0FD0A37A072BB5
:10354C0000F29580DFE803F0209093939393791128
:10355C008378082BF2D006F04AFDEFE78378012B35
:10356C00ECD158300AF098F9E8E7A378042B7ED018
:10357C0004F1380009F0F6FF00213D4804F042FA4E
:10358C0000232365636572E0A378042B07D0013D0B
:10359C00052D6CD8DFE805F00735494D3F2B20464B
:1035AC0006F04CFD63E0204606F0F9FAA378012BF7
:1035BC0011D00434BFF35B8F54E8003F43F0400359
:1035CC0044E80032002AF7D1BFF35B8F0021284872
:1035DC0004F018FA4BE004F1580528460AF015F9E6
:1035EC0010F00C0FE5D028460AF056F9E1E7637AA3
:1035FC001BB9204606F022FD39E02046FFF75AFEA3
:10360C00F7E7637A1BB9204606F018FD2FE0204639
:10361C00FFF750FEF7E7637A1BB9204606F00EFD64
:10362C0025E02046FFF746FEF7E7204606F006FDAC
:10363C001DE0204606F002FD19E0A378042B16D0FD
:10364C00012B14D10B4B9B8A8BB103EB83035900D9
:10365C00DA0052182CBF0123002392185B4104F1AD
:10366C00580004F021F802E0204606F085FB38BD36
:10367C00C00100200000002010B502460C460121BC
:10368C00054806F0F7FC10B18378234200D010BD3A
:10369C0006F0D4FC0020FAE768080020034BC01A9F
:1036AC008011034B03FB00F0C0B270476808002088
:1036BC00ABAAAAAA38B50C46014650B1084608F088
:1036CC00E3FD054618B1611D0C3008F057FE284685
:1036DC0038BD0149F2E700BF9403002070B50446E1
:1036EC00051D0921284606F0ABFA78B1B4F89E30D6
:1036FC00B4F8A020934209D3B4F8A220934205D881
:10370C00D4F8A420D4F8A8309A4202D0184B1D68E3
:10371C0015E0BFF35B8F55E8003F23F4007345E8D9
:10372C000032002AF7D1BFF35B8FEFE7B4F8A63075
:10373C00B4F8A420B4F89E102046B047AD691DB172
:10374C002E69002EF2D1F9E70A4D00E01C350A4B28
:10375C009D420BD22E69002EF8D0B4F8A630B4F8E6
:10376C00A420B4F89E102046B047EFE770BD00BF10
:10377C00D80D002020E300083CE3000838B50546CE
:10378C000D4B1C6804E005F1B80128469847A46964
:10379C001CB16369002BF6D1F9E7084C00E01C342E
:1037AC00074B9C4207D26369002BF8D005F1B80196
:1037BC0028469847F3E738BDD80D002020E30008D1
:1037CC003CE30008F8B506460D46084605F0FFFF39
:1037DC00074638B3154B1C6800E0A4696CB1E3686C
:1037EC00002BFAD0294630469847D0B1284605F030
:1037FC00EEFF0028F1D1074614E00D4C00E01C341C
:10380C000C4B9C420ED2E368002BF8D02946304674
:10381C00984748B1284605F0DAFF0028EFD1074653
:10382C0000E007463846F8BD0746FBE7D80D0020F8
:10383C0020E300083CE30008F8B507460E460024D8
:10384C0014B100252846F8BD04EB44030B4800EBEB
:10385C00831006F0CCFB054670B18378012B09D19F
:10386C003246394606F08BFC0028EBD1284606F090
:10387C00E5FB01E006F0E2FB0134E1E7680800201B
:10388C0038B5BFF35B8F1E4B1B68BFF35B8F13F018
:10389C00040F22D00546084605F099FF00B3BFF38C
:1038AC005B8F174B1B68BFF35B8F13F0800F1AD124
:1038BC00BFF35B8F124B1B68BFF35B8FC3F30034FA
:1038CC0013F4805F12D106F086F890B129460020DF
:1038DC0006F07CFC80B9204638BD6FF00A04FAE78C
:1038EC006FF01504F7E76FF00A04F4E76FF0770454
:1038FC00F1E76FF01504EEE76FF01504EBE700BF8E
:10390C00D00000202DE9F04107460E4690460024D9
:10391C001CB100252846BDE8F08104EB4400114B96
:10392C0003EB801006F063FB054688B18378012B0E
:10393C0010D126B13246394606F021FC68B1AB7A7B
:10394C00434502D12B7ABB42E4D0284606F076FBE5
:10395C000134DDE706F072FBFAE7284606F06EFB51
:10396C00F6E700BF68080020BFF35B8F314B1B6884
:10397C00BFF35B8F13F0040F53D070B506460C46A3
:10398C0021B1084605F023FF00284DD006F023F89E
:10399C0000284CD031460020FFF74EFF054680B181
:1039AC00E4B12146284606F0EBF80021281D06F06C
:1039BC0054F978B1AB7A13B3284606F03FFB0020DC
:1039CC0070BD314606F09BFB05460028E8D16FF030
:1039DC000B00F5E7284606F00AFBEBE70021281D53
:1039EC0006F012F90028E5D0284606F027FBAB7A42
:1039FC00022BDFD100212846FFF796FDDAE7BFF353
:103A0C005B8F0C4B1B68BFF35B8F13F0040FD3D091
:103A1C001CB102212846FFF787FD0020FFF7E6F9CD
:103A2C00CAE76FF00A0070476FF01500C8E76FF037
:103A3C001500C5E7D000002038B504460D460846F1
:103A4C0005F0C5FE50B3174B93F8D83013F0020FA6
:103A5C0004D094F8AC3013F0020F13D1E378C3B94F
:103A6C002946204606F02CFCB8B92B88A4F8A030C7
:103A7C006B88A4F8A230AB88A4F8A830EB88A4F823
:103A8C00AA300AE00A21201D06F0DAF80028E5D158
:103A9C00E6E72946204606F002FE38BD6FF0150019
:103AAC00FBE700BF0000002008B501460148FFF706
:103ABC0001FE08BD180400202DE9F04105460C4616
:103ACC000A8A1E4BB3F804319A4201D80B7FC3B15A
:103ADC00237F0BBB0026228A184BB3F804319A4281
:103AEC001CD92146284606F065FC074610B3334620
:103AFC00024621462846FFF771FC804638B901265C
:103B0C00E9E702230022FFF769FC80460FE02677E5
:103B1C00384608F0F5FB0AE00126DCE701232377A1
:103B2C000323002221462846FFF758FC80464046D6
:103B3C00BDE8F0816FF00B08F9E700BF0000002032
:103B4C0070B50446837A23B90621043006F05CF87C
:103B5C00A8B904F1380009F028FD054698B12846AB
:103B6C0008F0E8FB054601462046FFF7A5FF064690
:103B7C00284608F0C5FB16F1050F12D070BD204683
:103B8C0006F099F9FAE740F2AE330C4A0C490D48AD
:103B9C0004F01DFC404080F311884FF0030002DF5D
:103BAC00DDE7AE690023AB61284608F0A9FB002EC7
:103BBC00E4D03146204606F01AF8DFE7B0E90008F9
:103BCC00E0E8000888E8000870B51A4809F0CAFC5B
:103BDC00002406E0184901EB0411164809F0CEFC4C
:103BEC000134022CF6D907F0B4FC08F083FA054630
:103BFC0008B1284670BD06F073FD2C46002CF8D198
:103C0C0004EB44000D4B03EB801006F0F0F9064674
:103C1C0038B10021043006F013F820B9304606F014
:103C2C000DFA0134EAE70023337202213046FFF724
:103C3C007BFCF3E764030020A80D0020680800203B
:103C4C0005490A78531CDBB20B700BB902320A70AF
:103C5C00014B1878704700BF22100020002010B1D3
:103C6C006FF00B00704700EB40031B01064AD35862
:103C7C000BB10130F3E700EB4002034B03EB0213F3
:103C8C00024A5A600B607047DC0D00200CEA0008F9
:103C9C0030B583B00546194C00E00C34184B9C42EF
:103CAC002AD2636801A9284698470028F5DB0199B8
:103CBC0023888B828B84A268284606F0C0FBD8B17F
:103CCC00019843681B6803B19847019B1033BFF3FD
:103CDC005B8F53E8001F41F0010143E80012002AFA
:103CEC00F7D1BFF35B8F01984368DB69002BD4D00D
:103CFC0000F110019847D0E703B030BDFCE200089A
:103D0C0020E30008522833D81B2821D3A0F11B0331
:103D1C00372B2FD8DFE803F0372E393B2E2A352EE0
:103D2C00372E2E2E2E2E2E2E2E2E2E2E2E2E2E2E9E
:103D3C002E2E2E2E2E2E2E2E2E2E2E2E2E2E2E2E97
:103D4C002E2E2E2E2E2E2E2E2E2E2E2E2E2E2E3382
:103D5C0019280FD843B26BB101238340104A1A4083
:103D6C00BAB9104A1A402AB1012070470120704795
:103D7C00D22810D010F0400F0FD106207047002031
:103D8C0070470220704703207047052070470420BD
:103D9C00704702207047002070470020704700BF1A
:103DAC00AAAA8A025455450110B58468002104F171
:103DBC00340006F02DFD38B1A36B2BB1034A002360
:103DCC0004F1580003F078FC10BD00BFE093040030
:103DDC0070B582B005460E46436A03B1883B019329
:103DEC00002202E0013205E00193019C6CB12368D2
:103DFC00AB42F7D0012A39D014F18803F4D0D4F8AF
:103E0C008830002BF0D0883BEEE70022002301A97C
:103E1C00184802F065FE50BB019C90220021204600
:103E2C000AF08DF8144BA36004F13C0009F09AFBE6
:103E3C00019B3433BFF35B8F53E8002F43E80061E1
:103E4C000029F9D1BFF35B8F019B1D6001992846B6
:103E5C0006F022FD019C204606F066FC10B11523ED
:103E6C00638304E017236385638300E0002420460A
:103E7C0002B070BDCC020020D0010020F0B583B0A0
:103E8C0007460C460022002301A9134802F028FE25
:103E9C00E0B905460AF064F8104B1A58104B1A603A
:103EAC00019E2C22002130460AF049F83760019817
:103EBC0000214160816041628162FFF789FF034606
:103ECC0038B104332360284603B0F0BD6FF00B0506
:103EDC00F9E76FF00B05F6E7B002002008000000D0
:103EEC00540E002008B5011F014809F0A3F808BDC5
:103EFC00CC0200202DE9F04184B005460E46144654
:103F0C00176800238DF808304FF42053ADF80A30B1
:103F1C0002A9006805F0D8F858B100238DF80C30D0
:103F2C0042F60103ADF80E3003A9286805F0CCF871
:103F3C0050BB6168286805F0C7F868BBE36893F864
:103F4C000080B8F1000F07D0384606F0EFFBA368ED
:103F5C001B8AC01A404525DBA06804210C3008F0F0
:103F6C0011FA2061068023695E800194104B009346
:103F7C000023A2682946384606F0F7FC002813DB1C
:103F8C0023699BB101200AE023691BB15A88B24214
:103F9C0000D25E80012002E000232361012004B0E6
:103FAC00BDE8F0810020FAE70020F8E70020F6E7F2
:103FBC00B7A700082DE9F04383B0054688461446A0
:103FCC00D2F80090D9F804705168006805F07CF8BC
:103FDC0020B10126304603B0BDE8F0839522294676
:103FEC00384607F01AFF0646207538B92946384678
:103FFC0006F0C5FB48B908232375EBE7E3681B788B
:10400C000BB1002323750026E4E700272775A06871
:10401C0008F094F902210C3008F0B4F92061A0F8F2
:10402C0000800194114B00933B46A26829464846F8
:10403C0006F09BFC002808DB2369002BCAD04846FD
:10404C0006F074FBA368002206E006F090FB2075D6
:10405C00C0E7198A0A445B68002BFAD1861AE36818
:10406C001B789E4294BF00260126B3E78FA7000859
:10407C0010B50446043804F13003BFF35B8F53E8EA
:10408C00001F41F0010143E80012002AF7D1BFF3F1
:10409C005B8F06F0A7FE044904F1540009F0A9FB5C
:1040AC00206801F04DF910BDF5B50008F0B58BB0E6
:1040BC0004460D4616460378032B38D8DFE803F088
:1040CC0002212B311D4B93E803000790ADF8201013
:1040DC00090C8DF8221063792279E178A078677841
:1040EC000DF11C0CCDF814C00497039002910192B1
:1040FC000093A379124A3146284603F0C9FC0BB051
:10410C00F0BD104B93E803000790ADF82010090C9C
:10411C008DF82210DFE70C4A07AB07CA03C31A80DD
:10412C00D9E70A4A07AB07CA03C31A80D3E7084A80
:10413C000A2107A803F0ACFCCDE700BF14E400088B
:10414C002CE400081CE4000850E400085CE40008BF
:10415C0024E4000808B508F00EF800EB4000024B10
:10416C0003EBC00008BD00BF0C0E002070B5064666
:10417C000C46551C06F0DAFA85421ED82046FFF78D
:10418C00C1FD022806D0042804D04FF0FF324FF0B6
:10419C00FF3301E00A4A002300210A4806F081F9A6
:1041AC00054640B1FFF7D6FF8660012105F10C00F2
:1041BC0008F0E8F80470284670BD0025FBE700BF46
:1041CC00E0930400C00300202DE9F04105460C46A5
:1041DC00A0F10408404606F001FB238A13B9002025
:1041EC00BDE8F0810646012104F10C0008F0F2F85C
:1041FC000746B37A072BF2D155F8043C002BEED0CE
:10420C0000230D2B1ED83978174A12F8332091420F
:10421C0001D00133F5E7144D05EBC305228A6B7809
:10422C009A421ED36B68214640469847AB78012BC7
:10423C00D5D10028D3D0034600223978404606F069
:10424C00E6FFCCE73C782046FFF75CFD0028C6D0A3
:10425C000528C4D0062300222146404606F0D7FF8D
:10426C00BDE70420E2E700BF34EA00082DE9F04185
:10427C008AB0044616461D4603688846003918BFA6
:10428C000121186807F0BDFE28B175B90127384621
:10429C000AB0BDE8F081032104F1340006F04CFBB8
:1042AC0008B10027F3E71227F1E7002304930593E5
:1042BC0006930793089309933EB11A46314620465C
:1042CC00FFF754FF059000283AD023681B6804932D
:1042DC008DF81880BDF84030ADF82230119B079353
:1042EC00BDF84830ADF8203001238DF8243004ABF4
:1042FC000293144B01930022009213462946284640
:10430C0000F0D6FC9DF8247037B905990029BED071
:10431C00204606F047FFBAE726B9B8F1180F0CD0C3
:10432C000027B4E7059807F0EBFF9DF824302A46E8
:10433C004146204606F06BFFEFE79DF82470A6E798
:10434C001127A4E7CDA80008F8B504460F460F4A7C
:10435C0000230F4807F098FF064690B1204606F060
:10436C00E3F980B9092106F10C05284608F006F896
:10437C003046FFF7EFFE84600121284608F002F872
:10438C0007703046F8BD0B21EDE700BFE093040049
:10439C00C00300202DE9F0418AB005468846164638
:1043AC001F4600240594069407940894099411213F
:1043BC00FFF7CAFF079050B30595CDF8188001217F
:1043CC000C3007F0DFFF089022460470099405AB0F
:1043DC000293104B0193009423463946304600F06B
:1043EC0067FC089B1C7844B10799284606F0DAFE56
:1043FC00002420460AB0BDE8F081079807F080FF42
:10440C000A2332461021284606F001FFF1E7112459
:10441C00EFE700BF013F000870B588B006460D46B7
:10442C0003680121186807F0ECFD50B9032106F16F
:10443C00340006F081FA10B1002008B070BD1220D3
:10444C00FBE7002304930593069307932121304641
:10445C00FFF77AFF069058B304962B8A012B21D9CB
:10446C0005F10C0007F0C6FF044601238DF81C3043
:10447C0004AB02930F4B01930022009213460146AA
:10448C0000F016FC9DF81C30002BE6D0069807F0C7
:10449C0037FF9DF81C3022462021304606F0B7FE2F
:1044AC000020CAE70699304606F07CFE0020C4E7DF
:1044BC001120C2E7D9AA000870B588B006460D468F
:1044CC0003680121186807F09CFD50B9032106F11F
:1044DC00340006F031FA10B1002008B070BD122083
:1044EC00FBE7002304930593069307930F213046B3
:1044FC00FFF72AFF069058B304962B8A012B21D97B
:10450C0005F10C0007F076FF044601238DF81C30F2
:10451C0004AB02930F4B0193002200921346014609
:10452C0000F0C6FB9DF81C30002BE6D0069807F077
:10453C00E7FE9DF81C3022460E21304606F067FE41
:10454C000020CAE70699304606F02CFE0020C4E78E
:10455C001120C2E759AB0008F0B589B004460F46EC
:10456C0016461D4603680121186807F04AFD20B164
:10457C006DB90126304609B0F0BD032104F13400B9
:10458C0006F0DAF908B10026F4E71226F2E7002368
:10459C00049305930693079331462046FFF7D4FE08
:1045AC00069030B30494BDF83830ADF814300123C4
:1045BC008DF81C3004AB02930F4B01930022009238
:1045CC0013462946284600F073FB9DF81C6026B95B
:1045DC000699204606F0E6FDCCE7069807F090FE1B
:1045EC009DF81C302A463946204606F010FE00265F
:1045FC00C0E71126BEE700BF59AB00082DE9F0411A
:10460C008AB00546884616461F4600240494059435
:10461C0006940794089409940921FFF795FE0690D7
:10462C0068B30495CDF8148001210C3007F0AAFE74
:10463C000790224604700A238DF8243004AB0293B1
:10464C00104B0193009423463946304600F030FB62
:10465C009DF824403CB90699284606F0A3FD204657
:10466C000AB0BDE8F081069807F04AFE9DF82430A8
:10467C0032460821284606F0CAFD0024EFE7112433
:10468C00EDE700BFC13F00082DE9F0418AB00546B7
:10469C000E461746984600240594069407940894F1
:1046AC0009940721FFF750FE069060B3059522464A
:1046BC000794CDF820809DF840308DF824300A23E3
:1046CC008DF8253005AB0293104B019300942346D3
:1046DC003946304600F0ECFA9DF825403CB9069975
:1046EC00284606F05FFD20460AB0BDE8F08106982A
:1046FC0007F006FE9DF8253032460621284606F0C6
:10470C0086FD0024EFE71124EDE700BFBBAB0008EA
:10471C0070B588B004460E461546002304930593E5
:10472C00069307930521FFF70FFE0590F8B104944B
:10473C0004AB02930F4B01930022009213462946BF
:10474C00304600F0B5FA069B33B10599204606F0C9
:10475C0029FD002008B070BD059807F0D1FD0A2393
:10476C0032460421204606F052FD0020F2E71120CB
:10477C00F0E700BF1FAD000800B583B002460B4642
:10478C000021019109F0ECFB0C4909580C48006818
:10479C0088420DD001A90B4802F0A2F958B9019832
:1047AC000023036043608360C36003B05DF804FBC7
:1047BC0000221346EEE70020F7E700BF08000000D8
:1047CC00540E0020E802002010B50446806818B191
:1047DC0007F096FD0023A3602146024808F02AFC4E
:1047EC0010BD00BFE80200202DE9F04782B004465E
:1047FC000F4691461E46583009F04EF8A06B08B390
:10480C00114B98421BD045684FF0000AC0F804A029
:10481C00A06BD0F80C80FFF7D7FFC4F838A0206845
:10482C0006F0C2FB3DB123681868CDF800804B46FA
:10483C003A463146A847002002B0BDE8F087002573
:10484C00A563ECE70025EAE7580E002070B582B0AE
:10485C00054602E0184607F053FD0022002305F13F
:10486C000C0007F017FD03460028F3D10CE0AB60F9
:10487C0011E0E368009300231A466FF06701286883
:10488C00B0472046FFF7A0FF6C6844B123686B600B
:10489C00AA68A242EBD06668002EEAD1F1E70023A9
:1048AC002B602946024808F0C5FB02B070BD00BF62
:1048BC00B0020020064B1A68C0F801209A889B7938
:1048CC00A0F80520C371002303700381704700BF5B
:1048DC00B0E7000870B50646002414B10025284640
:1048EC0070BD0D4D05EB041566B123010A4901EBB2
:1048FC0004120132C95C304605F041FC0028EED1AF
:10490C000134EAE7284607220449013009F086FA07
:10491C000028F5D1E3E700BF840E0020B0E70008C3
:10492C0070B506460D4600240CB1002070BD04EB9A
:10493C0044030C4A12F823309E4201D00134F3E7B1
:10494C0004EB440302EB830007222946013009F0F3
:10495C0065FA0028F2D104EB4404024800EB840011
:10496C00E4E700BF940E0020F8B507460D4600247E
:10497C0014B100263046F8BD04EB840605EB460660
:10498C0067B104EB84033246013215F81310384634
:10499C0005F0F5FB0028EDD10134E9E704EB8400C8
:1049AC0005EB400007220349013009F037FA0028D3
:1049BC00F2D1DFE7B0E700080D4BBFF35B8F53E894
:1049CC00002F42F0020143E800100028F7D1BFF39A
:1049DC005B8F12F0020F0AD1064B05E05A680649AC
:1049EC00088802440A800833044A9342F6D370477D
:1049FC00A00E00203CE300081C1000204CE3000833
:104A0C00F8B506460F4615461C46FFF789FF844647
:104A1C0070B1BCF8083013B9BCF80A30CBB12346DE
:104A2C002A460CF10A010CF1080006F068FEF8BDEC
:104A3C000A49FFF775FF84460028F8D0034603F8AF
:104A4C00016B3A68C0F80120B988BA7999809A71DB
:104A5C00DFE7ACF80850ACF80A40E8E7B0E700082C
:104A6C0010B50446164BBFF35B8F53E8002F22F0B2
:104A7C00020243E800210029F7D1BFF35B8FBFF39B
:104A8C005B8F1B68BFF35B8F13F0010F04D12046C3
:104A9C0006F0E8FD30B910BD00220023094802F0F1
:104AAC000BFEF4E72046FFF715FF0028F3D0027A3F
:104ABC0012F0010FEFD0012106F0D2FFEBE700BF9F
:104ACC00E0090020B00900202DE9F04F83B0154615
:104ADC008268304B9A4203D0012003B0BDE8F08FBE
:104AEC000446C7687B89002BF6D00026B1465EB120
:104AFC00B9F1000FF0D100237B81FB68002BEBD0C8
:104B0C00002120469847E7E706EB860807EB4808A4
:104B1C00B8F80830CBB106EB860308F1010A52460F
:104B2C0017F81310284605F02AFB98B906EB8603F4
:104B3C00514617F81300FEF77FFE034628B1827A20
:104B4C00072A04D0184605F079FA0136CFE74FF062
:104B5C000109F7E705F1880301931946287A04F057
:104B6C0016FF50B90C4B9F4203D04046FFF7A2FEF4
:104B7C00EBE7284606F0C1FFF7E7D5F88830C8F810
:104B8C000130019B9A889B79AAF804208AF8063098
:104B9C00DBE700BF5DB900081002002038B5054600
:104BAC000C4605480021FFF7E7FD034608B14560B8
:104BBC00C460184638BD00BFE09304000B4B1A6864
:104BCC00C0F801209A889B79A0F80520C3710023B6
:104BDC0003720C30BFF35B8F50E8002F40E80031BC
:104BEC000029F9D1BFF35B8F704700BFB0E7000815
:104BFC00114BBFF35B8F53E8002F42F0010143E8E8
:104C0C0000100028F7D1BFF35B8F12F0010F00D01A
:104C1C00704710B5FFF7D0FE084C0949204608F044
:104C2C00E8FD642200232046FCF7ECFE054906480B
:104C3C0008F0DFFD10BD00BFA00E002038090020D9
:104C4C001FBE000889500008B009002028B3844614
:104C5C00008A38BB70B4144D012203E06B68134416
:104C6C009AB20835114B9D421AD22C686445F5D87E
:104C7C006E6806EB86039B00143B23446345EDD31F
:104C8C0000239E42EDD903EB830104EB81016145C6
:104C9C0005D00133013292B2F3E700207047104681
:104CAC0070BC7047704700BF3CE300084CE3000841
:104CBC002DE9F04F89B08246079190469946139F93
:104CCC00DDF850B0BDF848301BB94FF6FF73ADF8A6
:104CDC0048301B4B1B8853452AD209B0BDE8F08FD6
:104CEC008CB20836174B9E42F7D27368E118B94262
:104CFC00F6D300257368AB42F3D905EB8500CDF8EC
:104D0C0010B0CDF80CA012AB0293CDF80490CDF8F6
:104D1C000080079B3A462146D6F800C00CEB800079
:104D2C0006F030FF0028D8D001350134A4B2E1E7F9
:104D3C00054E012413975746DDF84CA0D2E700BF6F
:104D4C001C1000204CE300083CE3000810B5CCB06C
:104D5C000023489349934A934B931CAA48A904A84F
:104D6C0003F0D7FC08B304AC0294114B019300225E
:104D7C00009213464FF6FF710120FFF799FF214671
:104D8C000C4803F063FD80B110210A4806F0A1FC29
:104D9C00094BBFF35B8F53E8001F41F0080143E858
:104DAC000012002AF7D1BFF35B8F4CB010BD00BFCF
:104DBC0033B8000828090020E00900202DE9F04153
:104DCC0084B004460D4616461F461F49A1F130001B
:104DDC0008F072FDBFF35B8F1C4B1B68BFF35B8F3E
:104DEC0013F0080F17D02046FFF774FD18B1027AA4
:104DFC0012F0010F12D110230293154B0193BDF841
:104E0C00283000933B4632462946204606F000FFE8
:104E1C0004B0BDE8F081FFF799FFE4E700F10C085E
:104E2C000021404606F06EFD0028E4D1BFF35B8FF5
:104E3C0058E8003F43F0020348E80032002AF7D15B
:104E4C00BFF35B8FD7E700BF68090020E0090020A3
:104E5C002809002008B5BFF35B8F054B1B68BFF317
:104E6C005B8F13F0080F00D008BDFFF76FFFFBE757
:104E7C00E009002010B584B004460A460023036004
:104E8C00029007490191012100914FF6FF71808832
:104E9C00FFF70EFF2068003818BF012004B010BDCA
:104EAC002BB8000810B586B000240594FFF7CEFE91
:104EBC00013080B205AB0293054B0193009423465D
:104ECC0022460146FFF7F4FE059806B010BD00BF60
:104EDC00BDB700082DE9F04782B005460F461446D1
:104EEC0056689422314606F098FF002845D10222DC
:104EFC003146284606F0B4FF002841D0A68A023677
:104F0C0000961D23002221462048FFF747FE8146CC
:104F1C00C8B332461D21284606F0C0F9804610B3AE
:104F2C0001230022114606F0C8FB08F10C0A0221ED
:104F3C00504607F027FA064626F8027BA18A50460F
:104F4C0007F020FAA28A2169304608F0EAFFC9F876
:104F5C0008804946284606F06EFB044648B92046B0
:104F6C0002B0BDE8F0874846FFF72EFC6FF00B044B
:104F7C00F5E74846FFF728FCF1E74FF0FF34EEE782
:104F8C006FF01504EBE76FF00B04E8E7FFB70008D0
:104F9C00BFF35B8F374B1B68BFF35B8F13F0040FB2
:104FAC005ED030B58DB005460C4610B1837A072B18
:104FBC0059D160680590FFF749FEADF818002168DB
:104FCC0041B305A8FFF756FF00284FD0059B63603F
:104FDC00059B186800238DF82C3042F60303ADF8BE
:104FEC002E300BA904F070F848B90598C3689B796A
:104FFC0013F0200F13D006F0B3FEADF818008DB1EE
:10500C000123A3752246BDF818102846FFF762FF4E
:10501C000DB030BD0028DBD16FF00100F8E76FF068
:10502C001500F5E76FF07F0307930223ADF82030EE
:10503C0009940023A3758DF8283042F60212ADF8BE
:10504C002A2005AA02920C4A0192012200920AAA75
:10505C004FF6FF71BDF81800FFF72AFE0798D7E747
:10506C006FF00A0070476FF07F00D1E76FF001001E
:10507C00CEE700BFD0000020E151000810B582B08F
:10508C00034630F8082CADF8042030F8062CADF8A7
:10509C000620A0F1200100F13004BFF35B8F54E82F
:1050AC00002F22F0010244E800200028F7D1BFF3C2
:1050BC005B8F002023F8080C23F8060C0E4A43F8EB
:1050CC001C2C0E4A43F8182C01AA43F8102C04226D
:1050DC0023F80C2CFFF75CFF08B102B010BDBFF336
:1050EC005B8F54E8003F43F0020344E80032002A8F
:1050FC00F7D1BFF35B8FF0E7DCEA00086D4A0008DC
:10510C0038B5044600F18801007AFFF709FCF8B1C4
:10511C00054603890BB94389D3B12046FEF7BEFA85
:10512C002B890C4A22F820306B8902EB80025380C9
:10513C00094D00EB400305EBC303084959600849CE
:10514C0099601A6104229A8219462046FFF720FFC3
:10515C0038BD00BF680E00206C0E0020DCEA000891
:10516C0057BB0008F8B517688268184B9A4201D0F3
:10517C000120F8BD0446C6680025002DF8D105EBCA
:10518C00850306EB43031B89F3B105EB850306EBA3
:10519C004302013216F81310384604F0F0FF98B1B0
:1051AC004FF495722146384606F037FE08B10328B5
:1051BC000AD03146204606F0FEFA054B9E42D7D166
:1051CC003846FFF79DFFD3E70135D6E75DB90008F8
:1051DC00100200202DE9F04716468268544B9A4283
:1051EC0004D04FF001094846BDE8F0870746C56872
:1051FC00504B9D422DD000245FE033691A6904EBBB
:10520C004400538812884146DFF82CC11CF820005A
:10521C00FFF7F6FB0134002CEDD104EB4402464BB6
:10522C0003EB820808F1010807224449404608F0C4
:10523C00F5FD0028EED004EB4403072241463E481E
:10524C0010F82300FEF75EFB0028D6D004F0F6FE23
:10525C00E0E70024DFE704F0F1FE2DE0404604F027
:10526C00EDFE29E0404604F0E9FE25E004EB840263
:10527C0005EB4202128912F0020F49D03269B18853
:10528C004046FFF727FE824670B93269937D0133A1
:10529C00937509E004EB840305EB43031B8913F0BE
:1052AC00010F3AD14FF0000A404604F0C7FEC6F891
:1052BC0008A0BAF1000F96DB0134002C34D104EBBA
:1052CC00840305EB4303B3F808C0B3899C45F3D1C1
:1052DC0004EB840305EB4301013115F81300FEF7D1
:1052EC00ABFA80460028E7D0837A072BB3D16B69E1
:1052FC001BB1394698470028B0D094223946404615
:10530C0006F08BFD81460028ACD1B389022BADD0C1
:10531C00012BBFD04FF0000AC6E73269B188404676
:10532C0006F02FFE8246BFE74FF001095BE700BF96
:10533C005DB9000810020020940E0020B0E70008B0
:10534C0000B587B0049001208DF8140004AB0293D3
:10535C00054B01930022009213464FF6FF71FFF7A5
:10536C00A7FC07B05DF804FB71510008F8B50546C1
:10537C000E4617460A4B1C6804B1043C74B12368F2
:10538C0043B13A463146284698476468002CF5D01C
:10539C00043CF3E7231DF8D11C46EFE7F8BD00BF32
:1053AC00A40E002010B584B004460290074B019364
:1053BC000022009213464FF6FF710120FFF778FC94
:1053CC00204606F00AFC04B010BD00BFD54A000808
:1053DC00002010B16FF00B00704700EB40031B0175
:1053EC00064AD3580BB10130F3E700EB4002034BF4
:1053FC0003EB0213024A5A600B607047AC0E00209C
:10540C0008EC0008034BC01A8010034B03FB00F0A0
:10541C00704700BF94030020A38B2EBA2C22024BA2
:10542C0002FB0030704700BF9403002000F1200302
:10543C00094A52F82320094B9A420BD0B1F1FF3F95
:10544C00F4D00139F2D1404080F311884FF00400C0
:10545C0002DFEBE7704700BF001400580004008027
:10546C0038B50546002401E00134E4B26B78A34260
:10547C0016D3287820441F28F6DC01238340094AE0
:10548C00D26833EA0202EFD1064AD360064B53F8D6
:10549C003020002AE8D003EBC00359689047E3E7BB
:1054AC0038BD00BF00080058DC0E002000239942D4
:1054BC000ADD10B400EB030C044C04F80C2001338F
:1054CC009942F7DC10BC7047704700BF38020020CF
:1054DC0008B50246064B185601239340054AD2F8EC
:1054EC0080100B43C2F8803003F08CFC08BD00BF69
:1054FC0038020020000800581F2808DC01228240D6
:10550C000349D1F8803023EA0203C1F88030704798
:10551C000008005838B505460C464FF48011092098
:10552C00FFF784FF032C0ED8DFE804F002121D28CD
:10553C000122AA40164B196821EA02011960596828
:10554C0021EA02025A60134B4FF480625A6238BD52
:10555C000122AA400E4B196811431960596821EABF
:10556C0002025A60EFE70122AA40094B5968114325
:10557C005960196821EA02021A60E4E70123AB4082
:10558C00034A11681943116051680B435360DAE701
:10559C00000800580014005810B40D4B53F830306C
:1055AC008B4209D08BB90A4B43F8301003EBC00384
:1055BC005A60002010BC7047054C04EBC00CDCF8A2
:1055CC0004409442EED10020F4E76FF00F00F1E7B5
:1055DC00DC0E0020034B002243F8302003EBC00309
:1055EC005A607047DC0E002008B50146014807F0F0
:1055FC00C5FF08BD7C03002008B5024801F084FEFD
:10560C0008BD00BF0403002008B5024801F07CFE71
:10561C0008BD00BF3403002010B504464FF0FF3224
:10562C004FF0FF331B4801F097FE237EF3B1022BA2
:10563C002AD14FF0FF324FF0FF33174801F08CFEA8
:10564C00022104F10C0006F0B6FE228AE168134830
:10565C0008F067FC00210846FBF7FAFA0D4801F048
:10566C0053FE204606F04CFE002010BD0C480123D2
:10567C000372228AC272E168093008F052FC0021E0
:10568C000846FBF7BFFAE9E7024801F03DFE6FF070
:10569C001500EAE74C03002004030020FC01032062
:1056AC00D800032010B582B001AA00214FF63B4070
:1056BC00FCF766FC044610B1204602B010BD019800
:1056CC0006F01EFE00E03BB9074BD3F8883013F40C
:1056DC000043F8D00123F6E7044B00221A7004486B
:1056EC00FBF724FFE8E700BF00040058231000205C
:1056FC00E809002038B503783E2B0BD1044683789B
:10570C000A2B07D100F1080506220649284608F0A5
:10571C0085FB00B138BD6369A360238BA381012392
:10572C00E371F7E7B8E70008D0B582B03EE0204659
:10573C00FBF718FB37E0E37A022B01D0002151E094
:10574C000026002701214DE0304606F0D9FD2AE065
:10575C004FF0FF324FF0FF330320FCF7ADF9064654
:10576C00B4F80930ADF80430B4F80B30ADF80630AD
:10577C0000F10C0704220DEB0201384606F008FE7E
:10578C00384606F043FEBDF80620904245D304F19E
:10579C000D01384606F0FCFD244B1868FBF7E2FAC5
:1057AC00304604F0BDF8224801F0AEFD4FF0FF3654
:1057BC004FF0FF3732463B461E4801F067FD1B4C4D
:1057CC00206032463B461A4801F0C6FD2468237A15
:1057DC00022BBDD0042B24D1607AFF28A7D03E2801
:1057EC00A9D0002132463B46FCF776F90646002844
:1057FC00D9D00E4C20680930FFF77CFF06F10C075E
:10580C00384606F003FE21688A7A023290429BD316
:10581C000931384606F0BCFDBEE7304606F070FD97
:10582C00C1E72046FBF79EFABDE700BF5C0F0020E6
:10583C004C0300207C03002008B5024801F064FDF5
:10584C0008BD00BF1C03002008B5830F820012188E
:10585C0043F1000392185B41014801F07DFD08BD46
:10586C001C03002008B50F4B3F229A609A615A68BE
:10587C0042F47C125A605A6942F47C125A615A689A
:10588C0042F03F025A605A6942F03F025A610022CC
:10589C0011462C2003F0BBFA002211462D2003F0F8
:1058AC00B6FA08BD000C005800B58DB0FBF756F9E0
:1058BC00114B0093114B019369461148FBF7A4F867
:1058CC00104B0693104B0793104B089340F23C532C
:1058DC00099306A8FBF722FA0D4B04930D4B059385
:1058EC000D4B02930D4B039302A8FBF767F902F0E3
:1058FC00DEFD0DB05DF804FB14050320BDC40008EB
:10590C0015560008FC02032008040320200603207F
:10591C00D8000320F4010320F555000805560008B3
:10592C0038B5184807F0D5FA48B3164B9D68AB69E3
:10593C00FBB10022144913489847041E17DB2B684F
:10594C00124910489847041E11DBFFF78BFFFFF735
:10595C00ABFF41F2883200230D4801F0FDFC0446F8
:10596C0050B9022006F0A5FD0A4B01221A70204600
:10597C0038BD6FF05704FAE76FF07304F7E76FF078
:10598C001204F4E728E00008A0EC000898EC0008EA
:10599C00340300202310002008B50348FCF76EFFE9
:1059AC00FFF7BEFF08BD00BF80EC00080D4BD3F81D
:1059BC008035B3F1FF3F12D00A4AD2F884250A4849
:1059CC000370C3F307214170C3F307438370C270A4
:1059DC00C2F307230371C2F30742427170470020E0
:1059EC00704700BF0070FF1F600F002000B589B02A
:1059FC00144B1B7873B902F008FD00E03BB9124B55
:105A0C00D3F8883013F40043F8D00123F6E7FFF7FE
:105A1C0087FFA0B900220023CDE9062300230493BD
:105A2C006FF009020392029301930093074B4FF41A
:105A3C0000720749074807F05EFB06F0A9FD09B0A4
:105A4C005DF804FB231000200004005835570008B3
:105A5C00801D0020E809002000F12003094A52F8BB
:105A6C002320094B9A420BD0B1F1FF3FF4D00139FE
:105A7C00F2D1404080F311884FF0040002DFEBE7D5
:105A8C00704700BF001400580004008070B50C462D
:105A9C001546364B1E680121304606F0A0FD2368E2
:105AAC00082B5DD0013B5F2B5DD8DFE803F03C3F5A
:105ABC004449554C515C5C5C5C5C5C5C5C5C5C5C67
:105ACC005C5C5C5C5C5C5C5C5C5C5C5C5C5C5C5C0A
