:020000040800F2
:10000000404200207D600008D93B0208696000087A
:10001000696000086960000869600008000000006D
:1000200000000000000000000000000081610008E6
:1000300069600008000000001961000875D6010819
:1000400095630008956300089563000895630008B0
:1000500095630008956300089563000895630008A0
:100060009563000895630008956300089563000890
:100070009563000895630008956300089563000880
:100080009563000895630008956300089563000870
:100090009563000895630008956300089563000860
:1000A0009563000895630008956300089563000850
:1000B0009563000895630008956300089563000840
:1000C0009563000895630008956300089563000830
:1000D0009563000895630008956300089563000820
:1000E0009563000895630008956300089563000810
:1000F0009563000895630008956300089563000800
:1001000095630008956300089563000895630008EF
:1001100095630008956300089563000895630008DF
:1001200095630008956300089563000895630008CF
:0C013000956300089563000895630008C3
:04013C00FFFFFFFFC3
:1001400053B94AB9002908BF00281CBF4FF0FF313E
:100150004FF0FF3000F00CB8ADF1080C6DE904CEA3
:1001600000F008F8DDF804E0DDE9022304B0704790
:10017000704700BF2DE9F04786468C460846089E2A
:10018000154674461946002B40F0C2808542B2FAEB
:1001900082F245D94AB1C2F1200300FA02FC2EFADC
:1001A00003F3954043EA0C0C94404FEA154EA8B275
:1001B000BCFBFEF8230C0EFB18CC08FB00F943EA4D
:1001C0000C43994528D9EB1808F1FF3704D299451B
:1001D00002D9A8F102072B44A3EB0903A4B2B3FB95
:1001E000FEFC0EFB1C330CFB00F044EA0344A0426F
:1001F00014D92C190CF1FF3304D2A04202D9ACF16E
:1002000002032C44241A43EA07401EB1D4400023C1
:1002100034607360BDE8F0874746DDE76346F1E789
:1002200092BB431B01214FEA154EAFB2B3FBFEFC5C
:10023000200C0EFB1C330CFB07F840EA03439845E7
:1002400062D9EB180CF1FF3004D2984502D9ACF119
:1002500002002B44A3EB0803A4B2B3FBFEFC0EFB8D
:100260001C330CFB07F744EA0344A7424ED92C1970
:100270000CF1FF3304D2A74202D9ACF102032C44A3
:10028000E41B43EA0040C0E7C2F1200320FA03F177
:10029000954090402EFA03F303434FEA154EAFB258
:1002A000B1FBFEFC0EFB1C10190C0CFB07F841EA1D
:1002B0000041884504FA02F422D969180CF1FF3094
:1002C00004D2884502D9ACF102002944A1EB08010F
:1002D0009BB2B1FBFEFC0EFB1C110CFB07F743EAC3
:1002E00001439F420ED9EB180CF1FF3104D29F421B
:1002F00002D9ACF102012B44DB1B41EA004192E739
:100300006046E3E76146F7E76046A3E76346B7E781
:10031000834206D916B9002108467BE7C6E900E00A
:10032000F9E7B3FA83F78FB9834201D3724508D84E
:10033000BEEB020460EB030301209C461EB90021C2
:1003400068E73846FAE7C6E9004CF8E7C7F1200C41
:10035000BB4022FA0CF41C432EFA0CF120FA0CF3E9
:10036000B84001434FEA14490EFA07F5B3FBF9F818
:100370001FFA84FE09FB18300B0C08FB0EFA43EA47
:1003800000439A4502FA07F240D9E31808F1FF301A
:1003900004D29A4502D9A8F102002344A3EB0A0330
:1003A00089B2B3FBF9F809FB183308FB0EFE41EAEA
:1003B00003418E452CD9611808F1FF3304D28E45D4
:1003C00002D9A8F10203214443EA0040A0FB0298AD
:1003D000A1EB0E014145CE46434602D306D14D4521
:1003E00004D2B9EB020E68EB04030138002EA6D04C
:1003F000B5EB0E0261EB030101FA0CFC22FA07F3E4
:100400004CEA0303F940C6E9003198E74046C5E7E6
:100410004346D9E710F8012B11F8013B012A28BF08
:100420009A42F7D0D01A7047034611F8012B03F80F
:10043000012B002AF9D17047034613F8012B002A3B
:10044000FBD1181A0138704710B5082140F6014059
:1004500008F074FED8B1044608210C301BF06CFA89
:1004600002460F4B93F8883013F0010F0BD10D4863
:100470004FF0005123F020FD0022214640F60140BC
:1004800008F042FF10BD04A1D1E90001F2E76FF0CE
:100490006800F7E7AFF3008090880002008000203A
:1004A000000000201088000208B539B1074A127810
:1004B00002B908BD064822F01EFCFAE7034B1B7880
:1004C000002BF6D0034822F016FCF2E704030020CC
:1004D00088940208A4940208F8B5866847680469FD
:1004E00012F0FC6F33D1134602F03002302A3ED0B6
:1004F000504A1A40504DAA4249D003F00602042A3D
:1005000055D013F4402202D013F4003F5CD0B2F572
:10051000402F69D013F4801F05D022B113F0010FD2
:1005200001D083F4402323F480123D684FF0010C86
:100530000CFA01FC15EA0C0F66D013F0010F73D012
:1005400023684CEA0303236033689847F8BD3B4CAB
:100550004FF4737322463A493A4822F0E1FB3A4895
:1005600022F0DEFB4FF47371204622F0D2FB334CB5
:1005700040F2CF3322463549324822F0D1FB34488D
:1005800022F0CEFB40F2CF31204622F0C2FB2B4CB2
:1005900040F2D33322462F492A4822F0C1FB2E488D
:1005A00022F0BEFB40F2D331204622F0B2FB234CB6
:1005B00040F2D63322462949224822F0B1FB40F2CC
:1005C000D631204622F0A5FB1C4C40F2D9332246FE
:1005D00023491C4822F0A4FB224822F0A1FB40F250
:1005E000D931204622F095FB144C40F2DD332246EF
:1005F0001D49144822F094FB1C4822F091FB40F264
:10060000DD31204622F085FB0C4C40F2E9332246D6
:1006100017490C4822F084FB164822F081FB40F277
:10062000E931204622F075FB236823EA0C0323609E
:100630008AE700BF0200030002000100BC94020828
:10064000F894020858950208789502089C950208CB
:10065000D89502081896020860960208B09602081B
:10066000E49602082C97020868970208AC970208E3
:10067000D89702081898020870B58368456806691B
:100680009C69002C72D002F4C003B3F5C00F1DD0DA
:1006900063B302F0E863B3F1C86F37D002F0C86308
:1006A000B3F5800F42D02D6801238B401D424DD001
:1006B00012F4000F04D035682B4201D082F0C062E2
:1006C00002F0C06302F0B072A04770BD294C40F246
:1006D0006F3322462849294822F022FB284822F07D
:1006E0001FFB40F26F31204622F013FB214C40F2F9
:1006F000733322462349214822F012FB224822F07C
:100700000FFB40F27331204622F003FB194C40F2FC
:10071000763322461D49194822F002FB1C4822F07C
:10072000FFFA40F27631204622F0F3FA114C40F203
:100730007D3322461749114822F0F2FA164822F07A
:10074000EFFA40F27D31204622F0E3FA094C40F204
:10075000873322461149094822F0E2FA104822F074
:10076000DFFA40F28731204622F0D3FA6FF05700CB
:10077000ABE700BFBC9402082C9802085895020809
:10078000709802089C980208C8980208F498020819
:1007900078990208CC990208189A0208D89702089A
:1007A0001898020810B582B043681B6801248C4079
:1007B00023420AD001A922F0BCF820B9019B1C42B7
:1007C00014BF0120002002B010BD084C40F2FB53C2
:1007D00022460749074822F0A3FA074822F0A0FA68
:1007E00040F2FB51204622F094FA00BFBC9402086C
:1007F000D8970208589502081898020810B50F21DA
:100800000D4B1868FFF7CEFF0C4B1B7853B90C4B00
:1008100001221A701BF0BEF805F00EFE094BC3E969
:10082000000110BD04461DF063F80146224606484B
:1008300022F061FAEBE700BF6816002004030020F5
:10084000AA1C002040070020609A0208F0B58BB077
:1008500004460D4616460378032B38D8DFE803F02C
:1008600002212B311D4B93E803000790ADF82010B7
:10087000090C8DF8221063792279E178A0786778E5
:100880000DF11C0CCDF814C0049703900291019255
:100890000093A379124A3146284621F0C1FD0BB0DE
:1008A000F0BD104B93E803000790ADF82010090C41
:1008B0008DF82210DFE70C4A07AB07CA03C31A8082
:1008C000D9E70A4A07AB07CA03C31A80D3E7084A25
:1008D0000A2107A821F0A4FDCDE700BF889A0208ED
:1008E000989A0208909A0208BC9A0208C89A0208CC
:1008F00044D5020800B587B0002301930293039307
:100900000493059301238DF804306023ADF80C3077
:100910003023ADF80E300C4901A80EF0DFFC28B9E9
:100920000A4B1B785BB907B05DF804FB0146074B27
:100930001B78002BF7D0064822F0DDF9F3E70548D5
:1009400022F0D9F9EFE700BF59090008040300209D
:10095000D49A0208F89A0208354B1B6803B1704715
:1009600030B597B005460C46012A01D917B030BD05
:100970001E2208A9FFF76AFF2E4B1B78FBB914F162
:100980005A0FF3DB2C4B1C682C4B53F82410684691
:10099000FFF74AFD112208A9684628F0A0F9A0B186
:1009A000274A136801331360264A12689342DDDB3D
:1009B000234B00221A6001341F4B1C60D6E72246ED
:1009C00008A9214822F097F9D9E71D4B00221A60A7
:1009D0000EF016FD0028C9D11C4B1B68012B1AD044
:1009E0001B4C0DF1400C94E80F008CE80F0014AA8A
:1009F000103494E8030082E803000D4B614628465A
:100A000010F05CFE02460028B0D00A4B1B7853B9A8
:100A1000FFF770FFAAE71AF0BDFF05F00DFD0D4BC3
:100A2000C3E90001DCE708A90B4822F064F9EFE70D
:100A300028160020040300207C16002088010020D6
:100A40008016002084010020189B020880010020ED
:100A50004093020840070020349B0208F0B591B093
:100A600051B106460F46454B1B78A3B9444B1B7842
:100A7000B3B1002011B0F0BD1446404B1B7833B920
:100A8000002323606360A360E3602361F1E73D48D6
:100A900022F031F9F4E7098A3B4822F02CF9E5E726
:100AA00001AC3A4D0FCD0FC42B68237001A9384B10
:100AB000186823F090F9002834D0398A0131354B79
:100AC00019602F4B01221A702C4B1B78002B4DD133
:100AD0002A4B1B78002B4DD10BAC2C4D0FCD0FC4E6
:100AE0002B6823702C4F3C460BAD0FCD0FC42B68E9
:100AF000237027490F60294B4B6001230B814FF670
:100B0000FF73CB8100230B74304615F0B3FD014613
:100B10000028AED0194B1B78002BABD0204822F018
:100B2000EAF8A7E706AC04350FCD0FC42B68237095
:100B3000DFF864C0644606AD0FCD0FC42B68237088
:100B40001349C1F800C03B8A01330B8103230B74A6
:100B5000304615F08FFD014600288AD0074B1B78E0
:100B6000002B86D00F4822F0C6F882E70E4822F00C
:100B7000C2F8ADE70D4822F0BEF8ADE7040300204F
:100B8000AC1C0020549B0208689B02085893020882
:100B9000141600207C01002068010020890C000848
:100BA000E89B0208809B02089C9B0208B49B0208F9
:100BB00010B58AB08646164B00930023019301239B
:100BC000ADF808304FF6FF73ADF80A300DF1140C94
:100BD000104C0FCCACE80F0023688CF8003005AB4C
:100BE00003936946704615F0FDFF48B101460A4B74
:100BF0001B780BB90AB010BD084822F07CF8F9E761
:100C0000054B1B78002BF5D0054822F074F8F1E76E
:100C1000251600088093020804030020049C0208A3
:100C2000209C020810B584B00446124B0093ADF826
:100C300004100023ADF806300F4B02930423ADF8E7
:100C40000C30694616F014F950B101460B4B1B7875
:100C500043B90A4B1B784BB91321204610F0ECFD29
:100C600004B010BD064822F046F8F2E7054822F02D
:100C700042F8F1E7A90400088001002004030020E5
:100C8000389C0208589C0208F0B5A1B0C1B10546D5
:100C90000E46A14B1B7813BBA04B1B68022B23D025
:100CA0009E4B1B68012B2AD09C4B1B68032B32D018
:100CB0009A4B1B68042B00F0C380002021B0F0BDCC
:100CC0001446954B1B7833B9002323606360A360FF
:100CD000E3602361F1E7924822F00DF8F4E7098A16
:100CE000904822F008F8D7E71AF054FE05F0A4FB6C
:100CF0008D4BC3E900012846FFF75AFFD0E7864B2A
:100D00001B7823B91321284610F096FDCCE78748BD
:100D100021F0F1FFF6E76C46854F0FCF0FC43B681B
:100D200023706946834B186823F055F818BB05AC4F
:100D30002C370FCF0FC43B682370DFF8FCC164462B
:100D400005AF0FCF0FC43B6823707A49C1F800C0CC
:100D5000338A01330B8103230B74284615F08AFC78
:100D600001460028A4D06C4B1B78002BA0D0734800
:100D700021F0C1FF9CE70AAC714F0FCF0FC43B6855
:100D800023700AA96B4B186823F025F860BB002379
:100D90008DF83C3042F60213ADF83E30DFF898C1D2
:100DA00064460FAF0FCF0FC43B682370614CC4F88B
:100DB00000C0338A0233238104232374304625F094
:100DC0003EFD604B98812146284615F053FC0146B4
:100DD00000283FF46DAF504B1B78002B3FF468AFF9
:100DE000564821F088FF63E75649574B0B600223B2
:100DF0000B82338ACB81284616F07CF9014658B124
:100E000010F1780F08D0444B1B78002B3FF455AFFE
:100E10004E4821F070FF50E73F4B1B7843B93E4BE3
:100E20001B784BB94A4B19882846FFF7FBFE44E76D
:100E3000484821F060FFF2E7474821F05CFFF1E706
:100E400010AC3B4F0FCF0FC43B68237010A9394B38
:100E5000186822F0C0FF28BB15AC40370FCF0FC475
:100E60003B682370DFF8D0C0644615AF0FCF0FC4C6
:100E70003B6823702F49C1F800C0338A01330B81CE
:100E800003230B74284615F0F5FB014600283FF4B8
:100E900014AF214B1B78002B3FF40FAF274821F0F4
:100EA0002AFF0AE71AAC2D4F0FCF0FC43B682370FF
:100EB0001AA9204B186822F08EFF002850D1002379
:100EC0008DF87C3042F60213ADF87E30DFF868C052
:100ED00064461FAF0FCF0FC43B682370154CC4F896
:100EE00000C0338A0233238104232374304625F063
:100EF000A6FC144B98812146284615F0BBFB014601
:100F000000283FF4DAAE044B1B78002B3FF4D5AE3B
:100F10000A4821F0F0FED0E6040300208001002002
:100F2000549B0208689B020840070020989C020816
:100F3000589302081416002068010020809B0208C4
:100F400094930208F8150020A1130008C49C02081D
:100F50007C010020E09C0208F89C0208A89302088B
:100F60001549164B0B6001230B82338ACB8128462F
:100F700016F0C0F8014658B110F1780F08D0104BA8
:100F80001B78002B3FF499AE0E4821F0B4FE94E696
:100F90000B4B1B7843B90A4B1B784BB90A4B19888A
:100FA0002846FFF73FFE88E6084821F0A4FEF2E756
:100FB000074821F0A0FEF1E7F8150020A113000872
:100FC00004030020C49C02087C010020189D020834
:100FD000F89C020870B50C4615461CF0F3FD064659
:100FE00078B12A462146FFF777FA002811DB4FF047
:100FF000B86221463046FFF73FFB002812DB30463F
:1010000070BD0D4B1B78002BF9D00C4821F073FEFE
:10101000F5E7094B1B780BB90026F0E7084821F0EB
:101020006AFEF9E7044B1B780BB90026E7E7054891
:1010300021F061FEF9E700BF04030020309D0208A3
:101040004C9D02086C9D020870B50246264800239C
:1010500000F8153F0024531842D22344234CA4FB2C
:10106000035626F0030505EB96055B1BD31A61F1C9
:1010700000054FF0CC3C0CFB03FC04FB05CCA3FBB0
:101080000434A4445B0843EACC7303EB8303A2EB70
:101090004303303300F8013D96468C460024531834
:1010A00020D22344114CA4FB035626F0030505EB84
:1010B00096055B1BD31A61F100024FF0CC3103FBA4
:1010C00001F104FB0211A3FB043421445B0843EA51
:1010D000C1724908BEF10A0F7CF1000CBAD270BD92
:1010E0000124BAE70124DCE7E0150020CDCCCCCC0C
:1010F00070B58EB004460D46504B1B68012B15D0C1
:10110000204623F036FD1E2201A9FFF79FFB4C4B22
:101110001B78FBB9494B1B68012B20D0002D47D110
:10112000484B1B68A34255D00EB070BD05F084F942
:1011300002460B464449C1E90023444822F084FD9D
:10114000434B1E6822F08AFD424B03EBC603C3E902
:101150000001D5E701A9404821F0CDFDDAE7384B81
:101160001B787BB9364B1B7883B9354B1B78DBB9C1
:10117000334B1B78002BD1D0354B1968374821F001
:10118000BAFDCBE7364821F0B6FDEBE7304B1A68E5
:10119000304B03EBC203D3E90001FFF755FF0146D3
:1011A000304821F0A8FDE0E72F4821F0A4FDDFE75B
:1011B000234B1B7843B9234C20680FF0C9FC002354
:1011C0002360FFF797FBAFE72A4601A9274821F0E4
:1011D00092FDF0E709AD264E0FCE0FC533682B7098
:1011E000244E35460DF1240CBCE80F000FC5DCF889
:1011F00000302B70204B1E60204B1B78D3B91E4B48
:101200001F4A5A601C4901230B814FF6FF73CB81A3
:1012100000230B74204615F02DFA10F0FF0F83D039
:10122000074B1B78002B3FF47FAFC1B2154821F06C
:1012300062FD79E7104B144A5A60E3E78001002011
:101240000403002028160020380700204007002053
:1012500078160020E8060020989D0208C09D02082C
:10126000A89D020800C1020888B60208D89D02089D
:10127000589302086801002014160020AC1C0020BE
:101280005D0A0008E89B0208890C0008F0B583B0ED
:1012900007460E46002410E007EBC403094A156810
:1012A000D3E90023CDE90023074B1A68074B53F815
:1012B0002510074821F01FFD0134A642ECD803B0E9
:1012C000F0BD00BF7C1600208001002088010020B6
:1012D000F89D0208284B1B68834200D0704710B568
:1012E00088B00C4623F045FC1E226946FFF7AEFA93
:1012F000224B1B7883B9204C20680FF029FC002377
:1013000023601F4B1B68012B0CD01E4B00221A7050
:10131000FFF7F0FA08B010BD224669461A4821F0DE
:10132000EAFCE8E7194A136801331360092B16DD5C
:10133000134600221A60114B1B78A3B90A211448E6
:10134000FFF7A4FF134A136801331360032B06D978
:10135000134600221A600A4A13680133136064209E
:1013600021F0FDFAD1E70B4B1A680B4B53F8221012
:101370000A4821F0C0FCE1E7281600200403002001
:1013800080010020AA1C00202C9E02087816002054
:10139000E80600207C16002088010020509E0208EC
:1013A00038B562B105461468844B1B68032B11D015
:1013B000824B1B68042B00F08480012038BD0C4652
:1013C0007F4B1B7813B90020A081F7E77D4821F0FF
:1013D00092FCF8E77C4B1B7853B9794B1B781BB90F
:1013E000794B01221A70E3E7784821F084FCF7E793
:1013F000774B1A68774B03EBC20143F83240002366
:101400004B606F4B1B7883B96D4B1B788BB96C4B62
:101410001B7893B96A4B1B78A3B9684B1B68032BE5
:1014200014D0694B00221A70C2E76B4821F063FCAC
:10143000EAE76A4821F05FFCE9E72146684821F0C5
:101440005AFCE7E7674821F056FCE6E75C4B1B785F
:1014500023BB5F4A136801331360092BE1DD134698
:1014600000221A60564B1B78F3B90A215948FFF73E
:101470000DFF5D4A136801331360032B06D9134631
:1014800000221A604D4A1368013313604C4B1B78DD
:101490009BB91321284610F0CFF9C2E74C4B1968CD
:1014A000524821F028FCD4E74F4B1A68504B53F8B0
:1014B0002210504821F01FFCD7E74F4821F01BFCB9
:1014C000E7E74E4B1B780BB9012077E704F0B4FF38
:1014D00002460B464A49C1E900234A4822F0B4FBC0
:1014E000494B1C6822F0BAFB484B03EBC403C3E929
:1014F0000001424B00221A70314B1B78002B31D176
:101500002F4B1B78002B31D12D4B1B78002B3BD15F
:101510002B4B1B78002B3BD13B4A136801331360E4
:10152000092B48DD134600221A60254B1B78002B3F
:1015300034D10A213548FFF7A9FE2B4A136801333D
:101540001360032B05D9134600221A601B4B01229E
:101550001A601B4B1B7853BB1321284610F06CF903
:1015600001202BE72A4821F0C6FBC9E7264B1A6861
:10157000264B03EBC203D3E90001FFF765FD0146EB
:10158000244821F0B8FBBFE7164821F0B4FBBFE7C1
:101590001D4B1968204821F0AEFBBDE7124B1A68BD
:1015A000134B53F822101D4821F0A5FBC1E71C483E
:1015B00021F0A1FBD0E7012000E700BF800100205F
:1015C00004030020789E0208AB1C0020909E0208B5
:1015D0007016002048060020A89E0208D09E02082F
:1015E0004CF8020888B602087C160020F09E02081B
:1015F00088010020089F0208309F0208AA1C0020D2
:1016000038070020400700206C160020F805002055
:101610005C9F020800C102087C9F0208949F020898
:10162000BC9F02082DE9F04188B005460C461E46D5
:10163000BDF8387004F000FF02460B463F49C1E98F
:1016400000233F4822F000FB3E4BD3F8008022F0FD
:1016500005FB3D4B03EBC803C3E90001EEB1E4B960
:101660003A4B1B780BB9002405E03946384821F085
:1016700042FBF8E70134A74208DD344A1278002A19
:10168000F8D0315D334821F036FBF3E72F4B1B7860
:101690003BB1314821F02FFB03E02C4B1B78002B92
:1016A0003BD1284623F065FA1E226946FFF7CEF8A3
:1016B000244A136801331360092B1FDD13460022EF
:1016C0001A60224B1B7863BB0A211F48FFF7DEFD1F
:1016D000224A1368013313601C4B1B7853BB132140
:1016E000284610F0A9F81D4B1B68032B06D91B4B8D
:1016F00000221A601A4A136801331360642021F033
:101700002EF904F099FE0E4BC3E900012846FFF7BD
:101710004FFA002008B0BDE8F081124821F0EBFA42
:10172000BFE70E4B1A68104B53F822100F4821F0F8
:10173000E2FAC9E70E4821F0DEFAD0E738070020C8
:1017400040070020741600209806002004030020A3
:10175000E89F0208FC9F020888B602087C16002059
:101760008001002004A002088801002010A00208C7
:1017700038A0020808B54FF480320F213148FFF736
:1017800029FC314B186000283CD03049304B4B606D
:101790004FF400438B6021F0D8F84FF480320E21D3
:1017A0002848FFF717FC2B4B1860002832D02A4935
:1017B000274B4B604FF480438B6021F0C6F84FF409
:1017C00080320D211F48FFF705FC244B186048B3F9
:1017D00023491F4B4B604FF400538B6021F0B5F849
:1017E0004FF480320C211748FFF7F4FB1D4B1860B3
:1017F00000B31D49164B4B604FF480538B6021F0B2
:10180000A4F808BD194B1B78002BFAD0184821F01A
:1018100072FAF6E7154B1B78002BF2D0154821F031
:101820006AFAEEE7114B1B78002BEAD0124821F040
:1018300062FAE6E70D4B1B78002BE2D00E4821F050
:101840005AFADEE764A00208681600205C16002041
:10185000FD070008581600204C16002048160020EE
:101860003C160020381600202C160020040300200F
:101870006CA002088CA00208ACA0020808B54FF4C6
:10188000FA6021F06CF81AF077F8FFF773FF002088
:101890000AF07CFB28B9094B1B785BB9FFF72AF8E3
:1018A00008BD0146054B1B78002BF9D0044821F0F8
:1018B00022FAF5E7034821F01EFAEFE704030020BF
:1018C000CCA00208ECA0020800293BD038B50D4698
:1018D0000468204621F0D4F80146C20004EBC0039E
:1018E0005B8813F0010F0FD000EB530334F8330083
:1018F0001B1A994217D1A3185A8822F001025A8064
:10190000204621F0D9F838BD0F4CAF2322460F49AD
:101910000F4821F005FA29460E4821F001FAAF21BF
:10192000204621F0F6F9084CB72322460A49084818
:1019300021F0F6F92946094821F0F2F9B7212046AD
:1019400021F0E7F9704700BF54A1020880A1020806
:101950005895020894A10208CCA10208F4A102083B
:101960002DE9F843154606684B420B4001F1FF395B
:1019700019EA010904D0032B4BD84C46994603E0E1
:101980000C46042940D90423621E224245D1002D71
:1019900067D0B268B2EBD50F66D96119C91A0B319D
:1019A000C908304621F0B9F8074600285FD0014643
:1019B000304620F0E4FF00EB0908A04408F1FF38AE
:1019C000B8FBF4F804FB08F8A8EB090808EB0504D9
:1019D000073424F007044146304621F051F805460B
:1019E000A41BE410874228D3EF0006EBC5035B88F5
:1019F00005EB53039C422AD33E44738843F0010312
:101A000073804046BDE8F883114621F0C1F8804656
:101A1000F7E74C4699460423B6E7164C4FF4A273F9
:101A200022461549154821F07BF9154821F078F92F
:101A30004FF4A271204621F06CF902463946304637
:101A400020F0E7FF3946304621F02AF8CCE722465D
:101A50002946304620F0DDFF2146304621F020F8AF
:101A6000CAE74FF00008CCE74FF00008C9E74FF095
:101A70000008C6E754A1020830A2020858950208DF
:101A80004CA2020870B5B2F5802F1FD20346042A7B
:101A90002CD9043AC81D20F007000A4422F007029E
:101AA000121AD508172A31D9186085600023C3603F
:101AB000B5FA85F1C1F1200EC1F124018900CE1DD6
:101AC000F1084B1CAB4231D8002345E0344C40F2C6
:101AD000EB1322463349344821F022F9334821F0F0
:101AE0001FF940F2EB11204621F013F92C4C4FF472
:101AF000F97322462E492C4821F012F92D4821F085
:101B00000FF94FF4F971204621F003F9244C40F20B
:101B1000FB1322462849244821F002F9254821F0E8
:101B2000FFF840F2FB11204621F0F3F81C4C4FF473
:101B30000373224621491C4821F0F2F81D4821F088
:101B4000EFF84FF40371204621F0E3F803F1040CA1
:101B5000002440F82C4001337345F7DB4C00A4B25D
:101B600044804FF0000CA0F800C044F00104448011
:101B70006B1A4FEA430E26F00704A51C20F805E077
:101B8000015322F00704951C20F805C002440353BA
:101B9000538843F00103538020F082FF70BD00BFE3
:101BA00054A102086CA202085895020884A20208F7
:101BB0009CA20208C0A20208DCA2020808A3020834
:101BC000F8B540B1064603784578847804EB830481
:101BD0000444002711E00B4CC62322460A490B4857
:101BE00021F09EF8C621204621F093F801342046CA
:101BF000FEF722FC013004440137AF42F6D3A01BAC
:101C0000F8BD00BF34A302086CA30208589502086F
:101C10002DE9F04F91B005920393134602F00402B0
:101C20000092C3F3C20210F00303019340F07082EC
:101C300080468A460132041D002850D0B8F1000FBA
:101C400005D0A4EB08030433534500F26482039BE0
:101C50005D1E019B04930693029300264FF0FF3B09
:101C60000427B946B8F1000F01D0039B2360531E2F
:101C70000793002A40F36181059B13F0020229D0EB
:101C80000120A4EB08018B081AB1B1F5007F80F0A8
:101C90006881029A0F2A00F27481B8F1000F00F0F7
:101CA0008481DBB2029901F140026A4402F8103CDF
:101CB00002F820BC002800F0748163F07F0301F17A
:101CC00040026A4402F8103C049B01330493029BD7
:101CD0000133029304340022CC4640463DE001F03B
:101CE000070A5444CAF1080AA8E7002634E000268F
:101CF00032E0002630E00827BC462DE025292BD114
:101D00000BF1010B01260427BC4625E04729EED83C
:101D10002A2914D32A39C9B24FF0010E0EFA01F163
:101D20004FF6DA7E11EA0E0F16D111F0625F40F025
:101D3000C28011F0010F40F08D8000260CE02529B3
:101D400003D10BF1FF3B002606E001D9002603E09A
:101D5000202901D02329CCD11D466B1C697800298C
:101D600000F04E81002EC9D07A29BED84C29CDD39F
:101D70004C392E2962D80FF2080E5EF821F000BF10
:101D8000591D00083D1E00083D1E00083D1E0008AC
:101D90003D1E00083D1E00083D1E00083D1E0008B7
:101DA0003D1E00083D1E00083D1E00083D1E0008A7
:101DB0004D1E00083D1E00083D1E00083D1E000887
:101DC0003D1E00083D1E00083D1E00083D1E000887
:101DD0003D1E0008B71E00083D1E00084D1E0008ED
:101DE0004D1E0008B71E0008B71E0008B71E0008E9
:101DF000591D00084D1E0008F71C00083D1E000874
:101E0000591D00083D1E0008131F00084D1E000844
:101E1000131F00083D1E00083D1E00081B1F000880
:101E2000471E00084D1E00083D1E00083D1E00080C
:101E30004D1E00083D1E0008411E000800268BE7CD
:101E40000427BC4688E70427BC4685E729786C2927
:101E500025D000263C44013CB4FBF7F407FB04F416
:101E6000254620B1211A6144514500F25781002ACC
:101E700058D1BCF1040F00F0A980BCF1080F40F06C
:101E8000AD801A99073121F0070101F108051A9573
:101E9000D1E9008908B1C4E9008908345CE713F886
:101EA000021C6C2903D000260427BC46D2E700267A
:101EB0000827BC46CEE729784C291AD01A99073151
:101EC00021F0070101F108061A96D1E900670734ED
:101ED00024F0070440B1211A0831514513D829785C
:101EE0004C2913D0C4E90067083400260827BC46F3
:101EF00032E71A99073121F0070101F108061A9615
:101F0000D1E90067E3E76FF01B00FEE0C4E900677A
:101F1000EAE700260427BC469CE732460026042751
:101F2000BC4697E72C46E14680461A9A111D1A9145
:101F300012680392079A1D4694E67D4B039A9A42D3
:101F400004D37C4B9A420AD3002300E00023002BE9
:101F50007FF492AE059B03F00202002091E601237C
:101F6000F5E7754C40F27B2322467449744820F013
:101F7000D7FE744820F0D4FE40F27B21204620F0AA
:101F8000C8FE6D4C4FF4207322466C496C4820F01B
:101F9000C7FE6D4820F0C4FE4FF42071204620F0AB
:101FA000B8FE069B0133069391E610B10AF1010ACF
:101FB0008DE6009B13B10AF1020A88E60398FEF74A
:101FC0003BFA00EB0A0303F1020A80E61A990D1DA1
:101FD0001A95096800B121600434BDE6E146564C0B
:101FE00040F2C52322465549554820F099FE4946FE
:101FF000564820F095FE40F2C521204620F089FE8B
:102000008046231AB3F5806F13D210B3002202600A
:102010009B080370009B03B3069BC370049B88F866
:1020200002309BBB019DDDF80890DDF810B0039FE6
:102030004DE0414C40F2D12322464049404820F037
:102040006FFE434820F06CFE40F2D121204620F084
:1020500060FE5344A3F1080057E0069B4370DDE7A0
:1020600001339842DED903F140026A4412F8101C91
:1020700012F9102C002AF3DA01F07F01A4EB080218
:10208000013252454DD804F8011BE9E7019B029843
:10209000E7E7009B43B305F140036B4413F8203C92
:1020A00004F8013B019EA4EB08033344013353457C
:1020B0003AD805F140036B4413F8103C04F8013B97
:1020C00032463946204626F08FFE34440135A94574
:1020D00019D9BBF1000FDCD005F140036B4413F9B3
:1020E000103C002BD5DAF1E705F140036B4413F8FF
:1020F000103C58F82370002248F823203846FEF799
:102100009BF9461CCFE7A4EB080011B0BDE8F08FA7
:102110006FF00D00F9E76FF01B00F6E76FF01B00A2
:10212000F3E76FF01B00F0E76FF01B00EDE700BF77
:10213000388E0208080F030834A302082897020803
:102140005895020884A30208A8A30208C4A30208A1
:10215000DCA302082DE9F04F97B000AF39617A6136
:102160007862B0B19B46D7F88030C3F3C003FB61FF
:102170003B69DBB17B6A93F80280C7F80C80B8F149
:10218000000F18D0D7F8803013F0010F1FD10023B3
:1021900012E0AA4C4FF465732246A949A94820F0E1
:1021A000BFFD4FF46571204620F0B3FD786AFFF75C
:1021B00007FD3861DEE700237A6AD2783A6242B1DD
:1021C000D7F8802012F0020F22D1002202E0012372
:1021D000F2E7002202B9EBB1796A0D78AA00BA6081
:1021E0000A464968B96102EB85057A69FAB1002BA4
:1021F00040F00A81FB68002B00F01581D7F8803091
:1022000013F0040F40F01381002082468046FFE067
:102210000122DFE77B691BB15A463969786A984722
:10222000D7F8109048465C37BD46BDE8F08FD7F828
:102230001090E3B9FB681D444FF0000B22E081448D
:102240000135013444451CD22A7800235AF8222053
:102250001946786920F0DCFC002EF0D0D7F88830E1
:102260009B45ECD226F81B000BF1010BE7E700249D
:10227000A346D7F80C803E61D7F824A0D7F8846035
:10228000E0E73E69D7F8803003F00503FB604FF0CC
:10229000000AC7F810B0B346A1E00025FB697BB97E
:1022A000002D7ED0D7F8803013F0010F7ED1FB686F
:1022B000002B74D10223A9EB03098DE00125EDE782
:1022C0004146B86920F0EAFC0028E9D06D460123B8
:1022D00087F82C30032387F82D308AB0694611F136
:1022E00010023CD0162642B13346042E01DD56487A
:1022F0004861082B01DD554B8B61012387F828309D
:10230000032387F829306ABB152E45DD162362B1F9
:10231000052087F82C00002087F82D0087F82E0074
:10232000012087F82F00F86A08616FF3000B6FF344
:10233000410B6FF3820B6FF3C50B022161F3881B16
:10234000C3F30A0363F3532B6FF31F5B0023594658
:102350003F4801F009FAAD46A9F102093CE06FF0EF
:102360000046C0E733460C2E01DDB869C861102B6A
:1023700001DDC1F8208001F12403002009E000F113
:10238000300C07F1280EF4441CF830CC03F801CBD4
:1023900001300128F3D9B7E76FF01B03B7E701233A
:1023A00089E7D7F8803013F0020F15D000233246AA
:1023B0001946786920F02CFCD7F8843053B13B697A
:1023C000D7F88820934205D2D7F8842022F813004A
:1023D00001333B61013881440AF1010A25463B6A19
:1023E0009A45BFF41FAF2C4614F8028B6B787A6ABB
:1023F00052F82360174B9E42FFF44FAF164B9E429C
:10240000FFF45CAF002549E707F144004FF0000AF4
:1024100018B1FA68294626F0E7FCFB681D4400263F
:10242000C7F804B035E0002082468046F0E7C24697
:1024300007F134004FF00008EAE700BF34A30208B8
:10244000F4A302085895020810A40208F8A4020890
:1024500094920208388E0208080F03080025FB69D1
:102460006BBB002D61D0D7F8803013F0010F3AD04C
:10247000B8F10F0F2AD808F1010308F1300207F173
:10248000280102EB010808F8149C5FFA83F8013672
:1024900025463B6A9E4280F08E802C4614F802BB93
:1024A00095F801907B6A53F82930874A9342D5D337
:1024B000864A934201D30025D1E70125CFE759464B
:1024C000B86920F0EBFB0028CBD0E0E7804C40F26D
:1024D0003E4322467F49804820F022FC40F23E41A4
:1024E000204620F016FCD7F8803013F0040FCED031
:1024F000BAF10F0F0CD80AF101030AF1300207F10B
:10250000280102EB010A0AF8249C5FFA83FABEE76D
:102510006F4C40F24143224670496F4820F000FC66
:1025200040F24141204620F0F4FBD7F8803013F010
:10253000020F1CD0B8F10F0F0CD808F1010308F1FD
:10254000300207F1280102EB010808F8149C5FFA39
:1025500083F89CE75E4C4FF4896322465D495E48F0
:1025600020F0DEFB4FF48961204620F0D2FBBAF167
:102570000F0F13D80AF101030AF1300207F1280105
:102580000A4402F824BC0AF1020A5FFA8AFA07F147
:10259000580252FA83F303F8249C78E74C4C40F23B
:1025A0004B4322464D494C4820F0BAFB40F24B4188
:1025B000204620F0AEFBD7F804B07A6A137887F88B
:1025C00054305378434487F85530D7F8803013F0AF
:1025D000020F0DD1CAF3470387F85730D7F8803080
:1025E00013F0010F06D113F0040F35D1002302E0E0
:1025F0000023F1E7002387F856307C6A20683863AF
:10260000786D20605A46B96820467E69B047B0F1BF
:102610000009FFF607AE386B20605A46514607F1B5
:102620003400B047002849DB09EB0004FA68BB68B6
:102630001A443B6A02EB43015A463B69591A284641
:10264000B047B0F10009FFF6EDAD4C440025C7F8E6
:102650002080D7F8849015E05346CCE74FF0000A6D
:102660005A46012107F12C00B047002828DB04441A
:10267000534642465946304620F0CAFA002821DB2C
:10268000044401353B6A9D4211D205F1300307F144
:102690002802134413F8143C87F82C307A6A52F855
:1026A0002380B9F1000FD9D039F815A0D8E75A46E0
:1026B000002108467B699847A146B3E58146B1E50C
:1026C0008146AFE58146ADE5388E0208080F030864
:1026D00034A30208B8A4020858950208D8A4020836
:1026E000014B1860704700BF9801002080B5054677
:1026F0000E46174698461DF0F3FB034626F092FB64
:102700000446DFF8189049F8003042463946304612
:10271000A84754F8090003F0CBFC00BF08000000F4
:1027200038B504460D462022002126F06BFBEB68ED
:10273000E361AB68A3612B6823626B68636200226C
:10274000A2622A6922612BB1591E0B4202D142F0CA
:102750000102226104F12C000122002126F092F8EE
:1027600000B938BD054C2E2322460549054820F006
:10277000D7FA2E21204620F0CCFA00BF28A5020867
:1027800058A50208589502082DE9F04F89B09946DE
:10279000002307930593436A8B42C0F0F38083467E
:1027A0008A46904600260127039662E0784C8823EB
:1027B00022467849784820F0B3FA2946774820F035
:1027C000AFFA8821204620F0A4FA3146584620F07E
:1027D000DBFB0023059363E0DBF82030DBF800200F
:1027E00003EB8201039113F822106FF3000103F849
:1027F0002210C9B26FF3410103F82210DBF8003058
:102800005344DBF8102012F0010F05D1DBF824103F
:102810008B4205D35B1A03E0DBF8241001390B402F
:10282000CBF80030DBF80C10994201D0002709E00A
:1028300042F00802CBF81020002703E0584620F0B1
:10284000DBFA2746019C28461BF0BAFF002800F05F
:10285000888084F31188BFF36F8F079931B1DBF85B
:1028600018300BB15846984700230793002F00F00B
:102870008B800BF114054FF01003EFF3118483F3F9
:102880001288BFF36F8F029428461BF089FF00283F
:102890008CD028461BF0A4FF0194059A002A94D1FD
:1028A00006A9584620F04AFA04460699514593D2A3
:1028B0000028C3D159EA08030BD1002FC2D0DBF89E
:1028C000006005AB07AA0699584620F0C8FA0746EB
:1028D000B8E725F0C2FE0028EFD128461BF070FFB4
:1028E000F8B1029B83F31188BFF36F8F0BF12C00BB
:1028F00042464B461DF084FD07464FF01003EFF3B0
:10290000118483F31288BFF36F8F28461BF048FFB2
:10291000C0B128461BF064FF0194B7FA87F77F091E
:1029200090E71B4C40F2311322461D491A4820F013
:10293000F7F929461B4820F0F3F940F231112046FF
:1029400020F0E7F9124C882322461249124820F061
:10295000E7F92946114820F0E3F98821204620F0C4
:10296000D8F90B4C40F2311322460D490A4820F0A9
:10297000D7F929460B4820F0D3F940F2311120460F
:1029800020F0C7F900230393039809B0BDE8F08F46
:1029900064A502089CA5020858950208B4A502087F
:1029A000CCA50208E4A502082DE9F04104460D4635
:1029B000C36908469847804604F114064FF0100397
:1029C000EFF3118783F31288BFF36F8F30461BF04C
:1029D000E7FE90B130461BF003FF2B7843F0010374
:1029E0002B70636803EB0800236913F0010F13D108
:1029F000636A984213D3C01A11E0184C8823224608
:102A00001749184820F08CF93146174820F088F90A
:102A10008821204620F07DF9636A013B1840606000
:102A2000204620F0C3F930461BF0CAFE28B187F3D8
:102A30001188BFF36F8FBDE8F081084C40F231136D
:102A400022460A49074820F06BF93146084820F031
:102A500067F940F23111204620F05BF964A50208C5
:102A60009CA5020858950208B4A50208CCA5020846
:102A7000E4A502082DE9F04182B0044642E04B4C47
:102A8000882322464A494B4820F04AF929464A48B9
:102A900020F046F98821204620F03BF953F8220027
:102AA00080085ED154E0626A013A1340A360204678
:102AB00020F08FF91BE013F8221041F0020103F817
:102AC0002210A768E369404698473844236913F009
:102AD000010F04D1636A984204D3C01A02E0636A0A
:102AE000013B1840A060002701E00027B8462846B7
:102AF0001BF066FE002843D086F31188BFF36F8F6A
:102B0000002F4ED004F114054FF01003EFF311869F
:102B100083F31288BFF36F8F28461BF041FE0746F0
:102B20000028ACD028461BF05BFE01A9204620F00F
:102B300019F9236AA26803EB820801990029D4D00D
:102B400013F8221011F0030117D00229A6D000209B
:102B500013F8221011F0010FADD110B9E36940460E
:102B60009847A36801460344226912F0010F9AD1E5
:102B7000626A93429AD39B1A98E70027B846B6E751
:102B80000A4C40F2311322460C490A4820F0C8F89A
:102B900029460B4820F0C4F840F23111204620F0BD
:102BA000B8F8404602B0BDE8F08100BF64A5020855
:102BB0009CA5020858950208B4A50208CCA50208F5
:102BC000E4A502082DE9F04104460D46C369084614
:102BD0009847064604F114074FF01003EFF31188ED
:102BE00083F31288BFF36F8F38461BF0D9FDA8B16D
:102BF00038461BF0F5FD2B786FF300032B7023692B
:102C000013F0020F19D0236AE26803EB8203AB4290
:102C100013D02B6866F39F032B601AE0244C8823A3
:102C200022462449244820F07BF83946234820F0E6
:102C300077F88821204620F06CF82B786FF3410359
:102C40002B70E268A3689A4211D03146204620F0EA
:102C5000C0F838461BF0B4FDC0B188F31188BFF34B
:102C60006F8F04F12C001DF083FBBDE8F08133442D
:102C7000226912F0010F04D1626A934204D39B1AB5
:102C800002E0626A013A1340A360DEE7084C40F2BA
:102C9000311322460A49084820F042F839460948CB
:102CA00020F03EF840F23111204620F032F800BF0B
:102CB00064A502089CA5020858950208B4A502085C
:102CC000CCA50208E4A50208064B074A1A60074A89
:102CD000D2F8803023F0070343F00403C2F88030B9
:102CE00000207047F002002000093D000004005859
:102CF00008B505460C46084E3323324607490848B6
:102D000020F00EF82A462146064820F009F8332123
:102D100030461FF0FEFF00BF00A6020828970208F9
:102D20005895020844A60208034A536823F0020398
:102D300053600020704700BF002004E010B14368DA
:102D40005879704710B5064C40F2331322460549B6
:102D500005481FF0E5FF40F2331120461FF0D9FF70
:102D600064A60208A8A602085895020810B520B16A
:102D70000268D26802B1904710BD054C8B232246F1
:102D8000044905481FF0CCFF8B2120461FF0C1FFEE
:102D900064A60208A8A602085895020810B520B13A
:102DA0000268126962B1904710BD064C9E2322460C
:102DB000054906481FF0B4FF9E2120461FF0A9FFD9
:102DC0000020F1E764A60208A8A6020858950208A8
:102DD00010B518B102689268904710BD054CD02319
:102DE0002246054905481FF09BFFD02120461FF0D1
:102DF00090FF00BF64A60208A8A602085895020822
:102E000010B520B10268526802B1904710BD054C60
:102E1000C2232246044905481FF082FFC2212046F2
:102E20001FF077FF64A60208A8A6020858950208BA
:102E300010B520B171B102681268904710BD0B4CFB
:102E4000B22322460A490B481FF06AFFB2212046EE
:102E50001FF05FFF054CB3232246074905481FF0CA
:102E60005FFFB32120461FF054FF00BF64A6020895
:102E7000A8A6020858950208C0A6020838B505465B
:102E8000144C00E01034144B9C4212D8124B9C425C
:102E90001FD22046FFF752FF0028F3D029462046D4
:102EA00020F0C2F80028EDD029462046FFF7C0FFE9
:102EB000E8E70A4C4FF4EC732246094909481FF031
:102EC0002FFF09481FF02CFF4FF4EC7120461FF034
:102ED00020FF38BDEC920208FC920208D4A602083A
:102EE0000CA702085895020830A7020810B530B1A7
:102EF0000346006884690CB11846A04710BD064C13
:102F00004FF4B1732246054905481FF009FF4FF4FD
:102F1000B17120461FF0FDFE64A60208A8A60208B3
:102F20005895020870B506460D460F4C05E02A4636
:102F300031462046FFF7DAFF10340C4B9C4203D891
:102F40000A4B9C42F3D370BD094C40F266332246D3
:102F5000084909481FF0E4FE08481FF0E1FE40F26E
:102F6000663120461FF0D5FEEC920208FC92020862
:102F7000D4A602080CA702085895020830A7020838
:102F800008B525F07EFD0022431819D213440D4ADE
:102F9000A2FB03CE2EF0030C0CEB9E0CA3EB0C0358
:102FA000C01A61F100014FF0CC3300FB03F302FBC8
:102FB0000133A0FB02021344400840EAC37008BD7D
:102FC0000122E3E7CDCCCCCC2DE9F0410746054604
:102FD000EDB195FAA5F6B6FA86F60E4C04EB06149A
:102FE0000123B3406FEA030825EA0305237B002B86
:102FF000EED02046FFF7D2FE0028E9D107EA080705
:10300000636804221968204600F080FBE0E7384638
:10301000BDE8F081EC9202082DE9F041314B324AD3
:103020009B1A8F2B12D880460F46304BBFF35B8F15
:1030300053E8005F6A1C43E800210029F8D1BFF380
:103040005B8F002D4AD1284C002614E0284C4FF409
:1030500096732246274928481FF062FE4FF4967166
:1030600020461FF056FE636804221968204600F0CF
:103070004DFB013610341B4B9C4211D8194B9C421E
:103080001ED2237B002BF5D02046FFF76FFE204693
:10309000FFF784FE0028E6D00123B3401D43E8E794
:1030A000134C40F239132246144913481FF038FEDE
:1030B00013481FF035FE40F2391120461FF029FE5B
:1030C000B8F1000F0BD055B12846FFF77DFF05463C
:1030D000002FF8D00A201FF0A9FFF4E700252846AA
:1030E000BDE8F081FC920208EC9202089C160020D8
:1030F000D4A6020850A70208589502080CA7020897
:1031000030A7020808B5064B186018B1054B1B68BC
:10311000092B00DC08BD04481DF02AF9FAE700BFBE
:1031200090160020981600202404002008B50248BC
:103130001DF01EF908BD00BF2404002030B589B081
:1031400000220F490F4825F00CFD0F4D00220023EF
:10315000CDE90623002404940E23039302940194E2
:1031600000940A4B4FF40062094928461BF062FCA8
:10317000084928461BF0F4FA204609B030BD00BFCC
:103180002D310008080C002048070020C935000830
:10319000C01C002080A70208014B53F82000704794
:1031A000B8A7020848B108B5054A1060054B196078
:1031B000084600F071FE002008BD6FF01500704752
:1031C0009C0100208C16002008B5054B1B781BB114
:1031D000034B01221A7008BD02481DF0C9F8F7E739
:1031E000AD1C0020240400200D4BBFF35B8F53E87F
:1031F000001F013143E80012002AF8D1BFF35B8FB2
:1032000000B97047074BBFF35B8F53E8001F0139CC
:1032100043E80012002AF8D1BFF35B8FF1E700BF4B
:103220009416002098160020064B00200146BFF39C
:103230005B8F53E8000F43E80012002AF9D1BFF377
:103240005B8F70479416002038B5FFF7EDFF0546F9
:10325000114C00E01034114B9C420CD80F4B9C4297
:1032600019D22046FFF76AFD0028F3D029462046F0
:10327000FFF7C6FDEEE70A4C4FF4F2732246094908
:1032800009481FF04DFD09481FF04AFD4FF4F27147
:1032900020461FF03EFD38BDEC920208FC92020869
:1032A000D4A602080CA702085895020830A7020805
:1032B000034B18680028D4BF00200120704700BFCE
:1032C0009416002010B5044C04492046FFF728FA54
:1032D000034B1C6010BD00BF1C030020A4A7020804
:1032E0008816002008B50023064A1370064A1360AA
:1032F000064A13604FF47A710548FFF753FFFFF752
:10330000E1FF08BDAE1C0020941600209816002096
:10331000812F000808B5014601481FF097FE08BD3F
:103320001C03002008B50248FFF7A4FB08BD00BF3E
:103330001C03002008B50146024B18681FF08CFEE4
:1033400008BD00BF8816002008B502481FF088FE9F
:1033500008BD00BF1C03002010B582B0002200236E
:10336000CDE900232C4B187808B902B010BD68468F
:103370001FF08EFE044688B1284BBFF35B8F53E8E5
:10338000001F013943E80012002AF8D1BFF35B8F18
:103390002046FFF773FD2046FFF7CCFFFFF788FFBD
:1033A00058B91F4A1368516813F57A7341F1000147
:1033B00013605160FFF7C8FFD7E725F062FB0022DA
:1033C000431827D21344174AA2FB034C2CF00304E2
:1033D00004EB9C041B1BC01A61F100014FF0CC33BD
:1033E00000FB03F302FB0133A0FB0202134440087D
:1033F00040EAC3705B080A490A684968801A63EBAF
:10340000010340F2E932904273F10003C9D3FFF7A0
:103410001BFFC6E70122D5E7AD1C0020981600204F
:10342000000C0020CDCCCCCC194B1B7803B17047DD
:1034300010B500210120FFF7EFFD164C00E010341D
:10344000154B9C420BD8144B9C4218D22046FFF7D8
:1034500075FC0028F3D02046FFF7BAFCEFE70F4CCD
:1034600040F29B1322460E490E481FF059FC0E48AD
:103470001FF056FC40F29B1120461FF04AFCFFF75C
:103480006BFF0028FBD1024B01221A7010BD00BF58
:10349000AE1C0020EC920208FC920208D4A602089E
:1034A0000CA702085895020830A7020830B583B06F
:1034B000314BBFF35B8F53E8002F511C43E80010E2
:1034C0000028F8D1BFF35B8F2C4B1B786BB92C4BCA
:1034D0001B6823B3002A44D0092A20D1294825F0AB
:1034E0004CFB29481CF044FF19E04FF01003EFF3A8
:1034F000118483F31288BFF36F8F24481BF050F9B7
:1035000078B1224D28461BF06BF9FFF725FF2846BE
:103510001BF056F9A0B184F31188BFF36F8F03B08D
:1035200030BD1B4C882322461A491B481FF0F8FB6C
:1035300016491A481FF0F4FB882120461FF0E9FBCA
:10354000134C40F231132246154913481FF0E8FB93
:10355000294614481FF0E4FB40F2311120461FF0C9
:10356000D8FB00220023CDE9002342F21072002391
:1035700004481EF0D1F9D2E798160020AE1C0020B6
:1035800090160020080C002024040020841600203F
:1035900064A502089CA5020858950208B4A5020873
:1035A000CCA50208E4A5020810B50446044B1B682C
:1035B0009847A060214603481FF06EFD10BD00BF74
:1035C0009C0100201C0300202DE9F041234B244ADC
:1035D0009B1A1B0910D000210846FFF71DFD8046ED
:1035E000B8B14FF4FA76002725F01CFC1D4B185893
:1035F000FFF788FD002525E01B4C40F27233224680
:103600001A491B481FF08CFB40F2723120461FF014
:1036100080FB4FF0FF364FF0FF37E5E74046FFF7FE
:10362000D3FC804688B94FF0FF364FF0FF370CE0EF
:1036300000210846FFF776FC32463B460D481CF059
:10364000DFFE2546B8F1000FE8D1FFF785FE0446FE
:103650000028F6D1002DEBD12C46EDE7FC920208B4
:10366000EC92020808000000D4A6020888A702080D
:10367000589502082404002010B14368197170475E
:1036800010B5054CDF232246044905481FF048FBCE
:10369000DF2120461FF03DFB64A60208A8A6020811
:1036A0005895020828B142681160436801225A7196
:1036B000704710B5064C4FF48C73224605490648F6
:1036C0001FF02EFB4FF48C7120461FF022FB00BF31
:1036D00064A60208A8A60208589502080248034BEF
:1036E000C01AC008704700BFEC920208149202088A
:1036F00010B50C46FFF7F2FFA04203D9024B53F876
:10370000340010BD0020FCE71492020870B5044696
:103710000D461646074BC31A1B110133D9B2FFF7EA
:10372000ABFF63689E7129462046FFF7BBFFFFF79A
:103730004BFD70BDEC92020800B589B0059206936E
:103740000023079362B1074A0C9B02930B9B0193E2
:103750000A9B009305ABFEF7FDFC09B05DF804FB86
:103760000022F1E7A93002082DE9F04F8BB004AF39
:1037700005461E468846C1F34A24002C00F09C8072
:1037800091460022FA603A617A6104230293FB18A1
:1037900001930A23009307F10C0321464846FEF7E4
:1037A000D9FCB0F5006F5DD3D9F804106D46012344
:1037B0003B7303237B738AB004AC14F110021CD05A
:1037C000162042B10346042801DD454E6661082BF0
:1037D00001DD444BA36101233B7003237B70CAB11D
:1037E00003460C2800DDE161102B02DD40F2FF737F
:1037F000236204F1240300210AE06FF00040E0E7B7
:1038000001F118063E4416F8186C03F8016B0131FB
:103810000129F5D9152822DD162342B10521397376
:1038200000217973B9730121F973F86820610021CF
:103830006FF300016FF341016FF382016FF3C50174
:10384000022060F38811C3F30A0363F353210023BA
:10385000C1F3130124481FF054FCAD463BE06FF068
:103860001B03DAE760F35328C0F30A0A0AEB185087
:10387000173020F007008008FFF74CFD834620B387
:1038800004230293FB1801930A230093534600F18B
:10389000100221464846FFF74FFF002815DA134C67
:1038A00040F21F132246124912481FF039FA40F223
:1038B0001F1120461FF02DFA04EB1154173424F089
:1038C0000704A008FFF726FD8346334642462946F3
:1038D00058461FF0FFFB1C37BD46BDE8F08F00BF08
:1038E0002CA80208C0A80208A492020870A8020826
:1038F000A8A80208589502082DE9F04F85B0804627
:103900000D4617461E46DDF838A0DDF84090B9F1A7
:10391000000F47D0119B039300934B460F9A102141
:103920000020FEF775F9031E2FDB9B4603EB0A0010
:10393000173020F0070000246FF300046FF34104F8
:103940006FF3820468F3C50467F3881463F35324A8
:103950006AF31F548008FFF7DDFC074660B11030A2
:10396000B9F1000F08D0119B00934B460F9A5946AE
:10397000FEF74EF9002817DB334622462946384623
:103980001FF0A8FB05B0BDE8F08F0E4C40F23F13CE
:1039900022460D490D481FF0C3F940F23F11204661
:1039A0001FF0B7F90023C0E7064C40F25913224636
:1039B000054906481FF0B4F940F2591120461FF09E
:1039C000A8F900BF70A80208B4A802085895020818
:1039D0000EB400B582B0014603AB53F8042B01933B
:1039E000034803F099F802B05DF804EB03B07047A8
:1039F000BD3C000830B585B011F0440F05D01A4B1E
:103A00001C6834B9002005B030BD1849FFF7E0FF4D
:103A1000F9E7174B1968B2FBF1F1B1FBF4FC154A59
:103A2000A2FB0C32D20A4FF4616E0EFB12CE124B87
:103A3000A3FB0E535B0904FB1C114FF47A7C0CFBB7
:103A400001F1B1FBF4F504FB15110CFB01F1B1FB25
:103A5000F4F102910195C3EB0311AEEB81010091EA
:103A60000649FFF7B5FFCEE7A4160020E0A802083C
:103A7000A0160020C5B3A29189888888ECA8020806
:103A800061B108B52AB1064A52F8232012B9054A95
:103A900000E0044A0449FFF79BFF08BD704700BFE0
:103AA0000CAA020808A9020800C102082DE9F04189
:103AB00005461746069EDDF81C8099B900242EB1F4
:103AC000324612492846FFF783FF0444B8F1000F3D
:103AD00017D087B10123099A934013F01E0F13D119
:103AE0000B4909E00B4B099A53F822200A49FFF7CA
:103AF0006FFF0446E3E7064942462846FFF768FFA2
:103B000004442046BDE8F0810449F5E724A90208F1
:103B100014A9020820AA02081CA9020810A9020878
:103B20002DE9F04F87B0049205939DF84C60042E68
:103B300030D805460C4601F0020B01F0010AC1F332
:103B4000C00801F480791FF0ADFA024678B31C4931
:103B50002846FFF73DFF0746BBF1000F29D132464B
:103B6000514628461FF0DEFAB9F1000F01D00023BC
:103B700011930396129B0293119B0193109B009348
:103B80000023049A41462846FFF790FF384407B0C7
:103B9000BDE8F08F0B4C40F2BF1322460A490B4898
:103BA0001FF0BEF840F2BF1120461FF0B2F8002708
:103BB000D2E7059A21462846FFF71CFF0744CEE7C7
:103BC0006CA9020828A9020860A9020858950208F1
:103BD00011F0100F0BD108B511F0200F03D00449DC
:103BE000FFF7F6FE08BD0349FFF7F2FEFAE770475C
:103BF00088B6020870A902082DE9F04105460F4673
:103C0000164698460699FFF7E3FF0024444505DA77
:103C100024492846FFF7DCFE0134F7E7002409E0D9
:103C200020492846FFF7D4FE0BE01F492846FFF73E
:103C3000CFFE01340F2C0CDC002C02DD14F0070F3A
:103C4000EED0B442F1D23A5D18492846FFF7C0FEE3
:103C5000EFE717492846FFF7BBFE002409E01149AA
:103C60002846FFF7B5FE0BE012492846FFF7B0FEE5
:103C700001340F2C13DC002C02DD14F0070FEED002
:103C8000B44207D23A5D0C4B9B5C13F0970FEBD11B
:103C90002E22E9E703492846FFF79AFEE8E7BDE848
:103CA000F08100BFEC9E02087CA9020874A90208FA
:103CB00080A9020884A90208F90D030838B5054651
:103CC0000C464B681A68CB689A4214D06368BFF3FD
:103CD0005B8F53E8002F511C43E800100028F8D1F7
:103CE000BFF35B8FA3689D5463681A68E3689A42C8
:103CF00005D8002038BD08461FF047FAE6E7054C16
:103D00007A232246044905481FF00AF87A21204602
:103D10001EF0FFFF28A9020888A90208589502088A
:103D20002DE9F04184B004469DF82C500C9F0E9E66
:103D3000A5B9012B20D020484FF0000837B13B46F1
:103D400022461E491EF07AFF002819DB2EBB6DBBF0
:103D500020461FF01AFA04B0BDE8F08103950A98D6
:103D60000290019300920B4600220F992046FFF724
:103D7000D7FE80461248E1E711484FF00008DDE722
:103D8000104C40F21B2322460F4910481EF0C8FF7A
:103D900040F21B2120461EF0BCFF0F9B00934346C0
:103DA00032460D9920461FF0D5F9D0E72A460F99E3
:103DB00020461FF0C3F9CBE7A5310208196B0008B4
:103DC000BD3C000828A90208B8A9020858950208B5
:103DD0002DE9F04387B006460C469046D1F808908E
:103DE0000F88C7F382170878C0F3C2004B6833B15D
:103DF0001249591A41F3CF0100291ADA002321464A
:103E000051F8105BC5F34A256288C2F30B124819BA
:103E100005B90021CDF81480049203900291019716
:103E20000022009249463046FFF77AFF07B0BDE80E
:103E3000F083FFF75DFC0346E1E700BF1492020840
:103E400070B582B00446056842F20F738B4228BFFA
:103E50000B460E4A052168461EF0E2FA06466368E4
:103E60005B680B220A4928461FF04FF963685B68BC
:103E70003246694628461FF048F963685B681B2292
:103E8000044928461FF041F902B070BD4CF8020801
:103E9000E0A90208C4A90208074B01221A6004E045
:103EA0004008054A13685B001360044B9842F7D83A
:103EB000034B1860704700BFA016002040420F005F
:103EC000A416002070B506460D46002405E0315DBD
:103ED000044883685B6898470134AC42F7D32846AE
:103EE00070BD00BFB08F020810B543681C68094858
:103EF00024F073FB18B123685B685C6010BD064C4E
:103F000099232246054906481EF00AFF99212046BA
:103F10001EF0FFFEB08F020834AA02087CAA020835
:103F200058950208014B036000207047ECAA020874
:103F300010B5064C636843F400236360044B1B68B0
:103F400098474FF40023A36010BD00BF000C005839
:103F5000D816002082B04FF0B043D3F8502142F47D
:103F60008012C3F85021D3F8503103F48013019329
:103F7000019B0A4B1A6A42F400721A62D3F8D420E9
:103F800042F40072C3F8D42040BF20BF044AD36873
:103F900043F40043D36002B0704700BF00080058EC
:103FA0000004005800B583B04FF0B0431A6D42F4DE
:103FB00080121A651B6D03F480130193019B094B5A
:103FC0001A6842F001021A601A6842F480321A60DC
:103FD0002C2019F04DFD2D2019F04AFD03B05DF89D
:103FE00004FB00BF000C0058024A536823F0010391
:103FF00053607047000C0058024B4FF480329A60B7
:10400000704700BF000C0058044B4FF400129A6038
:104010005A6822F400125A60704700BF000C005822
:1040200008B5044A536843F40013536000F02CFAB7
:1040300008BD00BF000C005808B500F001FA024BA3
:1040400001229A6008BD00BF000C0058024A536864
:1040500023F0020353607047000C0058044B4FF4E8
:1040600000329A605A6822F400325A60704700BFEA
:10407000000C005808B5044A536843F400335360F9
:1040800000F036FA08BD00BF000C005808B5144B0C
:10409000DB6813F0020F04D1114B5B6813F4003F8F
:1040A00014D00F4BDB6813F0080F04D10C4B5B6886
:1040B00013F4002F0DD00A4BDB6813F0200F04D14E
:1040C000074B5B6813F4001F06D008BDFFF7D2FF53
:1040D000FBE7FFF72DFFF8E7FFF7A2FFF5E700BFCB
:1040E000000C005808B500F011FA024B02229A6049
:1040F00008BD00BF000C005808B5094BDB6813F081
:10410000080F05D18047064B4FF400229A6008BD86
:10411000044B1860024A536823F400235360F6E707
:10412000000C0058D816002008B500F039FA024BF0
:1041300008229A6008BD00BF000C005808B5144B57
:10414000DB6913F0020F0AD1114BDB6913F0010F89
:104150000DD10F4BDB6913F0080F10D108BD0C4BCC
:104160005B6813F0020FEFD1FFF7BCFFF6E7084BD7
:104170005B6813F0010FECD1FFF75EFFEEE7044B35
:104180005B6813F0080FE9D1FFF7CEFFE6E700BF49
:10419000000C005808B538B9084B1B6803B19847A4
:1041A000074B00221A7008BD054B01221A70034B01
:1041B0001B68002BF7D010469847F4E7DC16002068
:1041C000B11C002010B584B004460B4B18600B489E
:1041D0001FF03EF80120FFF7DDFF094B01221A70A6
:1041E000084B1B6833B10394074A0192074A0292B5
:1041F00001A8984704B010BD001700200417002044
:10420000B01C0020E01600204732020811420008CE
:1042100010B50146034C20461FF035F8204623F028
:1042200099FD10BD0417002010B50C464A68054BD7
:104230001A60054BD861184600F07CF82068FFF73B
:10424000C1FF10BDDC160020E016002000B585B0CF
:104250001B481FF000F810B91A4B1B784BB91848CF
:104260001EF0F9FF10B9174B1B7823BB05B05DF8A2
:1042700004FB03A912481FF01EF8134BDB698BB136
:10428000039A029201228DF8042001A898479DF814
:1042900004200C4B1A700B4B1B783BB1039800F0B9
:1042A00071F9DCE7074B01221A70F4E7039904481F
:1042B0001EF0DDFFD3E7024823F04CFDD6E700BF38
:1042C00004170020B01C0020E01600202DE9F0416A
:1042D00007460C4616461D460020FFF75BFFDFF839
:1042E0004880D8F80000A0F80970C4722246314610
:1042F0000C3024F079FD01240C4B1C700C4B1B6915
:1043000000210846984748F2E80017F07DFFD8F8EA
:1043100000108A78033205F1080024F065FD20467C
:10432000FFF738FFBDE8F08100170020AF1C002028
:10433000E0160020024B0360024B0361704700BF90
:1043400099440008D544000800B583B009E001A9EC
:1043500008481EF0B0FF084B1B69019918691EF050
:1043600092FF04481EF077FF0028F0D003B05DF8FC
:1043700004FB00BF201700200000032008B50C4BF1
:104380000C4A1A600C4A5A600C4A9A600C4A1A622B
:104390000C4A5A620C4ADA600C4A1A610C4A5A6199
:1043A0000C4A9A610C4ADA61FFF7FCFD08BD00BFB8
:1043B00000000320B8000320A80003209800032079
:1043C0009000032088000320800003206400032065
:1043D00060000320540003204800032038B5044641
:1043E0000B4D28461EF034FF0A4B5B68A2681A602A
:1043F000E268DA60084A5A609D60FFF7F5FD2268BE
:10440000064B1A606268064B1A60002038BD00BF78
:104410003000032000000320E40103201C170020CB
:104420001817002008B5054B5A681268012111724F
:104430005B68FFF7E1FD002008BD00BF000003201E
:1044400000B583B007E001A907481EF034FF074B11
:104450001B680198984704481EF0FDFE0028F2D022
:1044600003B05DF804FB00BF300003201C170020E0
:1044700008B5044B5B68DB6802221A72FFF7C4FDC3
:10448000002008BD0000032008B5024B1B689847B8
:1044900008BD00BF1817002038B50446094D28464E
:1044A0001EF0D6FE084BDB68A2681A605D60FFF75D
:1044B000CDFD2268054B1A606268054B1A6000202A
:1044C00038BD00BF2800032000000320141700207F
:1044D0001017002008B5054BDA6812681021117218
:1044E000DB68FFF7BBFD002008BD00BF0000032014
:1044F00008B5044BDA68DA68034B1B681068984704
:1045000008BD00BF000003201417002000B583B0D1
:1045100007E001A907481EF0CEFE074B1B68019873
:10452000984704481EF097FE0028F2D003B05DF8CB
:1045300004FB00BF280003201017002038B50446F4
:104540000C4D28461EF084FE0B481EF081FE0B4BDE
:104550001B690B4A1360A2689A60E268DA601D6109
:1045600022681A6062685A6022695A6162699A61B7
:1045700038BD00BF400003202017002000000320AA
:104580000C17002008B5014603481EF07CFE0348C6
:10459000FFF7B2FD08BD00BF201700204943000807
:1045A00000B583B006E001A906481EF084FE01981C
:1045B0001EF091FE03481EF04EFE0028F3D003B01B
:1045C0005DF804FB3800032070B48DB006460D463C
:1045D0000DF1040C2B4C0FCCACE80F000FCCACE869
:1045E0000F0094E807008CE80700002E45D0304605
:1045F000002D44D000230FE015F8234005EB830184
:104600004A78120442EA04628C7842EA0422C978A9
:104610000A4340F823200133032BEDD906E0191F8C
:1046200050F821104A4040F8232001332B2B20D88A
:104630005A1E50F8222013F0030FF0D14FEA3262D5
:10464000110E114C655CC2F30741615C090441EA3B
:104650000561C2F30725655D41EA0521D2B2A25C7E
:10466000114323F0030230326A4452F82C2C4A40A2
:10467000D5E701200DB070BC70470020FAE700209C
:10468000F8E700BFBC93020804AB020800284ED034
:1046900070B584B01546064600294AD0002A4AD093
:1046A00010230A46194668461EF016FE294668463B
:1046B0001EF02CFE002414E01DF803101F48415C7E
:1046C0000DF8031001330F2BF6D968461EF05FFE7C
:1046D00068461EF0D6FE013405EB041168461EF054
:1046E00015FE082C01D80023EDE7002306E01DF895
:1046F000032012498A5C0DF8032001330F2BF6D9F1
:1047000068461EF044FE611C05EB011168461EF070
:10471000FDFD10236A46194630461EF0DDFD1022CD
:10472000002168461EF0E5FD012004B070BD0020A8
:1047300070470020F9E70020F7E700BF04AB02084C
:104740002DE9F04F95B003910568D0F80480876893
:10475000D0F80CB00469D0F814A0D0F81890D0F8B4
:104760001CC00026CDF804B0E346029030E003A858
:104770001EF0B2FF14AB03EB860343F8400C4FEA84
:10478000F42383EAB41383EA74635B4404EA0A0201
:1047900029EA04014A4013444E4A52F826201344A1
:1047A00018444FEA753383EAB50383EAB55388EAC0
:1047B00007022A4008EA07014A4013440136CB4663
:1047C000D146A246019C044401974746A846C51815
:1047D0000F2ECCD9DC46DDF804B03F2E5ED806F1B2
:1047E000010E0EF00F0314AA02EB830353F8402CC2
:1047F0004FEAB24383EAF21383EAD20306F10E02D0
:1048000002F00F0214A901EB820252F8401C4FEA99
:10481000F14282EA714282EA912206F00F0114A865
:1048200000EB810151F8400C0190134406F109029C
:1048300002F00F0214A800EB820252F8402C13443D
:10484000019A134441F8403C4FEAF42282EAB41240
:1048500082EA7462624404EA0A0129EA04004140DF
:104860000A441C4951F826100A4413444FEA753291
:1048700082EAB50282EAB55188EA07022A4008EACC
:10488000070042400A447646CC46D146A2460BEB8E
:104890000304BB464746A8469D189EE70298036856
:1048A0002B44036043684344436083683B44836014
:1048B000C3685B44C3600369234403614369534491
:1048C000436183694B448361C3696344C36115B029
:1048D000BDE8F08F04AC0208E0B110B504467022C8
:1048E00000211EF006FD0C4B23600C4B63600C4B4B
:1048F000A3600C4BE3600C4B23610C4B63610C4BCE
:10490000A36103F17453A3F52303A3F69243E36178
:10491000012010BD0020704767E6096A85AE67BBBD
:1049200072F36E3C3AF54FA57F520E518C68059B91
:10493000ABD9831F2DE9F04182B000AF0446D0F817
:1049400000E0D0F804C086686D468AB06B4613F16B
:10495000100200F001811820BAB10146042803DDDD
:10496000DFF82482C3F81480082903DDDFF81C82F5
:10497000C3F818800C2901DDC3F81CE0102901DD03
:10498000C3F820C0142900DD5E62172840F3E780D9
:104990004FF0180C3AB10621397100217971B971C3
:1049A000F9717868186100216FF300016FF341011C
:1049B0006FF382016FF3C501012363F38811CCF318
:1049C0000A0C6CF353216FF31F5100237048FEF75C
:1049D000CBFEAD46D4F80CE0D4F810C066696D4645
:1049E0008AB06B4613F1100200F0BC801820BAB1F7
:1049F0000146042803DDDFF89C81C3F814800829F0
:104A000003DDDFF88881C3F818800C2901DDC3F8C5
:104A10001CE0102901DDC3F820C0142900DD5E620E
:104A2000172840F3A2804FF0180C3AB106213971D3
:104A300000217971B971F9717868186100216FF3FB
:104A400000016FF341016FF382016FF3C501012390
:104A500063F38811CCF30A0C6CF353216FF31F51ED
:104A600000234B48FEF780FEAD46E6696D4688B0F0
:104A70006B4613F110027BD010217AB1084604294D
:104A800003DDDFF814C1C3F814C0082803DDDFF824
:104A9000FCC0C3F818C00C2800DDDE610F296ADDF8
:104AA0004FF0100C3AB10421397100217971B971BC
:104AB000F9717868186100216FF300016FF341010B
:104AC0006FF382016FF3C501012363F38811CCF307
:104AD0000A0C6CF353216FF31F5100232C48FEF78F
:104AE00043FEAD46A46988B06B4613F1100245D071
:104AF00010215AB10846042901DD284D5D610828BE
:104B000001DD224D9D610C2800DDDC610F2938DDBF
:104B100010243AB10421397100217971B971F97108
:104B20007868186100216FF300016FF341016FF3A2
:104B300082016FF3C501012363F38811C4F30A04F2
:104B400064F353216FF31F5100231148FEF70CFE4D
:104B50000837BD46BDE8F0816FF00040FCE66FF01D
:104B60001B0C17E76FF0004041E76FF01B0C5CE790
:104B70006FF0004181E76FF01B0C93E76FF000418D
:104B8000B7E76FF01B04C4E704AD0208B4AD020838
:104B9000D492020838AD02086CAD020880AD02085C
:104BA00030BFFFF7FDBF00BF38B50446084D2A46A9
:104BB000084924F019F90848431E2B44B3FBF0F3CD
:104BC000064A002100FB034024F01CF938BD00BF59
:104BD00000000000409302080100000004000000F3
:104BE00070B505460C480D4A0244013AB2FBF0F29A
:104BF0000B4B0C4C1C44013CB4FBF3F404FB03F3DF
:104C000000FB02340E1B3046FFF7CEFF083EC5F80E
:104C1000A86004F1080070BD010000000000000061
:104C20000400000004000000044B996858698842A1
:104C300003D003494FF080520A6070474C1C00209B
:104C400004ED00E081690D4B5A6942F480725A61AB
:104C5000BFF34F8FBFF36F8F31F8021C5A6922F4F4
:104C600080725A61BFF34F8FBFF36F8F4DF602739F
:104C7000994201D0002070470120704700ED00E00C
:104C80004FF0000C83F800C002F07F4CBCF17F4F66
:104C90004ED102F00C0CBCF1080F04D012F0080F3A
:104CA00043D008467047B0B582B000AF6C4688B0BC
:104CB0006B4613F1100232D00C2142B10846042990
:104CC00001DD1C4D5D61082801DD1B4898610B2941
:104CD00028DD4FF00C0C3AB10321397100217971B4
:104CE000B971F9717868186100216FF300016FF3F1
:104CF00041016FF382016FF3C501012363F3881152
:104D0000CCF30A0363F353216FF31F5100230B48C5
:104D1000FEF72AFDA54600200837BD46B0BD6FF05E
:104D20000041CAE76FF01B0CD5E701221A707047EB
:104D300000207047C0AD02084CB30208D4920208AC
:104D40002DE9F04182B000AF05460E461446E84614
:104D500088B06B4613F1100200F041810C2152B172
:104D60000846042903DDDFF8B8C2C3F814C00828D8
:104D700001DDAC4898610B2940F334814FF00C0CF5
:104D80003AB10321397100217971B971F9717868EB
:104D9000186100216FF300016FF341016FF382018D
:104DA0006FF3C501012363F38811CCF30A0C6CF394
:104DB00053216FF31F5100239B48FEF7D5FCC546D6
:104DC0009A4B9B6A13F4805F00F01581E84688B027
:104DD0006B4613F1100200F008810C2152B1084615
:104DE000042903DDDFF848C2C3F814C0082801DD38
:104DF0008C4898610B2940F3FB804FF00C0C3AB1C2
:104E00000321397100217971B971F97178681861DC
:104E100000216FF300016FF341016FF382016FF323
:104E2000C501012363F38811CCF30A0C6CF3532101
:104E30006FF31F5100237C48FEF796FCC5464FF0E8
:104E400017087A4B9B6A13F4006F3AD0E84688B093
:104E50006B4613F1100200F0D1800C2152B10846CC
:104E6000042903DDDFF8CCC1C3F814C0082801DD34
:104E70006C4898610B2940F3C4804FF00C0C3AB198
:104E80000321397100217971B971F971786818615C
:104E900000216FF300016FF341016FF382016FF3A3
:104EA000C501012363F38811CCF30A0C6CF3532181
:104EB0006FF31F5100235C48FEF756FCC5464FF0C8
:104EC00018085A4B9B6A13F4007F00F0BB80E84639
:104ED00088B06B4613F1100200F096800C2152B19D
:104EE0000846042903DDDFF850C1C3F814C00828C0
:104EF00001DD4C4898610B2940F389804FF00C0C80
:104F00003AB10321397100217971B971F971786869
:104F1000186100216FF300016FF341016FF382010B
:104F20006FF3C501012363F38811CCF30A0C6CF312
:104F300053216FF31F5100233B48FEF715FCC54674
:104F40003A4B986B9B6A13F4004F79D0E84688B0CF
:104F50006B4613F110025DD010218AB18C460429F2
:104F600003DDDFF8D8E0C3F814E0BCF1080F03DD7F
:104F7000DFF8B0E0C3F818E0BCF10C0F00DDD86139
:104F80000F294ADD4FF0100C3AB10421397100218C
:104F90007971B971F9717868186100216FF30001B6
:104FA0006FF341016FF382016FF3C501012363F3D6
:104FB0008811CCF30A0C6CF353216FF31F510023BB
:104FC0001948FEF7D1FBC546002E00F0C080174AF5
:104FD000936A23F4004393624FF0190832E06FF0B4
:104FE0000041BCE66FF01B0CCAE66FF00041F5E62D
:104FF0006FF01B0C03E74FF0160822E76FF000413B
:105000002CE76FF01B0C3AE76FF0004167E76FF099
:105010001B0C75E76FF000419FE76FF01B0CB3E7C7
:10502000F0AD020820B30208D492020800ED00E0BF
:105030000CAE020824AE02083CAE02085CAE0208C8
:105040004FF019086A4B9B6A13F4806F35D0E8461D
:1050500088B06B4613F110027CD00C2142B1084697
:10506000042901DD634E5E61082801DD6248986114
:105070000B2972DD0C263AB10321397100217971B7
:10508000B971F9717868186100216FF300016FF34D
:1050900041016FF382016FF3C501012363F38811AE
:1050A000C6F30A0666F353216FF31F5100235348DA
:1050B000FEF75AFBC5464FF01A084D4B9B6A13F496
:1050C000807F53D0E84688B06B4613F1100247D07A
:1050D0000C2142B10846042901DD494E5E610828D1
:1050E00001DD454898610B293DDD0C263AB10321CD
:1050F000397100217971B971F971786818610021ED
:105100006FF300016FF341016FF382016FF3C5018B
:10511000012363F38811C6F30A0666F353216FF384
:105120001F5100233548FEF71FFBC5464FF01B08F3
:105130002F4A936A43F47F439362012128461EF06D
:1051400051FD207040460837BD46BDE8F0814FF064
:10515000190877E76FF0004180E76FF01B068AE7D8
:105160006FF00041B5E76FF01B06BFE7204B9B6A6D
:1051700013F4005FDCD0E84688B06B4613F11002F0
:1051800030D00C2142B10846042901DD1D4E5E617C
:10519000082801DD184898610B2926DD0C263AB154
:1051A0000321397100217971B971F9717868186139
:1051B00000216FF300016FF341016FF382016FF380
:1051C000C501012363F38811C6F30A0666F3532170
:1051D0006FF31F5100230948FEF7C6FAC5464FF08A
:1051E0001C08A5E76FF00041CCE76FF01B06D6E77F
:1051F00000ED00E078AE020820B30208D492020865
:1052000098AE0208B4AE0208B0B582B000AF6C46EA
:1052100088B06B4613F1100200F06A810C2142B194
:105220000846042901DDB84D5D61082801DDB74855
:1052300098610B2940F35F814FF00C0C3AB10321C8
:10524000397100217971B971F9717868186100219B
:105250006FF300016FF341016FF382016FF3C5013A
:10526000012363F38811CCF30A0C6CF353216FF321
:105270001F510023A648FEF777FAA546A54B9B6A67
:1052800013F0007F00F052816D4688B06B4613F139
:10529000100200F033810C2142B10846042901DDDF
:1052A0009D4C5C61082801DD984898610B2940F30A
:1052B00028810C243AB10321397100217971B97127
:1052C000F9717868186100216FF300016FF34101F3
:1052D0006FF382016FF3C501012363F38811C4F3F7
:1052E0000A0464F353216FF31F5100238848FEF72B
:1052F0003BFAAD461E20874B9B6A13F0807F36D069
:105300006D4688B06B4613F1100200F011810C213C
:1053100042B10846042901DD804C5C61082801DDAA
:105320007A4898610B2940F306810C243AB1032195
:10533000397100217971B971F971786818610021AA
:105340006FF300016FF341016FF382016FF3C50149
:10535000012363F38811C4F30A0464F353216FF348
:105360001F5100236A48FEF7FFF9AD461F20694B25
:105370009B6A13F4002F36D06D4688B06B4613F14C
:10538000100200F0DB800C2142B10846042901DD47
:10539000634C5C61082801DD5C4898610B2940F38F
:1053A000D0800C243AB10321397100217971B9718F
:1053B000F9717868186100216FF300016FF3410102
:1053C0006FF382016FF3C501012363F38811C4F306
:1053D0000A0464F353216FF31F5100234C48FEF776
:1053E000C3F9AD4621204B4B9B6A13F4802F36D076
:1053F0006D4688B06B4613F1100200F0A5800C21B9
:1054000042B10846042901DD464C5C61082801DDF3
:105410003E4898610B2940F39A800C243AB103214D
:10542000397100217971B971F971786818610021B9
:105430006FF300016FF341016FF382016FF3C50158
:10544000012363F38811C4F30A0464F353216FF357
:105450001F5100232E48FEF787F9AD4622202D4B21
:105460009B6A13F4003F34D06D4688B06B4613F14D
:1054700010026FD00C2142B10846042901DD2A4CEC
:105480005C61082801DD214898610B2965DD0C2449
:105490003AB10321397100217971B971F9717868D4
:1054A000186100216FF300016FF341016FF3820176
:1054B0006FF3C501012363F38811C4F30A0464F395
:1054C00053216FF31F5100231148FEF74DF9AD46EC
:1054D0002320104B9B6A13F4803F41D10D4A936AFD
:1054E0006FEA03436FEA134393620837BD46B0BDCA
:1054F0006FF0004193E66FF01B0C9FE66FF00041E8
:10550000CAE66FF01B04D5E6E8AE020814B3020841
:10551000D492020800ED00E004AF02081CAF0208BC
:105520003CAF020860AF02088CAF02081D20E2E623
:105530006FF00041ECE66FF01B04F7E66FF00041FE
:1055400022E76FF01B042DE76FF0004158E76FF082
:105550001B0463E76FF000418DE76FF01B0497E7D2
:105560006D4688B06B4613F110022FD00C2142B16A
:105570000846042901DD184C5C61082801DD174844
:1055800098610B2925DD0C243AB1032139710021E2
:105590007971B971F9717868186100216FF30001B0
:1055A0006FF341016FF382016FF3C501012363F3D0
:1055B0008811C4F30A0464F353216FF31F510023CD
:1055C0000748FEF7D1F8AD46242087E76FF0004189
:1055D000CDE76FF01B04D7E7ACAF020814B30208A5
:1055E000D492020890B583B000AF00230B7088B04E
:1055F0006B4613F1100230D00C2142B10846042949
:1056000001DD194C5C61082801DD184898610B29FF
:1056100026DD4FF00C0C3AB103213971002179716C
:10562000B971F9717868186100216FF300016FF3A7
:1056300041016FF382016FF3C501012363F3881108
:10564000CCF30A0C6CF353216FF31F51002308486D
:10565000FEF78AF80C37BD4690BD6FF00041CCE7ED
:105660006FF01B0CD7E700BFDCAF020804B30208E1
:10567000D4920208B0B582B000AF0F2929DC324CB9
:10568000103901233B7103237B718AB0EC461CF176
:10569000100220D0162052B10346042802DD2B4D03
:1056A000CCF81450082B02DD294BCCF8183001231C
:1056B0003B7003237B70E2B103460C2801DDCCF87C
:1056C0001C40102B01DDCCF820100CF1240300212C
:1056D0000DE0204CD4E76FF00040DCE701F1080456
:1056E00004EB070E1EF808EC03F801EB0131012969
:1056F000F4D9152824DD16234AB10521397100217A
:105700007971B9710121F9717868CCF81000002124
:105710006FF300016FF341016FF382016FF3C50175
:10572000012060F38811C3F30A0363F353216FF37D
:105730001F5100230848FEF717F80837BD46B0BDD3
:105740006FF01B03D8E700BF04B0020838B00208AE
:10575000F0B202081CB00208D49202082DE9F0430E
:1057600083B000AF04460E461546E84688B06B4647
:1057700013F1100200F042810C2152B108460429B5
:1057800003DDDFF8BCC2C3F814C0082801DDAD4852
:1057900098610B2940F335814FF00C0C3AB103218D
:1057A000397100217971B971F97178681861002136
:1057B0006FF300016FF341016FF382016FF3C501D5
:1057C000012363F38811CCF30A0C6CF353216FF3BC
:1057D0001F5100239C48FDF7C7FFC5469B4B9B6AA2
:1057E00013F0100F00F01681E84688B06B4613F1F5
:1057F000100200F009810C2152B10846042903DD92
:10580000DFF84CC2C3F814C0082801DD8D48986148
:105810000B2940F3FC804FF00C0C3AB10321397195
:1058200000217971B971F9717868186100216FF3FD
:1058300000016FF341016FF382016FF3C501012392
:1058400063F38811CCF30A0C6CF353216FF31F51EF
:1058500000237D48FDF788FFC5464FF011087B4BBC
:105860009B6A13F0080F3AD0E84688B06B4613F1F4
:10587000100200F0D2800C2152B10846042903DD49
:10588000DFF8D0C1C3F814C0082801DD6D48986165
:105890000B2940F3C5804FF00C0C3AB1032139714C
:1058A00000217971B971F9717868186100216FF37D
:1058B00000016FF341016FF382016FF3C501012312
:1058C00063F38811CCF30A0C6CF353216FF31F516F
:1058D00000235D48FDF748FFC5464FF012085B4BBB
:1058E0009B6A13F0020F00F0BB80E84688B06B465D
:1058F00013F1100200F097800C2152B108460429E0
:1059000003DDDFF854C1C3F814C0082801DD4D4899
:1059100098610B2940F38A804FF00C0C3AB10321B7
:10592000397100217971B971F971786818610021B4
:105930006FF300016FF341016FF382016FF3C50153
:10594000012363F38811CCF30A0C6CF353216FF33A
:105950001F5100233C48FDF707FFC5463B4BD3F8DA
:1059600034909B6A13F0800F00F02281E84688B0E3
:105970006B4613F110025CD0102182B10846042955
:1059800003DDDFF8D8C0C3F814C0082803DDDFF852
:10599000B4C0C3F818C00C2801DDC3F81C900F294F
:1059A0004ADD4FF0100C3AB10421397100217971B0
:1059B000B971F9717868186100216FF300016FF314
:1059C00041016FF382016FF3C501012363F3881175
:1059D000CCF30A0C6CF353216FF31F5100231A48C8
:1059E000FDF7C2FEC546002E00F0E780174A936A15
:1059F00023F0800393624FF0130833E06FF000410F
:105A0000BBE66FF01B0CC9E66FF00041F4E66FF0E7
:105A10001B0C02E74FF0100821E76FF000412BE765
:105A20006FF01B0C39E76FF0004166E76FF01B0C5D
:105A300074E76FF00041A0E76FF01B0CB3E700BF05
:105A400050B002082CB30208D492020800ED00E026
:105A50006CB0020824AE0208A4B00208C0B002086C
:105A60006FF015096C4B9B6A13F0010F3AD06E462C
:105A700088B06B4613F1100200F0A2800C2152B1E5
:105A80000846042903DDDFF894C1C3F814C00828D0
:105A900001DD634898610B2940F395804FF00C0CB1
:105AA0003AB10321397100217971B971F9717868BE
:105AB000186100216FF300016FF341016FF3820160
:105AC0006FF3C501012363F38811CCF30A0C6CF367
