:020000040800F2
:10000000C03C0020153E0008193C0108013E0008D4
:10001000013E0008013E0008013E0008000000000B
:10002000000000000000000000000000193F000870
:10003000013E000800000000B13E00081D0201085A
:10004000E5400008E5400008E5400008E5400008FC
:10005000E5400008E5400008E5400008E5400008EC
:10006000E5400008E5400008E5400008E5400008DC
:10007000E5400008E5400008E5400008E5400008CC
:10008000E5400008E5400008E5400008E5400008BC
:10009000E5400008E5400008E5400008E5400008AC
:1000A000E5400008E5400008E5400008E54000089C
:1000B000E5400008E5400008E5400008E54000088C
:1000C000E5400008E5400008E5400008E54000087C
:1000D000E5400008E5400008E5400008E54000086C
:1000E000E5400008E5400008E5400008E54000085C
:1000F000E5400008E5400008E5400008E54000084C
:10010000E5400008E5400008E5400008E54000083B
:10011000E5400008E5400008E5400008E54000082B
:10012000E5400008E5400008E5400008E54000081B
:0C013000E5400008E5400008E54000083C
:04013C00FFFFFFFFC3
:1001400053B94AB9002908BF00281CBF4FF0FF313E
:100150004FF0FF3000F00CB8ADF1080C6DE904CEA3
:1001600000F008F8DDF804E0DDE9022304B0704790
:10017000704700BF2DE9F04786468C460846089E2A
:10018000154674461946002B40F0C2808542B2FAEB
:1001900082F245D94AB1C2F1200300FA02FC2EFADC
:1001A00003F3954043EA0C0C94404FEA154EA8B275
:1001B000BCFBFEF8230C0EFB18CC08FB00F943EA4D
:1001C0000C43994528D9EB1808F1FF3704D299451B
:1001D00002D9A8F102072B44A3EB0903A4B2B3FB95
:1001E000FEFC0EFB1C330CFB00F044EA0344A0426F
:1001F00014D92C190CF1FF3304D2A04202D9ACF16E
:1002000002032C44241A43EA07401EB1D4400023C1
:1002100034607360BDE8F0874746DDE76346F1E789
:1002200092BB431B01214FEA154EAFB2B3FBFEFC5C
:10023000200C0EFB1C330CFB07F840EA03439845E7
:1002400062D9EB180CF1FF3004D2984502D9ACF119
:1002500002002B44A3EB0803A4B2B3FBFEFC0EFB8D
:100260001C330CFB07F744EA0344A7424ED92C1970
:100270000CF1FF3304D2A74202D9ACF102032C44A3
:10028000E41B43EA0040C0E7C2F1200320FA03F177
:10029000954090402EFA03F303434FEA154EAFB258
:1002A000B1FBFEFC0EFB1C10190C0CFB07F841EA1D
:1002B0000041884504FA02F422D969180CF1FF3094
:1002C00004D2884502D9ACF102002944A1EB08010F
:1002D0009BB2B1FBFEFC0EFB1C110CFB07F743EAC3
:1002E00001439F420ED9EB180CF1FF3104D29F421B
:1002F00002D9ACF102012B44DB1B41EA004192E739
:100300006046E3E76146F7E76046A3E76346B7E781
:10031000834206D916B9002108467BE7C6E900E00A
:10032000F9E7B3FA83F78FB9834201D3724508D84E
:10033000BEEB020460EB030301209C461EB90021C2
:1003400068E73846FAE7C6E9004CF8E7C7F1200C41
:10035000BB4022FA0CF41C432EFA0CF120FA0CF3E9
:10036000B84001434FEA14490EFA07F5B3FBF9F818
:100370001FFA84FE09FB18300B0C08FB0EFA43EA47
:1003800000439A4502FA07F240D9E31808F1FF301A
:1003900004D29A4502D9A8F102002344A3EB0A0330
:1003A00089B2B3FBF9F809FB183308FB0EFE41EAEA
:1003B00003418E452CD9611808F1FF3304D28E45D4
:1003C00002D9A8F10203214443EA0040A0FB0298AD
:1003D000A1EB0E014145CE46434602D306D14D4521
:1003E00004D2B9EB020E68EB04030138002EA6D04C
:1003F000B5EB0E0261EB030101FA0CFC22FA07F3E4
:100400004CEA0303F940C6E9003198E74046C5E7E6
:100410004346D9E710F8012B11F8013B012A28BF08
:100420009A42F7D0D01A7047034611F8012B03F80F
:10043000012B002AF9D17047034613F8012B002A3B
:10044000FBD1181A0138704710B5082140F6014059
:1004500004F000FFD8B1044608210C3017F038FF33
:1004600002460F4B93F8883013F0010F0BD10D4863
:100470004FF0005113F04EFD0022214640F601409E
:1004800004F026FF10BD04A1D1E90001F2E76FF0EE
:100490006800F7E7AFF3008090880002008000203A
:1004A000000000201088000208B539B1074A127810
:1004B00002B908BD064812F0FCF9FAE7034B1B78B5
:1004C000002BF6D0034812F0F4F9F2E7F51B0020F8
:1004D00074A6010890A6010810B50F210D4B1868ED
:1004E00011F021FF0C4B1B7853B90C4B01221A70F1
:1004F0000EF07EFC03F028FE094BC3E9000110BD9D
:1005000004460FF053FF01462246064812F0D1F987
:10051000EBE700BF08160020F51B0020F21B0020AF
:10052000E8060020A8A60108F0B58BB004460D46E9
:1005300016460378032B38D8DFE803F002212B316D
:100540001D4B93E803000790ADF82010090C8DF8BF
:10055000221063792279E178A07867780DF11C0C7C
:10056000CDF814C004970390029101920093A379EF
:10057000124A3146284611F001FC0BB0F0BD104B79
:1005800093E803000790ADF82010090C8DF82210B5
:10059000DFE70C4A07AB07CA03C31A80D9E70A4A48
:1005A00007AB07CA03C31A80D3E7084A0A2107A882
:1005B00011F0E4FBCDE700BFD0A60108E0A60108DA
:1005C000D8A6010804A7010810A7010820D4010833
:1005D00000B587B00023019302930393049305931E
:1005E00001238DF804306023ADF80C303023ADF8D2
:1005F0000E300C4901A807F093F928B90A4B1B7873
:100600005BB907B05DF804FB0146074B1B78002B74
:10061000F7D0064812F04DF9F3E7054812F049F912
:10062000EFE700BF35060008F51B00201CA70108F6
:1006300040A70108354B1B6803B1704730B597B030
:1006400005460C46012A01D917B030BD1E2208A963
:10065000FFF76AFF2E4B1B78FBB914F15A0FF3DB3F
:100660002C4B1C682C4B53F824106846FFF7DCFE1B
:10067000112208A9684619F028FCA0B1274A13687E
:1006800001331360264A12689342DDDB234B0022BC
:100690001A6001341F4B1C60D6E7224608A9214886
:1006A00012F007F9D9E71D4B00221A6007F0CAF9CA
:1006B0000028C9D11C4B1B68012B1AD01B4C0DF113
:1006C000400C94E80F008CE80F0014AA103494E852
:1006D000030082E803000D4B6146284608F08CFABF
:1006E00002460028B0D00A4B1B7853B9FFF770FFC1
:1006F000AAE70EF07DFB03F027FD0D4BC3E90001D7
:10070000DCE708A90B4812F0D4F8EFE7C815002081
:10071000F51B00201C160020800100202016002060
:100720007C01002060A70108780100202CA50108A9
:10073000E80600207CA70108F0B591B051B106464B
:100740000F46454B1B78A3B9444B1B78B3B100202F
:1007500011B0F0BD1446404B1B7833B90023236021
:100760006360A360E3602361F1E73D4812F0A1F804
:10077000F4E7098A3B4812F09CF8E5E701AC3A4DF2
:100780000FCD0FC42B68237001A9384B186813F0E4
:1007900050FB002834D0398A0131354B19602F4B7A
:1007A00001221A702C4B1B78002B4DD12A4B1B7841
:1007B000002B4DD10BAC2C4D0FCD0FC42B682370EB
:1007C0002C4F3C460BAD0FCD0FC42B68237027492F
:1007D0000F60294B4B6001230B814FF6FF73CB81D8
:1007E00000230B7430460BF0A1FA01460028AED06E
:1007F000194B1B78002BABD0204812F05AF8A7E712
:1008000006AC04350FCD0FC42B682370DFF864C02D
:10081000644606AD0FCD0FC42B6823701349C1F891
:1008200000C03B8A01330B8103230B7430460BF06D
:100830007DFA014600288AD0074B1B78002B86D012
:100840000F4812F036F882E70E4812F032F8ADE7A2
:100850000D4812F02EF8ADE7F51B0020F41B002028
:100860009CA70108B0A7010844A50108B415002001
:1008700074010020600100206509000830A801080B
:10088000C8A70108E4A70108FCA7010810B58AB0B1
:100890008646164B0093002301930123ADF80830E0
:1008A0004FF6FF73ADF80A300DF1140C104C0FCC5D
:1008B000ACE80F0023688CF8003005AB0393694661
:1008C00070460BF0D9FB48B101460A4B1B780BB9B7
:1008D0000AB010BD084811F0ECFFF9E7054B1B7892
:1008E000002BF5D0054811F0E4FFF1E701130008F3
:1008F0006CA50108F51B00204CA8010868A8010898
:1009000010B584B00446124B0093ADF804100023D8
:10091000ADF806300F4B02930423ADF80C30694656
:100920000BF086FC50B101460B4B1B7843B90A4BC8
:100930001B784BB91321204614F03DFA04B010BDCA
:10094000064811F0B6FFF2E7054811F0B2FFF1E7F3
:10095000A904000878010020F51B002080A80108E8
:10096000A0A80108F0B5A1B0C1B105460E46A14B43
:100970001B7813BBA04B1B68022B23D09E4B1B681C
:10098000012B2AD09C4B1B68032B32D09A4B1B683F
:10099000042B00F0C380002021B0F0BD1446954B1D
:1009A0001B7833B9002323606360A360E360236195
:1009B000F1E7924811F07DFFF4E7098A904811F0C1
:1009C00078FFD7E70EF014FA03F0BEFB8D4BC3E9B6
:1009D00000012846FFF75AFFD0E7864B1B7823B962
:1009E0001321284614F0E7F9CCE7874811F061FF9E
:1009F000F6E76C46854F0FCF0FC43B6823706946FE
:100A0000834B186813F015FA18BB05AC2C370FCFC1
:100A10000FC43B682370DFF8FCC1644605AF0FCFFD
:100A20000FC43B6823707A49C1F800C0338A013390
:100A30000B8103230B7428460BF078F9014600283C
:100A4000A4D06C4B1B78002BA0D0734811F031FF61
:100A50009CE70AAC714F0FCF0FC43B6823700AA903
:100A60006B4B186813F0E5F960BB00238DF83C3040
:100A700042F60213ADF83E30DFF898C164460FAF7E
:100A80000FCF0FC43B682370614CC4F800C0338A99
:100A90000233238104232374304616F05CF8604B44
:100AA0009881214628460BF041F9014600283FF481
:100AB0006DAF504B1B78002B3FF468AF564811F0D8
:100AC000F8FE63E75649574B0B6002230B82338ACB
:100AD000CB8128460BF034FC014658B110F1780F59
:100AE00008D0444B1B78002B3FF455AF4E4811F013
:100AF000E0FE50E73F4B1B7843B93E4B1B784BB9A8
:100B00004A4B19882846FFF7FBFE44E7484811F096
:100B1000D0FEF2E7474811F0CCFEF1E710AC3B4FB6
:100B20000FCF0FC43B68237010A9394B186813F01E
:100B300080F928BB15AC40370FCF0FC43B6823703A
:100B4000DFF8D0C0644615AF0FCF0FC43B682370E9
:100B50002F49C1F800C0338A01330B8103230B7482
:100B600028460BF0E3F8014600283FF414AF214B70
:100B70001B78002B3FF40FAF274811F09AFE0AE7CD
:100B80001AAC2D4F0FCF0FC43B6823701AA9204B0E
:100B9000186813F04EF9002850D100238DF87C30EE
:100BA00042F60213ADF87E30DFF868C064461FAF2E
:100BB0000FCF0FC43B682370154CC4F800C0338AB4
:100BC0000233238104232374304615F0C4FF144BF1
:100BD0009881214628460BF0A9F8014600283FF4E9
:100BE000DAAE044B1B78002B3FF4D5AE0A4811F067
:100BF00060FED0E6F51B0020780100209CA70108CC
:100C0000B0A70108E8060020E0A8010844A50108F3
:100C1000B415002060010020C8A7010880A50108C4
:100C2000981500207D1000080CA90108740100200F
:100C300028A9010840A9010894A501081549164BE7
:100C40000B6001230B82338ACB8128460BF078FBA3
:100C5000014658B110F1780F08D0104B1B78002BCB
:100C60003FF499AE0E4811F024FE94E60B4B1B782E
:100C700043B90A4B1B784BB90A4B19882846FFF732
:100C80003FFE88E6084811F014FEF2E7074811F02D
:100C900010FEF1E7981500207D100008F51B0020DC
:100CA0000CA901087401002060A9010840A90108ED
:100CB00070B50C4615460FF07FFC064678B12A4603
:100CC000214611F0FCFA002811DB4FF0B8622146F2
:100CD000304611F0DCFA002812DB304670BD0D4BB7
:100CE0001B78002BF9D00C4811F0E3FDF5E7094B18
:100CF0001B780BB90026F0E7084811F0DAFDF9E798
:100D0000044B1B780BB90026E7E7054811F0D1FD2D
:100D1000F9E700BFF51B002078A9010894A9010894
:100D2000B4A9010870B502462648002300F8153F13
:100D30000024531842D22344234CA4FB035626F02C
:100D4000030505EB96055B1BD31A61F100054FF017
:100D5000CC3C0CFB03FC04FB05CCA3FB0434A444F7
:100D60005B0843EACC7303EB8303A2EB430330330A
:100D700000F8013D96468C460024531820D22344A7
:100D8000114CA4FB035626F0030505EB96055B1BEF
:100D9000D31A61F100024FF0CC3103FB01F104FBE7
:100DA0000211A3FB043421445B0843EAC1724908E1
:100DB000BEF10A0F7CF1000CBAD270BD0124BAE773
:100DC0000124DCE780150020CDCCCCCC70B58EB0F2
:100DD00004460D46504B1B68012B15D0204613F0DE
:100DE000E8FF1E2201A9FFF79FFB4C4B1B78FBB9C4
:100DF000494B1B68012B20D0002D47D1484B1B6865
:100E0000A34255D00EB070BD03F09EF902460B46CA
:100E10004449C1E90023444812F03CFF434B1E689B
:100E200012F042FF424B03EBC603C3E90001D5E7D2
:100E300001A9404811F03DFDDAE7384B1B787BB93A
:100E4000364B1B7883B9354B1B78DBB9334B1B789A
:100E5000002BD1D0354B1968374811F02AFDCBE76C
:100E6000364811F026FDEBE7304B1A68304B03EBA8
:100E7000C203D3E90001FFF755FF0146304811F0E6
:100E800018FDE0E72F4811F014FDDFE7234B1B7836
:100E900043B9234C206813F03FFE00232360FFF783
:100EA00097FBAFE72A4601A9274811F002FDF0E7BA
:100EB00009AD264E0FCE0FC533682B70244E354634
:100EC0000DF1240CBCE80F000FC5DCF800302B70CE
:100ED000204B1E60204B1B78D3B91E4B1F4A5A6013
:100EE0001C4901230B814FF6FF73CB8100230B7448
:100EF00020460AF01BFF10F0FF0F83D0074B1B7832
:100F0000002B3FF47FAFC1B2154811F0D2FC79E756
:100F1000104B144A5A60E3E778010020F51B0020CB
:100F2000C8150020E0060020E80600201816002062
:100F300090060020E0A9010808AA0108F0A901080C
:100F400034BC0108E0A7010820AA010844A5010853
:100F500060010020B4150020F41B002039070008B0
:100F600030A8010865090008F0B583B007460E46B1
:100F7000002410E007EBC403094A1568D3E90023F5
:100F8000CDE90023074B1A68074B53F82510074893
:100F900011F08FFC0134A642ECD803B0F0BD00BFC5
:100FA0001C160020780100208001002040AA0108C2
:100FB000284B1B68834200D0704710B588B00C46A0
:100FC00013F0F7FE1E226946FFF7AEFA224B1B789C
:100FD00083B9204C206813F09FFD002323601F4B32
:100FE0001B68012B0CD01E4B00221A70FFF7F0FA81
:100FF00008B010BD224669461A4811F05AFCE8E7CD
:10100000194A136801331360092B16DD13460022B9
:101010001A60114B1B78A3B90A211448FFF7A4FFEB
:10102000134A136801331360032B06D913460022B9
:101030001A600A4A136801331360642011F08DF9B5
:10104000D1E70B4B1A680B4B53F822100A4811F0EA
:1010500030FCE1E7C8150020F51B002078010020D6
:10106000F21B002074AA0108181600209006002028
:101070001C1600208001002098AA010838B562B132
:1010800005461468844B1B68032B11D0824B1B68E8
:10109000042B00F08480012038BD0C467F4B1B7868
:1010A00013B90020A081F7E77D4811F002FCF8E7B2
:1010B0007C4B1B7853B9794B1B781BB9794B0122B8
:1010C0001A70E3E7784811F0F4FBF7E7774B1A68FA
:1010D000774B03EBC20143F8324000234B606F4B68
:1010E0001B7883B96D4B1B788BB96C4B1B7893B90C
:1010F0006A4B1B78A3B9684B1B68032B14D0694B50
:1011000000221A70C2E76B4811F0D3FBEAE76A4885
:1011100011F0CFFBE9E72146684811F0CAFBE7E789
:10112000674811F0C6FBE6E75C4B1B7823BB5F4AC0
:10113000136801331360092BE1DD134600221A60A6
:10114000564B1B78F3B90A215948FFF70DFF5D4A4A
:10115000136801331360032B06D9134600221A606B
:101160004D4A1368013313604C4B1B789BB9132114
:10117000284613F020FEC2E74C4B1968524811F084
:1011800098FBD4E74F4B1A68504B53F82210504845
:1011900011F08FFBD7E74F4811F08BFBE7E74E4B81
:1011A0001B780BB9012077E702F0CEFF02460B4611
:1011B0004A49C1E900234A4812F06CFD494B1C68BA
:1011C00012F072FD484B03EBC403C3E90001424B2C
:1011D00000221A70314B1B78002B31D12F4B1B781A
:1011E000002B31D12D4B1B78002B3BD12B4B1B7887
:1011F000002B3BD13B4A136801331360092B48DDB8
:10120000134600221A60254B1B78002B34D10A218B
:101210003548FFF7A9FE2B4A136801331360032BEF
:1012200005D9134600221A601B4B01221A601B4B82
:101230001B7853BB1321284613F0BDFD01202BE77B
:101240002A4811F036FBC9E7264B1A68264B03EBF8
:10125000C203D3E90001FFF765FD0146244811F000
:1012600028FBBFE7164811F024FBBFE71D4B1968A8
:10127000204811F01EFBBDE7124B1A68134B53F8C0
:1012800022101D4811F015FBC1E71C4811F011FB9D
:10129000D0E7012000E700BF78010020F51B002007
:1012A000C0AA0108F31B0020D8AA010810160020CC
:1012B000F0050020F0AA010818AB01088CD601083F
:1012C000E0A701081C16002038AB010880010020AF
:1012D00050AB010878AB0108F21B0020E0060020AB
:1012E000E80600200C160020A0050020A4AB010891
:1012F00034BC0108C4AB0108DCAB010804AC010834
:101300002DE9F04188B005460C461E46BDF8387000
:1013100002F01AFF02460B463F49C1E900233F484D
:1013200012F0B8FC3E4BD3F8008012F0BDFC3D4BF0
:1013300003EBC803C3E90001EEB1E4B93A4B1B78F3
:101340000BB9002405E03946384811F0B2FAF8E745
:101350000134A74208DD344A1278002AF8D0315D02
:10136000334811F0A6FAF3E72F4B1B783BB1314815
:1013700011F09FFA03E02C4B1B78002B3BD1284641
:1013800013F017FD1E226946FFF7CEF8244A1368B2
:1013900001331360092B1FDD134600221A60224B14
:1013A0001B7863BB0A211F48FFF7DEFD224A136842
:1013B000013313601C4B1B7853BB1321284613F0D9
:1013C000FAFC1D4B1B68032B06D91B4B00221A602D
:1013D0001A4A136801331360642010F0BEFF02F054
:1013E000B3FE0E4BC3E900012846FFF74FFA002079
:1013F00008B0BDE8F081124811F05BFABFE70E4B70
:101400001A68104B53F822100F4811F052FAC9E72E
:101410000E4811F04EFAD0E7E0060020E806002062
:101420001416002040060020F51B002030AC0108F7
:1014300044AC0108E0A701081C1600207801002038
:101440004CAC01088001002058AC010880AC0108B8
:1014500008B54FF480320F213148FFF729FC314B9A
:10146000186000283CD03049304B4B604FF40043AB
:101470008B6010F068FF4FF480320E212848FFF790
:1014800017FC2B4B1860002832D02A49274B4B60A1
:101490004FF480438B6010F056FF4FF480320D21E3
:1014A0001F48FFF705FC244B186048B323491F4B26
:1014B0004B604FF400538B6010F045FF4FF48032C7
:1014C0000C211748FFF7F4FB1D4B186000B31D49B2
:1014D000164B4B604FF480538B6010F034FF08BD07
:1014E000194B1B78002BFAD0184811F0E2F9F6E7F7
:1014F000154B1B78002BF2D0154811F0DAF9EEE706
:10150000114B1B78002BEAD0124811F0D2F9E6E714
:101510000D4B1B78002BE2D00E4811F0CAF9DEE724
:10152000ACAC010808160020FC150020D904000806
:10153000F8150020EC150020E8150020DC1500202F
:10154000D8150020CC150020F51B0020B4AC0108F4
:10155000D4AC0108F4AC010808B54FF4FA6010F0FF
:10156000FCFE0DF037FCFFF773FF002005F080F85C
:1015700028B9094B1B785BB9FFF72AF808BD01466B
:10158000054B1B78002BF9D0044811F092F9F5E7D0
:10159000034811F08EF9EFE7F51B002014AD0108A8
:1015A00034AD01082DE9F04F91B005920293134636
:1015B00002F004020092C3F3C20210F0030301938D
:1015C00040F02D8280468A460132041D00284FD00B
:1015D000B8F1000F05D0A4EB08030433534500F223
:1015E0002182029B5D1E019B0493069303930026B8
:1015F0004FF0FF3B0427B946B8F1000F01D0029B22
:101600002360531E0793002A40F35F81059B13F06C
:10161000020228D00120A4EB08018B081AB1B1F511
:10162000007F80F0058203990F2900F20482B8F14F
:10163000000F00F06281DBB201F140026A4402F85F
:10164000103C02F820BC002800F0538163F07F03B7
:1016500001F140026A4402F8103C049B01330493F8
:10166000039B0133039304340022CC4640463DE003
:1016700001F0070A5444CAF1080AA9E7002634E039
:10168000002632E0002630E00827BC462DE0252960
:101690002BD10BF1010B01260427BC4625E047297D
:1016A000EED82A2914D32A39C9B24FF0010E0EFA06
:1016B00001F14FF6DA7E11EA0E0F16D111F0625FDA
:1016C00040F0C18011F0010F40F08C8000260CE04A
:1016D000252903D10BF1FF3B002606E001D90026A6
:1016E00003E0202901D02329CCD11D466B1C697849
:1016F000002900F01B81002EC9D07A29BED84C29C0
:10170000CDD34C392E2961D80FF2040E5EF821F0AA
:10171000EB160008CD170008CD170008CD170008FC
:10172000CD170008CD170008CD170008CD17000809
:10173000CD170008CD170008CD170008CD170008F9
:10174000DD170008CD170008CD170008CD170008D9
:10175000CD170008CD170008CD170008CD170008D9
:10176000CD17000847180008CD170008DD1700083E
:10177000DD17000847180008471800084718000838
:10178000EB160008DD17000889160008CD170008C1
:10179000EB160008CD170008A3180008DD17000895
:1017A000A3180008CD170008CD170008AB180008D3
:1017B000D7170008DD170008CD170008CD1700085F
:1017C000DD170008CD170008D117000800268CE7A8
:1017D0000427BC4689E70427BC4686E729786C299C
:1017E00025D000263C44013CB4FBF7F407FB04F48D
:1017F000254620B1211A6144514500F21681002A84
:1018000058D1BCF1040F00F08980BCF1080F40F002
:1018100015811A99073121F0070101F108051A9580
:10182000D1E9008908B1C4E9008908345DE713F8FB
:10183000021C6C2903D000260427BC46D2E70026F0
:101840000827BC46CEE729784C291AD01A990731C7
:1018500021F0070101F108061A96D1E90067073463
:1018600024F0070440B1211A0831514513D82978D2
:101870004C2913D0C4E90067083400260827BC4669
:1018800033E71A99073121F0070101F108061A968A
:10189000D1E90067E3E76FF01B00BDE0C4E9006732
:1018A000EAE700260427BC469CE7324600260427C8
:1018B000BC4697E72C46E14680461A9A111D1A91BC
:1018C00012680292079A1D4696E6624B029A9A4265
:1018D00004D3614B9A420AD3002300E00023002B7B
:1018E0007FF494AE059B03F00202002093E60123EF
:1018F000F5E7069B01330693B2E610B10AF1010A3F
:10190000AEE6009B13B10AF1020AA9E60298FEF7BF
:1019100093FD00EB0A0303F1020AA1E61A990D1DDB
:101920001A95096800B121600434DEE68046231A66
:10193000B3F5806F80F0858090B1002202609B0833
:101940000370009B83B1069BC370049B88F8023030
:101950001BBB019DDDF80C90DDF810B0029F3DE04F
:101960005344A3F1080057E0069B4370EDE70133B1
:101970009842EED903F140026A4412F8101C12F9A1
:10198000102C002AF3DA01F07F01A4EB08020132E7
:10199000524559D804F8011BE9E7019B0398E7E792
:1019A000009B43B305F140036B4413F8203C04F85B
:1019B000013B019EA4EB080333440133534546D851
:1019C00005F140036B4413F8103C04F8013B324628
:1019D0003946204618F0FEFA34440135A94519D994
:1019E000BBF1000FDCD005F140036B4413F9103C50
:1019F000002BD5DAF1E705F140036B4413F8103CF6
:101A000058F82370002248F823203846FEF714FDCA
:101A1000461CCFE7A4EB080011B0BDE8F08F6FF0D3
:101A20000D00F9E76FF01B00F6E76FF01B00F3E71E
:101A30006FF01500F0E76FF01500EDE76FF015009F
:101A4000EAE76FF01500E7E76FF01B00E4E76FF0DF
:101A50001B00E1E724A0010810DD01082DE9F04F8B
:101A600097B000AF8346BA613B61D7F88030C3F3CB
:101A7000C0033B62F96011B910F093FEF8609BF867
:101A80000260B14636B1D7F8803013F0010F0DD1A6
:101A9000002300E000239BF803207A6242B1D7F8CC
:101AA000802012F0020F22D1002202E00123F2E78F
:101AB000002202B9EBB19BF80050AA00BA60DBF833
:101AC00004207A610BEB8505BA69F2B1002B40F076
:101AD0000481B9F1000F00F00F81D7F8803013F0C6
:101AE000040F40F00D810020F8610646F9E0012264
:101AF000DFE7BB691BB13A69F96858469847FC684B
:101B000020465C37BD46BDE8F08FFC68E3B94D4424
:101B100000233B6123E00444013501364E451AD2CF
:101B20002A7800235BF822201946B86910F04EFE8F
:101B3000BAF1000FEFD0D7F888309845EBD22AF8E9
:101B4000180008F10108E6E70026C7F81C80B04637
:101B5000D7F884A0E2E7C7F81080D7F81C80D7F840
:101B6000803003F00503FB604FF0000AA146C7F880
:101B70001CB09CE000253B6A7BB9002D79D0D7F8DA
:101B8000803013F0010F79D1FB68002B6FD1022355
:101B9000A9EB030988E00125EDE75946786910F0C3
:101BA0005BFE0028E9D06C46002387F82C30022326
:101BB00087F82D308AB0694611F1100237D012250E
:101BC0001AB1042D01DDB24B4B61002387F8283098
:101BD000022387F829306ABB112D45DD122362B13B
:101BE000042087F82C00002087F82D0087F82E00AD
:101BF000012087F82F00F86A08616FF300086FF37F
:101C000041086FF382086FF3C508022161F3881859
:101C1000C3F30A0363F353286FF31F5800234146AD
:101C20009C4800F001FDA546A9F102093CE06FF0D7
:101C30000045C5E72B46082D01DD786988610C2B2E
:101C400001DDC1F81CB001F12003002009E000F122
:101C5000300C07F1280EF4441CF830CC03F801CB0B
:101C600001300128F3D9B7E76FF01B03B7E7012371
:101C70008EE7D7F8803013F0020F15D000232246EC
:101C80001946B86910F0A2FDD7F8843053B13B690A
:101C9000D7F88820934205D2D7F8842022F8130081
:101CA00001333B61013881440AF1010A35467B6A00
:101CB0009A4510D22E4616F802BB6B78FA6952F894
:101CC0002340754B9C42FFF455AF744B9C42FFF48C
:101CD00062AF00254FE74C4612E707F144000023AE
:101CE000FB6118B14A46294618F074F94D444FF08B
:101CF0000008C7F804901EE00020F8610646F0E7EF
:101D0000FE6107F134000026EBE700253B6A33BB98
:101D1000002D3BD0D7F8803013F0010F26D0731C74
:101D200006F1300207F12801561806F8149CDEB2BD
:101D300008F1010825467B6A98454AD22C4614F8DA
:101D400002AB95F801905BF82930534A9342DCD3FB
:101D5000524A934201D30025D8E70125D6E75146E0
:101D6000786910F079FD0028D2D0E1E7D7F880300B
:101D700013F0040FDCD0FA69531C303207F128014C
:101D80000A4402F8249CDBB2FB61D1E7D7F880302B
:101D900013F0020F09D0731C06F1300207F128017D
:101DA000561806F8149CDEB2C2E7F869431C00F12D
:101DB000300107F128028A1802F824AC02460232E8
:101DC000D2B2FA6107F1580252FA83F303F8249C65
:101DD000AEE7D7F804909BF8003087F854309BF8B2
:101DE0000130334487F85530D7F8803013F0020FB4
:101DF0000ED1FB69C3F3470387F85730D7F880301B
:101E000013F0010F06D113F0040F3FD1002302E0BD
:101E10000023F1E7002387F85630DBF80000386331
:101E2000786DCBF80000D7F810804246B968584664
:101E3000D7F818A0D047041EFFF662AE386BCBF877
:101E40000000C7F810804246F96907F13400D04716
:101E5000002856DB04EB0008B96849447B6A01EBB3
:101E60004301D7F810904A46FB68591A2846D047D4
:101E7000041EFFF645AE08EB04054FF000087E6235
:101E8000C7F820B05646D7F884B01EE0FB69C2E719
:101E90009CAD010880A4010824A0010810DD010800
:101EA0004FF0000A4A46012107F12C00B0470028F4
:101EB00029DB0544534622464946304610F086FC4D
:101EC000002822DB054408F101087B6A984511D2FD
:101ED00008F1300307F12802134413F8143C87F883
:101EE0002C303A6A52F82340BBF1000FD8D03BF8AF
:101EF00018A0D7E73A6900210846BB6998472C46E5
:101F0000FEE50446FCE50446FAE50446F8E500BFB4
:101F1000014B1860704700BF9001002080B5054656
:101F20000E46174698460FF04BFA034618F070F825
:101F30000446DFF8189049F80030424639463046EA
:101F4000A84754F8090001F07FFF00BF0800000017
:101F5000064B074A1A60074AD2F8803023F007037D
:101F600043F00403C2F8803000207047E8020020EC
:101F700000093D0000040058034A536823F002039F
:101F800053600020704700BF002004E038B50546CC
:101F90000B4C00E010340B4B9C420FD263685B7912
:101FA000002BF7D02946204610F0A7FF0028F1D0DB
:101FB00023681B68294620469847EBE738BD00BFD9
:101FC000D8A40108E8A4010870B506460D46084CDF
:101FD00004E02A463146204698471034054B9C427F
:101FE00004D223689B69002BF3D1F6E770BD00BFD4
:101FF000D8A40108E8A4010808B517F0F6FC0022EF
:10200000431819D213440D4AA2FB03CE2EF0030C41
:102010000CEB9E0CA3EB0C03C01A61F100014FF016
:10202000CC3300FB03F302FB0133A0FB0202134499
:10203000400840EAC37008BD0122E3E7CDCCCCCC18
:102040002DE9F041074605460AE007EA0807144B68
:1020500003EB06135B6804221968204600F0B6FA09
:10206000D5B195FAA5F6B6FA86F60D4C04EB061432
:102070000123B3406FEA030825EA0305237B002B05
:10208000EED03301064AD3581B69002BDDD0204621
:1020900098470028E4D1D8E73846BDE8F08100BF72
:1020A000D8A401082DE9F04180460F46204BBFF32C
:1020B0005B8F53E8005F6A1C43E800210029F8D1D8
:1020C000BFF35B8F002D2FD11A4C002607E0636809
:1020D00004221968204600F079FA01361034164BB4
:1020E0009C4213D2237B002BF8D02368DB680BB112
:1020F0002046984723681B69002BE8D02046984764
:102100000028E4D00123B3401D43E6E7B8F1000FF7
:102110000BD055B12846FFF793FF0546002FF8D0A6
:102120000A2010F0ECFEF4E700252846BDE8F08117
:1021300038160020D8A40108E8A4010808B5064B09
:10214000186018B1054B1B68092B00DC08BD04485A
:102150000FF08EF9FAE700BF2C160020341600208D
:102160000C04002008B502480FF082F908BD00BF3A
:102170000C04002030B589B000220F490F4817F039
:10218000A4FC0F4D00220023CDE906230024049473
:102190000E2303930294019400940A4B4FF440726F
:1021A0000949284616F035FF084928460EF01CFD5F
:1021B000204609B030BD00BF65210008B00B0020EB
:1021C000F006002025250008401C002058AE01081C
:1021D000014B53F82000704774AE010848B108B5B0
:1021E000054A1060054B1960084600F0D1FC00203C
:1021F00008BD6FF0150070479401002028160020DC
:1022000008B5054B1B781BB1034B01221A7008BDA2
:1022100002480FF02DF9F7E7F61B00200C04002010
:102220000D4BBFF35B8F53E8001F013143E80012F1
:10223000002AF8D1BFF35B8F00B97047074BBFF39B
:102240005B8F53E8001F013943E80012002AF8D1E0
:10225000BFF35B8FF1E700BF30160020341600207B
:10226000064B00200146BFF35B8F53E8000F43E8A5
:102270000012002AF9D1BFF35B8F7047301600209F
:1022800038B5FFF7EDFF0546094C00E01034094B67
:102290009C420BD263685B79002BF7D023685B68A4
:1022A000002BF3D0294620469847EFE738BD00BF02
:1022B000D8A40108E8A40108034B18680028D4BF7B
:1022C00000200120704700BF3016002010B5044CDC
:1022D0000449204610F060FC034B1C6010BD00BF99
:1022E0001403002060AE01082416002008B5002366
:1022F000064A1370064A1360064A13604FF47A7157
:102300000548FFF76BFFFFF7E1FF08BDF71B002053
:102310003016002034160020F91F000808B50146C9
:10232000014810F0FCFD08BD1403002008B5024868
:1023300010F016FD08BD00BF1403002008B50146CB
:10234000024B186810F0F1FD08BD00BF24160020F4
:1023500008B5024810F0EDFD08BD00BF14030020D1
:1023600010B582B000220023CDE900232C4B187851
:1023700008B902B010BD684610F0F3FD044688B1FC
:10238000284BBFF35B8F53E8001F013943E800126D
:10239000002AF8D1BFF35B8F2046FFF7F7FD2046F8
:1023A000FFF7CCFFFFF788FF58B91F4A1368516841
:1023B00013F57A7341F1000113605160FFF7C8FF14
:1023C000D7E717F012FB0022431827D21344174A0D
:1023D000A2FB034C2CF0030404EB9C041B1BC01A4F
:1023E00061F100014FF0CC3300FB03F302FB01333A
:1023F000A0FB02021344400840EAC3705B080A498C
:102400000A684968801A63EB010340F2E93290429E
:1024100073F10003C9D3FFF733FFC6E70122D5E705
:10242000F61B002034160020A80B0020CDCCCCCC0D
:102430000F4B1B7803B1704710B500210120FFF747
:1024400031FE0C4C00E010340B4B9C4208D2636808
:102450005B79002BF7D023689B6820469847F2E70A
:10246000FFF77EFF0028FBD1014B01221A7010BD3F
:10247000F71B0020D8A40108E8A4010810B582B019
:102480001B4BBFF35B8F53E8002F511C43E8001038
:102490000028F8D1BFF35B8F164B1B7863B9164B3E
:1024A0001B68BBB1C2B1092A14D1144817F019FB3B
:1024B00013480EF0DDFF0DE04FF01003EFF3118431
:1024C00083F31288BFF36F8FFFF74AFF84F31188FD
:1024D000BFF36F8F02B010BD00220023CDE90023AF
:1024E00042F21072002305480FF062FBF2E700BFD2
:1024F00034160020F71B00202C160020B00B002003
:102500000C04002010B50446044B1B689847A060DB
:102510002146034810F029FD10BD00BF94010020A2
:10252000140300202DE9F04100210846FFF7BAFD11
:10253000804650B14FF4FA76002717F069FD154B2D
:102540001858FFF7FBFD002515E04FF0FF364FF060
:10255000FF37F2E74046FFF773FD804670B94FF052
:10256000FF364FF0FF3709E02C4632463B460A481B
:102570000EF0A6FF2546B8F1000FEBD1FFF7F0FEF5
:1025800004460028F6D1002DEED000210846FFF7C2
:102590001BFDEAE7080000000C0400200248034B82
:1025A000C01AC008704700BFD8A4010800A40108E1
:1025B00010B50C46FFF7F2FFA04203D9024B53F8C7
:1025C000340010BD0020FCE700A4010808B5094B49
:1025D000C31A1B110133D0F804C08CF804304368CF
:1025E0009A7143681960436801225A71FFF708FE27
:1025F00008BD00BFD8A4010800B589B005920693B4
:102600000023079362B1074A0C9B02930B9B019333
:102610000A9B009305ABFFF721FA09B05DF804FBB4
:102620000022F1E77B2F01082DE9F04F8BB004AFBA
:1026300005461E468846C1F34A24002C00F08980D6
:1026400091460022FA603A617A6104230293FB18F2
:1026500001930A23009307F10C0321464846FFF734
:10266000FDF9B0F5006F58D3D9F804106D4600237A
:102670003B7302237B738AB004AC14F1100217D0B1
:1026800012201AB1042801DD3B4B636100233B702B
:1026900002237B70CAB10346082800DDA1610C2B20
:1026A00002DD40F2FF73E36104F1200300210AE040
:1026B0006FF00040E5E701F118063E4416F8186C8B
:1026C00003F8016B01310129F5D9112822DD12230C
:1026D00042B10421397300217973B9730121F9736F
:1026E000F868206100216FF300016FF341016FF37F
:1026F00082016FF3C501022060F38811C3F30A035E
:1027000063F353210023C1F313011C4810F093FC21
:10271000AD462DE06FF01B03DAE760F35328C0F3FA
:102720000A0A0AEB1850173020F007008008FFF75C
:10273000F5FD8346B0B104230293FB1801930A23ED
:102740000093534600F1100221464846FFF754FF1C
:1027500008E004EB1154173424F00704A008FFF735
:10276000DDFD8346334642462946584610F01BFCA1
:102770001C37BD46BDE8F08F94AE010890A4010857
:102780000EB400B582B0014603AB53F8042B01939D
:10279000034801F0E7FE02B05DF804EB03B07047B8
:1027A000A131010830B585B011F0440F05D01A4BA6
:1027B0001C6834B9002005B030BD1849FFF7E0FFB0
:1027C000F9E7174B1968B2FBF1F1B1FBF4FC154ABC
:1027D000A2FB0C32D20A4FF4616E0EFB12CE124BEA
:1027E000A3FB0E535B0904FB1C114FF47A7C0CFB1A
:1027F00001F1B1FBF4F504FB15110CFB01F1B1FB88
:10280000F4F102910195C3EB0311AEEB810100914C
:102810000649FFF7B5FFCEE740160020D4AE010809
:102820003C160020C5B3A29189888888E0AE0108D3
:1028300061B108B52AB1064A52F8232012B9054AF7
:1028400000E0044A0449FFF79BFF08BD704700BF42
:1028500080AF0108FCAE010834BC01082DE9F0414D
:1028600005461746069EDDF81C8081B900242EB16E
:10287000324611492846FFF783FF0444B8F1000FA0
:1028800014D06FB1099B042B13D00C4909E00C4BF9
:10289000099A53F822200B49FFF772FF0446E6E736
:1028A000064942462846FFF76BFF04442046BDE830
:1028B000F0810549F5E700BF18AF010808AF01082E
:1028C00094AF010810AF010804AF01082DE9F04FE3
:1028D00087B005460C46049205939DF84C7001F0B4
:1028E000020B01F0010AC1F3C00801F4807910F075
:1028F00042FB18B3024616492846FFF741FF064639
:10290000BBF1000F1CD13A465146284610F008FC96
:10291000B9F1000F01D0002311930397129B02938A
:10292000119B0193109B00930023049A4146284673
:10293000FFF794FF304407B0BDE8F08F0026DFE7D3
:10294000059A21462846FFF72DFF0644DBE700BF26
:102950001CAF010811F0100F0BD108B511F0200FBA
:1029600003D00449FFF70CFF08BD0349FFF708FF38
:10297000FAE77047E0A7010820AF01082DE9F04110
:1029800005460F46164698460699FFF7E3FF0024D2
:10299000444505DA24492846FFF7F2FE0134F7E7FB
:1029A000002409E020492846FFF7EAFE0BE01F4912
:1029B0002846FFF7E5FE01340F2C0CDC002C02DD6D
:1029C00014F0070FEED0B442F1D23A5D1849284610
:1029D000FFF7D6FEEFE717492846FFF7D1FE0024A0
:1029E00009E011492846FFF7CBFE0BE012492846C3
:1029F000FFF7C6FE01340F2C13DC002C02DD14F0AF
:102A0000070FEED0B44207D23A5D0C4B9B5C13F03B
:102A1000970FEBD12E22E9E703492846FFF7B0FED6
:102A2000E8E7BDE8F08100BF34AB01082CAF010836
:102A300024AF010830AF010834AF010801DC010800
:102A40002DE9F04184B004469DF82C500C9F0E9E59
:102A500095B9012B1ED019484FF0000827B13B460D
:102A6000224617490FF0C8FEC6B905BB204610F034
:102A70008AFB04B0BDE8F08103950A9802900193A7
:102A800000920B4600220F992046FFF71FFF804659
:102A90000C48E3E70B484FF00008DFE70F9B00937B
:102AA000434632460D99204610F052FBDDE72A4698
:102AB0000F99204610F040FBD8E700BFD93101083C
:102AC00065450008A13101082DE9F04387B00646AD
:102AD0000C469046D1F808900F88C7F38217087803
:102AE000C0F3C2004B6833B11249591A41F3CF0108
:102AF00000291ADA0023214651F8105BC5F34A2554
:102B00006288C2F30B12481905B90021CDF8148070
:102B100004920390029101970022009249463046A8
:102B2000FFF78EFF07B0BDE8F083FFF741FD0346D6
:102B3000E1E700BF00A4010870B582B00446056853
:102B400042F20F738B4228BF0B460E4A052168469E
:102B50000FF014F9064663685B680B220A492846A1
:102B600010F0D1FA63685B6832466946284610F077
:102B7000CAFA63685B681B220449284610F0C3FA4E
:102B800002B070BD8CD6010854AF010838AF0108FF
:102B9000074B01221A6004E04008054A13685B00F5
:102BA0001360044B9842F7D8034B1860704700BF7E
:102BB0003C16002040420F004016002070B506462B
:102BC0000D46002405E0315D044883685B68984742
:102BD0000134AC42F7D3284670BD00BF9CA1010868
:102BE000014B036000207047FCAF010810B5064C94
:102BF000636843F400236360044B1B6898474FF4F9
:102C00000023A36010BD00BF000C00587416002004
:102C100082B04FF0B043D3F8502142F48012C3F891
:102C20005021D3F8503103F480130193019B0A4BD8
:102C30001A6A42F400721A62D3F8D42042F4007285
:102C4000C3F8D42040BF20BF044AD36843F40043F4
:102C5000D36002B0704700BF00080058000400585D
:102C600000B583B04FF0B0431A6D42F480121A657C
:102C70001B6D03F480130193019B094B1A6842F00A
:102C800001021A601A6842F480321A602C2016F091
:102C9000ABF82D2016F0A8F803B05DF804FB00BFD8
:102CA000000C0058024A536823F001035360704738
:102CB000000C0058024B4FF480329A60704700BFFE
:102CC000000C0058044B4FF400129A605A6822F42A
:102CD00000125A60704700BF000C005808B5044A43
:102CE000536843F40013536000F02CFA08BD00BF92
:102CF000000C005808B500F001FA024B01229A605E
:102D000008BD00BF000C0058024A536823F00203BC
:102D100053607047000C0058044B4FF400329A6027
:102D20005A6822F400325A60704700BF000C005805
:102D300008B5044A536843F40033536000F036FA90
:102D400008BD00BF000C005808B5144BDB6813F039
:102D5000020F04D1114B5B6813F4003F14D00F4BEA
:102D6000DB6813F0080F04D10C4B5B6813F4002FE1
:102D70000DD00A4BDB6813F0200F04D1074B5B68C2
:102D800013F4001F06D008BDFFF7D2FFFBE7FFF7E3
:102D90002DFFF8E7FFF7A2FFF5E700BF000C005892
:102DA00008B500F011FA024B02229A6008BD00BF7C
:102DB000000C005808B5094BDB6813F0080F05D16B
:102DC0008047064B4FF400229A6008BD044B186000
:102DD000024A536823F400235360F6E7000C0058BE
:102DE0007416002008B500F039FA024B08229A60E8
:102DF00008BD00BF000C005808B5144BDB6913F088
:102E0000020F0AD1114BDB6913F0010F0DD10F4BEB
:102E1000DB6913F0080F10D108BD0C4B5B6813F091
:102E2000020FEFD1FFF7BCFFF6E7084B5B6813F02A
:102E3000010FECD1FFF75EFFEEE7044B5B6813F088
:102E4000080FE9D1FFF7CEFFE6E700BF000C0058FE
:102E500008B538B9084B1B6803B19847074B0022E7
:102E60001A7008BD054B01221A70034B1B68002B1A
:102E7000F7D010469847F4E778160020FA1B002098
:102E800010B584B004460B4B18600B4810F000FAE4
:102E90000120FFF7DDFF094B01221A70084B1B6868
:102EA00033B10394074A0192074A029201A8984756
:102EB00004B010BD9C160020A0160020F91B0020B5
:102EC0007C16002087320108CD2E000810B501467F
:102ED000034C204610F0F7F9204615F0D5FA10BD46
:102EE000A016002010B50C464A68054B1A60054B29
:102EF000D861184600F07CF82068FFF7C1FF10BDCC
:102F0000781600207C16002000B585B01B4810F014
:102F1000C2F910B91A4B1B784BB9184810F0BBF91D
:102F200010B9174B1B7823BB05B05DF804FB03A950
:102F3000124810F0E0F9134BDB698BB1039A02924F
:102F400001228DF8042001A898479DF804200C4B1D
:102F50001A700B4B1B783BB1039800F071F9DCE75A
:102F6000074B01221A70F4E70399044810F09FF907
:102F7000D3E7024815F088FAD6E700BFA016002074
:102F8000F91B00207C1600202DE9F04107460C4675
:102F900016461D460020FFF75BFFDFF84880D8F893
:102FA0000000A0F80970C472224631460C3017F0B8
:102FB00011F801240C4B1C700C4B1B6900210846B6
:102FC000984748F2E8000CF0CDF9D8F800108A785C
:102FD000033205F1080016F0FDFF2046FFF738FF29
:102FE000BDE8F0819C160020F81B00207C16002014
:102FF000024B0360024B0361704700BF553100086C
:103000009131000800B583B009E001A9084810F02B
:1030100072F9084B1B690199186910F054F90448BA
:1030200010F039F90028F0D003B05DF804FB00BFC0
:10303000BC1600200000032008B50C4B0C4A1A6097
:103040000C4A5A600C4A9A600C4A1A620C4A5A623C
:103050000C4ADA600C4A1A610C4A5A610C4A9A61AD
:103060000C4ADA61FFF7FCFD08BD00BF0000032039
:10307000B8000320A800032098000320900003203C
:1030800088000320800003206400032060000320E8
:10309000540003204800032038B504460B4D284651
:1030A00010F0F6F80A4B5B68A2681A60E268DA6012
:1030B000084A5A609D60FFF7F5FD2268064B1A60CA
:1030C0006268064B1A60002038BD00BF3000032044
:1030D00000000320E4010320B8160020B4160020ED
:1030E00008B5054B5A681268012111725B68FFF739
:1030F000E1FD002008BD00BF0000032000B583B043
:1031000007E001A9074810F0F6F8074B1B68019883
:103110009847044810F0BFF80028F2D003B05DF8DB
:1031200004FB00BF30000320B816002008B5044B94
:103130005B68DB6802221A72FFF7C4FD002008BD3D
:103140000000032008B5024B1B68984708BD00BF6C
:10315000B416002038B50446094D284610F098F8FA
:10316000084BDB68A2681A605D60FFF7CDFD22683E
:10317000054B1A606268054B1A60002038BD00BF1D
:103180002800032000000320B0160020AC16002009
:1031900008B5054BDA68126810211172DB68FFF779
:1031A000BBFD002008BD00BF0000032008B5044B94
:1031B000DA68DA68034B1B681068984708BD00BFDF
:1031C00000000320B016002000B583B007E001A97D
:1031D000074810F090F8074B1B680198984704487F
:1031E00010F059F80028F2D003B05DF804FB00BFDE
:1031F00028000320AC16002038B504460C4D2846A4
:1032000010F046F80B4810F043F80B4B1B690B4AC3
:103210001360A2689A60E268DA601D6122681A6031
:1032200062685A6022695A6162699A6138BD00BF5A
:1032300040000320BC16002000000320A816002038
:1032400008B50146034810F03EF80348FFF7B2FD09
:1032500008BD00BFBC1600200530000800B583B0D3
:1032600006E001A9064810F046F8019810F053F85E
:10327000034810F010F80028F3D003B05DF804FB09
:103280003800032070B48DB006460D460DF1040CD5
:103290002B4C0FCCACE80F000FCCACE80F0094E83F
:1032A00007008CE80700002E45D03046002D44D0A2
:1032B00000230FE015F8234005EB83014A78120440
:1032C00042EA04628C7842EA0422C9780A4340F850
:1032D00023200133032BEDD906E0191F50F82110EC
:1032E0004A4040F8232001332B2B20D85A1E50F897
:1032F000222013F0030FF0D14FEA3262110E114C6D
:10330000655CC2F30741615C090441EA0561C2F3EF
:103310000725655D41EA0521D2B2A25C114323F085
:10332000030230326A4452F82C2C4A40D5E701207F
:103330000DB070BC70470020FAE70020F8E700BF2E
:10334000A8A5010814B0010800284ED070B584B0BB
:103350001546064600294AD0002A4AD010230A46BC
:10336000194668460FF0D8FF294668460FF0EEFF71
:10337000002414E01DF803101F48415C0DF80310F1
:1033800001330F2BF6D9684610F021F8684610F08B
:1033900098F8013405EB041168460FF0D7FF082CAC
:1033A00001D80023EDE7002306E01DF803201249B1
:1033B0008A5C0DF8032001330F2BF6D9684610F014
:1033C00006F8611C05EB011168460FF0BFFF1023E2
:1033D0006A46194630460FF09FFF102200216846CA
:1033E0000FF0A7FF012004B070BD0020704700203F
:1033F000F9E70020F7E700BF14B001082DE9F04F0E
:1034000095B003910568D0F804808768D0F80CB0B7
:103410000469D0F814A0D0F81890D0F81CC0002689
:10342000CDF804B0E346029030E003A810F074F940
:1034300014AB03EB860343F8400C4FEAF42383EA12
:10344000B41383EA74635B4404EA0A0229EA0401C0
:103450004A4013444E4A52F82620134418444FEA77
:10346000753383EAB50383EAB55388EA07022A4035
:1034700008EA07014A4013440136CB46D146A2462A
:10348000019C044401974746A846C5180F2ECCD985
:10349000DC46DDF804B03F2E5ED806F1010E0EF0DA
:1034A0000F0314AA02EB830353F8402C4FEAB243F4
:1034B00083EAF21383EAD20306F10E0202F00F024E
:1034C00014A901EB820252F8401C4FEAF14282EA51
:1034D000714282EA912206F00F0114A800EB8101EB
:1034E00051F8400C0190134406F1090202F00F025A
:1034F00014A800EB820252F8402C1344019A1344A2
:1035000041F8403C4FEAF42282EAB41282EA746243
:10351000624404EA0A0129EA040041400A441C49C1
:1035200051F826100A4413444FEA753282EAB50274
:1035300082EAB55188EA07022A4008EA07004240B9
:103540000A447646CC46D146A2460BEB0304BB4662
:103550004746A8469D189EE7029803682B440360DF
:1035600043684344436083683B448360C3685B446F
:10357000C36003692344036143695344436183691E
:103580004B448361C3696344C36115B0BDE8F08FE8
:1035900014B10108E0B110B50446702200210FF00B
:1035A000C8FE0C4B23600C4B63600C4BA3600C4BB0
:1035B000E3600C4B23610C4B63610C4BA36103F183
:1035C0007453A3F52303A3F69243E361012010BDD6
:1035D0000020704767E6096A85AE67BB72F36E3CF0
:1035E0003AF54FA57F520E518C68059BABD9831FCE
:1035F0002DE9F04182B000AF0446D0F800E0D0F8E9
:1036000004C085686E468AB06B4613F1100200F064
:10361000888014218AB10846042903DDDFF81C8163
:10362000C3F81480082801DDC3F818E00C2801DD78
:10363000C3F81CC0102800DD1D62132974DD142599
:103640003AB10521397100217971B971F971786840
:10365000186100216FF300016FF341016FF38201E4
:103660006FF3C501012363F38811C5F30A0565F300
:1036700053216FF31F5100233148FEF7D5FFB546A4
:10368000D4F80CC026696569E8468AB06B4613F128
:1036900010024CD0142182B10846042903DDDFF862
:1036A000A4E0C3F814E0082801DDC3F818C00C2812
:1036B00000DDDE61102800DD1D6213293ADD1425CE
:1036C0003AB10521397100217971B971F9717868C0
:1036D000186100216FF300016FF341016FF3820164
:1036E0006FF3C501012666F38811C5F30A0565F37A
:1036F00053216FF31F51124D00232846FEF794FF0C
:10370000C546E369104A314628460FF0A2FCA3697A
:103710000E4A314628460FF09CFC0837BD46BDE8EE
:10372000F0816FF0004175E76FF01B0588E76FF0DF
:103730000041B0E76FF01B05C2E700BF14B20108FB
:10374000C0A4010844B2010874B2010884B201089F
:1037500030BFFFF7FDBF00BF38B50446084D2A460D
:10376000084916F037FC0848431E2B44B3FBF0F31E
:10377000064A002100FB034016F03AFC38BD00BFAA
:10378000000000002CA5010801000000040000005A
:1037900070B505460C480D4A0244013AB2FBF0F2FE
:1037A0000B4B0C4C1C44013CB4FBF3F404FB03F343
:1037B00000FB02340E1B3046FFF7CEFF083EC5F873
:1037C000A86004F1080070BD0100000000000000C6
:1037D0000400000004000000044B99685869884206
:1037E00003D003494FF080520A607047B01B00209D
:1037F00004ED00E081690D4B5A6942F480725A6110
:10380000BFF34F8FBFF36F8F31F8021C5A6922F458
:1038100080725A61BFF34F8FBFF36F8F4DF6027303
:10382000994201D0002070470120704700ED00E070
:103830004FF0000C83F800C002F07F4CBCF17F4FCA
:1038400014D102F00C0CBCF1080F04D012F0080FD8
:1038500009D00846704708B5054A012105480FF010
:10386000EEFB002008BD01221A707047002070474F
:10387000B4B20108C0A4010808B52B4A01212B48A5
:103880000FF0DDFB2A4B9B6A13F0007F21D11D2036
:10389000274B9B6A13F0807F22D1254B9B6A13F440
:1038A000002F24D1224B9B6A13F4802F26D1204B6A
:1038B0009B6A13F4003F28D11D4B9B6A13F4803F91
:1038C0002AD11B4A936A6FEA03436FEA1343936258
:1038D00008BD184A012115480FF0B1FB1E20D7E79B
:1038E000154A012111480FF0AAFB1F20D5E7134A02
:1038F00001210E480FF0A3FB2120D3E7104A01213C
:103900000A480FF09CFB2220D1E70E4A012107480C
:103910000FF095FB2320CFE70B4A012103480FF05E
:103920008EFB2420CDE700BFE0B20108C0A401084F
:1039300000ED00E0F8B201080CB3010828B301085B
:1039400048B3010870B301088CB3010808B500231F
:103950000B70034A012103480FF071FB08BD00BF43
:10396000B8B30108C0A4010890B583B000AF0F2917
:1039700023DC2F4C103900233B7102237B718AB06A
:10398000EC461CF110021AD0122022B1042802DDEC
:10399000284BCCF8143000233B7002237B70E2B13B
:1039A0000346082801DDCCF818400C2B01DDCCF8CB
:1039B0001C100CF1200300210DE01F4CDAE76FF022
:1039C0000040E2E701F1080404EB070E1EF808ECE2
:1039D00003F801EB01310129F4D9112824DD122368
:1039E0004AB10421397100217971B9710121F9714C
:1039F0007868CCF8100000216FF300016FF34101EB
:103A00006FF382016FF3C501012060F38811C3F3E6
:103A10000A0363F353216FF31F5100230748FEF796
:103A200003FE0C37BD4690BD6FF01B03D8E700BF07
:103A3000DCB3010810B40108F4B30108C0A4010804
:103A4000F8B505460F461446374A012137480FF0AE
:103A5000F6FA374B9B6A13F4805F25D11626344B58
:103A60009B6A13F4006F26D1314B9B6A13F4007FDD
:103A700028D12F4B9B6A13F4806F3FD12C4B9B6A4C
:103A800013F4807F41D12A4B9B6A13F4005F43D12A
:103A9000274A936A43F47F4393620121284610F03A
:103AA000C1F820703046F8BD224A01211F480FF0AE
:103AB000C6FA1726D3E7204A01211C480FF0BFFAA7
:103AC0001826D1E71D4A012118480FF0B8FA184A04
:103AD000936B926A12F4004F01D11926C9E7184A74
:103AE000012112480FF0B5FA37B1114A936A23F455
:103AF000004393621926BCE71926BAE7114A01214F
:103B00000A480FF09CFA1A26B8E70F4A0121074825
:103B10000FF095FA1B26BBE70C4A012103480FF072
:103B20008EFA1C26B4E700BF24B40108C0A4010823
:103B300000ED00E03CB4010850B4010864B4010891
:103B400080B4010898B40108B4B40108CCB40108E9
:103B50002DE9F04104460F461546464A01214648E4
:103B60000FF06DFA454B9B6A13F0100F3CD11026F5
:103B7000424B9B6A13F0080F3DD1404B9B6A13F0F8
:103B8000020F3FD16FF015083C4B9B6A13F0010FF9
:103B900058D13A4B9B6A13F0200F5AD1374B9B6A8E
:103BA00013F0100F04D1354B9B6A13F0020F04D0B1
:103BB000324B5B6813F4006F52D1304B9B6A13F0A9
:103BC000200F04D02D4A536A23F4005353622B4A2A
:103BD000936A43F0FF0393620121204610F022F81C
:103BE00028703046BDE8F081254A012122480FF0B7
:103BF00026FA1126BCE7234A01211F480FF01FFABD
:103C00001226BAE7204A01211B480FF018FA1B4B75
:103C1000D3F834809B6A13F0800F03D16FF015083E
:103C20001326B1E74346194A012113480FF011FA50
:103C300037B1124A936A23F0800393621326A3E7F5
:103C40001326A1E7124A01210B480FF0F8F91426B8
:103C50009FE7104A012108480FF0F1F915269DE76A
:103C60002146404600F0D0F90028A6D080F309880C
:103C70000226A2E7FCB40108C0A4010800ED00E0A0
:103C800014B5010850B4010848B5010860B5010831
:103C900078B50108CCB4010870B506460D462B4A2C
:103CA00001212B480FF0CBF900232B70294BDC6A44
:103CB00014F002040AD1274BDB6A002B0DDB254BE5
:103CC000DC6A14F080440ED1204670BD224A0121E6
:103CD0001F480FF0B4F90024F6E7204A01211C48E0
:103CE0000FF0ADF9F0E71E4A012119480FF0A7F9CE
:103CF0003046FFF77FFD98B9164B9B6A13F0FF0F14
:103D000016D1144B9C6A14F47F4418D1114B9B6A52
:103D1000B3F5803FD8D33046FFF7AEFD0446D3E776
:103D20003368104A01210A480FF093F93468CBE751
:103D30002A4601213046FFF70BFF0446C4E72A4616
:103D400001213046FFF77CFE0446BDE798B5010827
:103D5000C0A4010800ED00E0B0B50108D4B5010829
:103D6000E4B5010804B6010830B58BB01F4B5D689F
:103D7000C5F30805002383F31188BFF36F8F0DF19E
:103D80002603FFF755FD04460DF1270229460FF0E3
:103D90004BFF9DF827300BB10BB030BD05460DF140
:103DA000040C20686168A268E368ACE80F00206931
:103DB0006169A269E369ACE80F009DF826304BB158
:103DC000089BC3F308025AB96FEA53236FEA4323EF
:103DD000089305E0089B23F4FF7323F00103089385
:103DE00001A928460FF006FFD6E700BF00ED00E06E
:103DF000024A536943F010035361704700ED00E03D
:103E0000EFF30880EFF3098101B57246FFF7ACFFCD
:103E100001BD00BF00200A490870102080F31188FE
:103E200008484FF40461401880F30988EFF31480C8
:103E30000221084380F31488BFF36F8F00F09EF8CF
:103E4000021C0020002F002008B50A4B9B6883420B
:103E500002D015F076FA08BDEFF30583002BF8D0F9
:103E6000054B5A6842F080525A605A6A22F4004266
:103E70005A62EEE7B01B002000ED00E00A4A9368AA
:103E8000C3F8AC006FF00A01C3F8B01007494B68E3
:103E900043F080534B60002383F31188BFF36F8F8F
:103EA0009368D3F8B0007047B01B002000ED00E02D
:103EB00016498A684FF030001044EFF3098C80E80F
:103EC000F01F102080F31288BFF36F8F104F4FF058
:103ED00000664A698A603E604FF0A80414192068A1
:103EE0000C4C2060D2F8AC000023C2F8AC3080F358
:103EF000118804B5104600F04BF9BDE8044002F10A
:103F0000300090E8F01F8CF309887047B01B002048
:103F100004ED00E0C41600201EF0040F0CBFEFF308
:103F20000880EFF30980816911F8021C0229FFD093
:103F300001B50FF06BFE01BD002807DB00F01F028A
:103F4000400901239340024A42F82030704700BFE5
:103F500000E100E0002808DB0901C9B200F160407F
:103F600000F5614080F80013704700F00F00090170
:103F7000C9B2014B1954704714ED00E008B50F4B5E
:103F80000F4A22F07F029A60BFF34F8FBFF36F8F0B
:103F9000D3F8882022F47002C3F88820EFF314834A
:103FA00023F0040383F31488BFF36F8F0CF0F2FC4B
:103FB0000DF03EFC00F07CF80CF058FD00ED00E048
:103FC0000000000810B4A2F120040E4942F8081CB9
:103FD00021F0010142F8081C42F8203C019B42F804
:103FE0001C3C029B42F8183C039B42F8143C4FF0E7
:103FF000807342F8043C04650023C0F8AC3010BC68
:10400000704700BF1D1F0008104B9B68BBB110F12B
:10401000160F0BD0D3F89820A2F1400C844510D88D
:10402000824210D98A4207D800207047D3F89820DE
:104030008A4201D800207047D3F8980070470020CA
:104040007047002070470020704700BFB01B002061
:1040500008B50D4614460A4A9060D0F8A820094BCE
:104060001A6000F095F8204685F30988002163B6B0
:1040700081F31188BFF36F8F00220023FDF74EFFFD
:10408000B01B0020C4160020014910220A607047AE
:1040900010ED00E072B6404080F31188BFF36F8FDF
:1040A000BFF34F8F30BF62B6BFF36F8F704700BF53
:1040B000002206E003F00F030949194410230B7690
:1040C00001323E2A0ADC53B2002BF3DB03F16043DA
:1040D00003F56143102183F80013F1E7704700BF37
:1040E000FCEC00E001B5EFF30580A0F110004FEA11
:1040F000C0000449014409C99847BDE8014002498C
:1041000008470000B0A10108D9370008074AD2F8D3
:10411000FC3043F08073C2F8FC30054B00225A603B
:104120001A6842F001021A60704700BF00ED00E01B
:10413000001000E0034B00225A601A6842F00102AE
:104140001A607047001000E0014B5868002170476A
:10415000001000E001480021704700BF0048E8015E
:1041600008B5FFF7F7FF024A0023FBF7E9FF08BD98
:1041700040420F0008B5034B034A012103480FF0EA
:10418000DFFD08BD000003200000002020B601086C
:1041900008B5D0F89830403B0448036040234360A2
:1041A000034B836001210FF0CFFD08BDC81600202E
:1041B00000000B15084AC2F898000B6823F01F0393
:1041C000034343F01003C2F89C308B6843F00103B3
:1041D000C2F8A030704700BF00ED00E010B5044603
:1041E0000A4BD3F89030C3F30723013B984203D81E
:1041F000FFF7E0FF204610BD0346054A01210548B0
:104200000EF027FF6FF01500F5E700BF00ED00E0AE
:1042100030B60108A8A401082DE9F04780460F46F2
:104220009A461646002409E02946F0B20FF069FDCF
:10423000064610F1160F1AD001360134BC4216DAC8
:1042400004EB440508EB85056A68002AF5D0BAF14D
:10425000000FE9D028460FF043FD0028E4D12346A3
:10426000044A012104480EF0F4FE6FF015063046B2
:10427000BDE8F08758B60108A8A4010810B5034CA2
:1042800001232278FFF7C8FF207010BDFB1B002020
:1042900008B500230B4A1278FFF7BEFF10F1160F86
:1042A0000FD0024606E0084BC3F898200021C3F85F
:1042B000A0100132044BD3F89030C3F3072393428C
:1042C000F1DC08BDFB1B002000ED00E0F0B585B07F
:1042D000054603A8FEF784FC0646002425E0B3F556
:1042E000801F40F0C680576809589368202B64D916
:1042F000B3F1004F63D8013BB3FA83F3C3F11F035B
:104300005B0003F03E0343F0885343F430230097EF
:104310000191029369462878FFF760FF0028C0F2F8
:10432000AD802B7801332B700134B44280F0AA8029
:104330002001039901EB0412D3681B0D1B05B3F593
:10434000000F5ED01DD8B3F5001F3AD0B3F5800F33
:10435000C5D1576809589368202B4ED9B3F1004F47
:104360004DD8013BB3FA83F3C3F11F035B0003F0A5
:104370003E0343F0E06343F400330097019102935E
:10438000C8E7B3F1807F56D0B3F1007F71D1576891
:1043900009589368202B68D9B3F1004F67D8013BC7
:1043A000B3FA83F3C3F11F035B0003F03E0343F44E
:1043B0008023009701910293ACE70823A3E73E23F3
:1043C000A1E7576809589368202B12D9B3F1004F21
:1043D00011D8013BB3FA83F3C3F11F035B0003F071
:1043E0003E0343F0885343F4002300970191029366
:1043F00090E70823F5E73E23F3E70823B9E73E23D8
:10440000B7E7576809589368202B10D9B3F1004FCC
:104410000FD8013BB3FA83F3C3F11F035B0003F032
:104420003E0343F0827300970191029372E70823E1
:10443000F7E73E23F5E7576809589368202B10D912
:10444000B3F1004F0FD8013BB3FA83F3C3F11F035D
:104450005B0003F03E0343F08873009701910293E1
:1044600058E70823F7E73E23F5E708239FE73E23B5
:104470009DE7054A012105480EF0E1FD6FF01500AA
:1044800005B0F0BD0020FBE77CB60108A8A4010838
:10449000044B0522C3F89420BFF34F8FBFF36F8FF7
:1044A000704700BF00ED00E0BFF35F8F024B0022BA
:1044B000C3F89420704700BF00ED00E038B51C4BF6
:1044C0001D681C4BD3F89030C3F307239D422BD8B3
:1044D000FFF7EAFF002409E0154B5B6804EB440199
:1044E00003EB81012046FFF765FE0134A542F3D8B6
:1044F00011480570FFF7EAFE10F1160F13D00E4BAE
:104500001A780C4BD3F89030C3F307239A4207DA9A
:10451000084BC3F898200021C3F8A0100132F0E73F
:10452000FFF7B6FF002038BD4FF0FF30FBE700BFBC
:10453000A0B6010800ED00E0FB1B002008B5024B0F
:104540001B689847002008BDD4160020034B186054
:10455000034A937843F0020393707047D416002007
:10456000A001002030B587B00D461146002400940C
:104570000194029403940494059402228DF802207D
:10458000044A0192049005951A4668460DF022FCF3
:1045900007B030BD513D010808B5064921F00701BB
:1045A000C1F1005202F5403203480EF0AAF8002093
:1045B00008BD00BF5F5C0020D8160020F0B58BB0AE
:1045C00004460D4616460378032B38D8DFE803F07F
:1045D00002212B311D4B93E803000790ADF820100A
:1045E000090C8DF8221063792279E178A078677838
:1045F0000DF11C0CCDF814C00497039002910192A8
:104600000093A379124A314628460DF0B7FB0BB050
:10461000F0BD104B93E803000790ADF82010090C93
:104620008DF82210DFE70C4A07AB07CA03C31A80D4
:10463000D9E70A4A07AB07CA03C31A80D3E7084A77
:104640000A2107A80DF09AFBCDE700BFD0A601080C
:10465000E0A60108D8A6010804A7010810A70108D0
:1046600020D40108402928BF402100238B421CD2BE
:1046700030B410F803C04FEA1C1C5A000D4D15F859
:104680000CC00D4C04F813C010F803C00CF00F0C54
:10469000013215F80C50A55401338B42E9D306487A
:1046A000002200F8132030BC70470348002200F8B5
:1046B00013207047E8B601080417002010B5034C1A
:1046C0001E222146FFF77AFF204610BDE416002087
:1046D00070B584B002AE002402940394084B029398
:1046E000084D284615F060F800960A234FF4A3629F
:1046F000054928460DF04EF8204604B070BD00BFB5
:1047000010B70108E80B0020801F002008B5014603
:10471000014815F06BF808BDE80B002010B586467F
:104720008C460378012B18D0022B32D003B110BD78
:10473000224C0FCCCCF80000CCF80410CCF80820A8
:10474000CCF80C3023788CF81030BEF802308CF89E
:104750000D301B0A8CF80E30E9E7184C0FCCCCF862
:104760000000CCF80410CCF80820CCF80C302378EA
:104770008CF81030DEF804308CF80D30C3F30722CB
:104780008CF80E201A0C8CF80F201B0E8CF81030B1
:10479000CDE70068DEF80410DEF80820DEF80C3003
:1047A000CCF80000CCF80410CCF80820CCF80C3081
:1047B0009EF810308CF81030B9E700BF1CB7010824
:1047C00038B50446054813F0B8FC054620B1012170
:1047D0000C3013F079FD2C76284638BD48050020B2
:1047E00010B513280ED091B10B4813F0A6FC044667
:1047F00034B1012104F10C0013F066FD012323768E
:10480000204610BD054813F098FC0446F0E701204F
:10481000FFF7D6FF0446F3E7C40400207405002028
:10482000002303B17047054A32F8132022B940F43F
:104830007042024921F813200133F2E78817002063
:1048400040F4704000230BB100207047064A32F854
:104850001320824201D00133F5E7034A002122F8F8
:1048600013100120704700BF88170020C2685178DC
:10487000074B83F824105188D984117983F82510C7
:10488000B2F807101985B2F805205A85704700BFA5
:1048900000000020C268034BD2F80100D2F80510D6
:1048A00003C370478800002030B5C46804F1010CD0
:1048B000094D4134AE46DCF80000DCF80410DCF8A9
:1048C0000820DCF80C30AEE80F000CF1100C754637
:1048D000A445EFD130BD00BF34000020C268034BB7
:1048E000D2F80100D2F8051003C370472C00002055
:1048F00008B5C06801300FF01EFB024BC3E924016C
:1049000008BD00BF00000020C3685A78014B83F83F
:10491000D02070470000002008B5C3681B789BB901
:1049200002F09CFD094BBFF35B8F1A68BFF35B8FEE
:1049300002F00902BFF35B8F53E8001F43E8002039
:104940000028F9D1BFF35B8F08BD00BF84000020B1
:1049500008B5C368B3F8012091B209B1D97801B99B
:1049600008BD0448A0F8B420D9780A46B83014F03D
:1049700003FEF5E70000002008B5C268074BB3F856
:10498000B43003B108BDB2F801300448A0F8B43027
:1049900091880A46B83014F0EFFDF3E700000020DC
:1049A00008B5C3681B78034A022103480EF051FB87
:1049B00008BD00BF68B7010840A4010830B583B046
:1049C000054608464FF0000C63451AD902EBCC01AE
:1049D00012F83C40AC4208D1038A4A78934207D38C
:1049E0004B689847002003B030BD0CF1010CEBE799
:1049F0000095054A012105480EF036FB6FF01500C1
:104A0000F1E76FF05E00EEE790B7010840A40108FF
:104A100038B50546002108460FF044FB68B104464E
:104A20000573002103F032FD0021201D0FF0E1FA93
:104A300048B9204610F070F838BD054A01210548F4
:104A40000EF0FDFAF8E70221204603F01FFDF0E723
:104A5000B4B7010840A4010870B5C468B4F8016097
:104A6000237803B170BD0F21304603F031FE0546B7
:104A700058B1E3780373002103F008FDAB78012BF4
:104A80000AD0284610F048F8ECE733460B4A0121DB
:104A90000B480EF0DEFAE5E70021281D0FF0A9FA19
:104AA00018B9284610F038F8DCE70221284603F050
:104AB000EDFC002002F0DCFCF3E700BFD4B70108F6
:104AC00040A4010810B5C3681C880121204603F0EA
:104AD000FFFD10B110F020F810BD2346024A01215D
:104AE00002480EF0B6FAF7E7FCB7010840A4010847
:104AF0002DE9F04383B000AFD0F80C8098F8004067
:104B0000A3000133018A8B4201D800269EE06E4645
:104B10008AB06D4615F110023BD0142092B1844644
:104B2000042803DDDFF85CE1C5F814E0BCF1080FF0
:104B300000DDAC61BCF10C0F00DDEB61BCF1100FCE
:104B400000DD2962132827DD14233AB105213971CC
:104B500000217971B971F9717868286100216FF3CA
:104B600000016FF341016FF382016FF3C501012072
:104B700060F38811C3F30A0363F353216FF31F51EA
:104B800000234148FDF750FDB5460C37BD46BDE852
:104B9000F0836FF00040C1E76FF01B03D5E7013BE6
:104BA000E36182F31188BFF36F8F204603F04AFA66
:104BB0000CF05EFC25E0A16182F31188BFF36F8FDA
:104BC000002B3AD04FF01001EFF3118281F31288DD
:104BD000BFF36F8FD968E1610021D9601960616A04
:104BE00000294BD00B60636282F31188BFF36F8F93
:104BF00004F128000CF0C6FD204603F023FA0CF067
:104C000037FCA94609F1FF35ADB2B9F1000F19D053
:104C10004FF01002EFF3118382F31288BFF36F8F0E
:104C20001A46E369002BBAD16369002BC4D0196816
:104C30006161A0699842BFD1BDE7144A01211248C1
:104C40000EF0FDF920460FF067FF013698F80030AE
:104C50009E429ADA08EB8603B3F80150B3F803904A
:104C60000F21284603F034FD04460028CAD12B4604
:104C7000074A012104480EF0ECF9E6E7636223627B
:104C8000B2E700BF20B8010840A4010868B80108D5
:104C90004CB8010800B970472DE9F04182B00E46CA
:104CA00015460746464B0022BFF35B8F53E8004F83
:104CB00043E800210029F9D1BFF35B8FA046002C07
:104CC00044D0204613F0B0F900EB40003D4B03EB1D
:104CD00080035B88BB4240D1AC420ED0204613F02B
:104CE000C2F90121217604F10C07384613F0ECFAE1
:104CF0002A8AE968384613F0F1FA204613F094F94D
:104D000000EB40002F4B03EB80035B680BB1002EE0
:104D100047D0204613F088F900EB4000294B03EB05
:104D200080039B68A3B3204613F07EF9254D00EB6A
:104D3000400005F82060204613F076F900EB4000B3
:104D400005EB8005A8680CF093FB21E03B461E4A6A
:104D500001211E480EF07DF91AE0204613F064F997
:104D600000EB4000174B03EB80035B8800933B464E
:104D7000174A012115480EF077F9114BBFF35B8FED
:104D800053E8008F43E80042002AF9D1BFF35B8F5C
:104D9000B8F1000F02D0404613F00BFA02B0BDE8A4
:104DA000F081204613F040F900EB4000054B03EB87
:104DB00080035B681A7A596818680FF093F9A8E7BE
:104DC000F00000208C17002080B8010840A40108E2
:104DD000A8B8010838B5C468B4F8015001212846C4
:104DE00003F076FC98B103462278BAB11A1DBFF3DE
:104DF0005B8F52E8000F40F4005042E800010029A8
:104E0000F7D1BFF35B8F18460FF086FE38BD2B46F7
:104E1000074A012107480EF01CF9F7E7D4F8031000
:104E2000D4F80720C0F8AC10C0F8B020DEE700BF0F
:104E3000FCB7010840A4010838B5044604210C3031
:104E400013F07EFA4578224601784088FFF722FF6A
:104E500005B938BD01480CF00BFBFAE7D80000207B
:104E600038B5044603210C3013F06AFA0578B0F81F
:104E70000100E368197840F63542904204D022469A
:104E8000FFF708FF3DB938BD0B46054A022105482A
:104E90000EF0DFF8F7E704480CF0EAFAF3E700BF9A
:104EA000DCB8010840A40108D800002008B50121A1
:104EB0000C3013F045FA0378024A012102480EF043
:104EC000C8F808BD14B9010840A401082DE9F04153
:104ED00082B000AF05460C46FFF770FD10F15F0F82
:104EE00003D00837BD46BDE8F081B4F810804146D4
:104EF000E068FFF7B7FB6E4602233B7104237B712A
:104F00008AB06C4614F110021CD04FF0160C62B13E
:104F10006346BCF1040F01DD25496161082B00DD0A
:104F2000A5610C2B01DDC4F81C8002233B70042317
:104F30007B70A2B1BCF1100F00DD206204F12403EC
:104F400000210AE06FF0004CE1E701F1080038446D
:104F500010F8080C03F8010B01310129F5D9BCF157
:104F6000150F22DD162342B1052139710021797117
:104F7000B9710121F9717868206100216FF3000196
:104F80006FF341016FF382016FF3C501022060F3FB
:104F90008811C3F30A0363F353216FF31F510023F6
:104FA0000448FDF741FBB5469BE76FF01B03DAE7CA
:104FB00038B9010840A4010838B50446038A012B1A
:104FC00014D902210C3013F0BBF9054600780EF01D
:104FD000CBFF10F0020F12D00623104A214628788A
:104FE000FFF774FF204613F0E4F838BD0C4A0121A6
:104FF0000C480EF02EF8204613F0DBF8F5E740F6EB
:10500000B523094A09490A480DF061FC404080F384
:1050100011884FF0030002DFDEE700BF48BE010841
:105020005CB9010840A4010878B90108B8B90108C1
:10503000E8B9010810B5044601210C3013F080F9DD
:105040000D23034A21460078FFF740FF10BD00BF43
:1050500078BE010808B50146074813F078F80749FB
:10506000074814F097FB031E00DB08BD054A012129
:1050700005480DF0EEFFF8E7F4000020EC010020F9
:10508000780D002008BA010840A4010870B582B06C
:105090000446038A032B18D904210C3013F050F96D
:1050A00042880088060BC0F30B006083FF23637601
:1050B000238A934213D00092164A012116480DF01C
:1050C000D3FF204613F075F807E0144A0121124877
:1050D0000DF0BFFF204613F06CF802B070BD0F2139
:1050E00003F0F6FA054658B103F034FB6076324619
:1050F000214628460FF0DDFC28460FF00DFDECE7B9
:10510000638B074A012104480DF0A3FF204613F0EA
:1051100050F8E2E74CBA010840A4010828BA010897
:1051200070BA010810B5144813F027F888B1044686
:10513000037E012B0ED0032B0FD1FFF7A7FF0F4BE0
:10514000D3F8F4302BB10E490E4814F023FB031EA4
:105150000CDB10BDFFF730FFF1E70B4A01210B48D4
:105160000DF077FF204613F024F8E8E7084A012104
:1051700006480DF06EFFECE7F40000200000002070
:10518000EC010020780D002094BA010840A4010829
:1051900008BA010870B582B0C468B4F80160012192
:1051A000304603F095FAC8B1054623781A2B1CD077
:1051B00023785BB9B4F80330A5F89E30B4F8053015
:1051C000A5F8A430B4F80730A5F8A630284603F0B7
:1051D000EBFA28460FF0A0FC02B070BD3346124A2D
:1051E000012112480DF035FFF6E7C378012BDFD11E
:1051F0000A2104300EF09BFF0028D9D1B5F8A03069
:10520000ADF80030B5F8A230ADF80230B5F8A830EE
:10521000ADF80430B5F8AA30ADF806306946284636
:105220000FF012FFD5E700BFFCB7010840A401084A
:1052300010B50C460A604B609DF808300B7212F0F6
:10524000F3FE00EB4000024B03EB80035C6010BDFB
:105250008C1700202DE9F84306460F464FF0FF3229
:105260004FF0FF33184812F068FF044600F10C09B4
:105270000121484613F028F84FF0000884F8188000
:10528000204612F0D1FE114D00EB400005EB8000EE
:105290004680204612F0C8FE00EB400005EB80037C
:1052A000C3F80880204612F0BFFE00EB400005EB7B
:1052B0008005C5F804800321484613F009F80680EC
:1052C00087702046BDE8F8831C0500208C1700205D
:1052D000F0B589B0074615460C4659B302AE012217
:1052E0000021304614F048F9204612F09DFE00EBF4
:1052F00040002E4B03EB80039E60204612F073FFAC
:1053000001462B4812F051FF2A4A002330460CF088
:10531000D7F80646B0B9204612F086FE00EB4000F2
:10532000224B13F8206006BB002D34D02C600020E7
:1053300009B0F0BDFFF78EFF04460028CED16FF014
:105340006800F5E740F24B131B4A1C491C480DF05E
:10535000BEFA324639461B480DF0B9FA404080F398
:1053600011884FF0030002DFD5E700963B46164A4E
:10537000022116480DF078FE204612F01AFF0D2E7D
:105380000ED0122E0FD0092E02D06FF00400CFE7FE
:105390006FF06E00CCE7204612F00BFF0020C7E74D
:1053A0006FF00B00C4E76FF01500C1E78C17002009
:1053B000FC000020A086010078B90108A8BA010805
:1053C000E8B90108B4BA0108E0BA010840A401082C
:1053D00000B583B0244BD3F814319B6813F0010F50
:1053E0000DD101AA002140F60340FFF771FF0346EB
:1053F00068B90198FFF790FA019812F0DAFE01AA55
:10540000002141F20300FFF763FF034618B118467D
:1054100003B05DF804FB0198FFF760FA019812F001
:10542000C8FE01AA002141F20100FFF751FF034627
:105430000028ECD10198FFF719FA019812F0B9FE93
:1054400001AA002141F20200FFF742FF03460028B3
:10545000DDD10198FFF728FA019812F0AAFE02F0B8
:1054600075FB0346D3E700BF0000002070B582B093
:1054700005460C4601AA002142F22F00FFF728FF43
:10548000064660B90198C368B3F801202A80B3F8D2
:105490000330238012F08DFE304602B070BD034A07
:1054A000012103480DF0CBFDF6E700BFFCBA01086F
:1054B00040A4010838B5082142F20100FFF7CAFEF6
:1054C000A8B3044608210C3012F002FF0246194B23
:1054D00093F8883013F0020F23D11748002113F0FE
:1054E000200F01D040F04000124D95F889C01CF00B
:1054F000090F01D040F4006013F0010F01D040F01B
:1055000010000C4B93F8563003F00603062B0BD01B
:105510000EF000FD0022214642F20100FFF7D8FE06
:1055200038BD06480021DAE740F4C070F0E76FF0BC
:105530006800F5E7000000200E1207002E12070099
:1055400010B582B0644B93F8303013F0400F0AD09E
:1055500001AA002142F20300FFF7BAFE034650B150
:10556000184602B010BD5D4A01215D480DF067FD8F
:105570006FF01203F4E70198FFF78CF9019812F02D
:1055800018FE01AA002142F20200FFF7A1FE034625
:105590000028E5D10198FFF7DBF9019812F009FE28
:1055A0004D4B93F8303013F0200F3DD04A4B93F819
:1055B000503013F0080F50D1474B93F8883013F058
:1055C000200F5BD1444B93F8883013F0400F27D065
:1055D000022142F22E00FFF73DFE0446002877D05C
:1055E00002210C3012F074FE3B4BB3F858310380AB
:1055F0000022214642F22E00FFF76AFE03460028F1
:10560000AED101AA002142F22A00FFF761FE034653
:105610000028A5D10198FFF777F9019812F0C9FD8C
:10562000FFF748FF03469BE7022140F66D40FFF776
:1056300011FE0446002848D002210C3012F048FE2A
:105640000123037000224270214640F66D40FFF7AF
:105650003FFE03460028A9D082E701AA002142F2BA
:105660001C00FFF735FE034600287FF479AF019850
:10567000FFF73EF9019812F09CFD9DE70DF1020144
:105680006846FFF7F3FE034600287FF469AF042164
:1056900042F22400FFF7DEFD044698B104210C30ED
:1056A00012F016FEBDF800300380BDF802304380D2
:1056B0000022214642F22400FFF70AFE034600289A
:1056C00080D04DE76FF068034AE76FF0680347E763
:1056D0006FF0680344E700BF000000201CBB010816
:1056E00040A4010810B582B00B4BB3F8B4301BB125
:1056F0000024204602B010BD01AA002141F205009D
:10570000FFF7E6FD04460028F3D10198FFF734F9CE
:10571000019812F04EFDECE70000002008B5FFF7FD
:1057200057FE034608B1184608BDFFF709FF0346B8
:105730000028F8D1104B93F8303013F0200F0CD024
:105740000D4BB3F8B43073B1FAF77EFE0346002870
:10575000E9D101F017FD0346E5E7FFF7C3FF034674
:105760000028F1D0DFE7054A012105480DF067FC6C
:105770006FF00403D7E700BF0000002040BB010822
:1057800040A4010870B582B006460C46124B93F94E
:105790004F30002B1DDAC4B12546082C28BF082540
:1057A00001AA002142F21800FFF792FD034668B9F2
:1057B000019BD9682A460131304614F00BFC019850
:1057C00012F0F7FC2E44641BE5E70023184602B0F4
:1057D00070BD6FF08503F9E70000002070B5C56863
:1057E000B5F801600121304602F072FF88B104462D
:1057F000E8780EF0CEFC84F8B80028790EF0C9FCE9
:1058000084F8B900204603F01FF820460FF084F911
:1058100070BD3346024A012102480DF01AFCF7E739
:10582000FCB7010840A40108F0B587B005460DF1AA
:105830000B01002001F06CFC08B107B0F0BD394B42
:105840009B6813F0020F0CBF0121002103F001033C
:10585000194409010A3142F24300FFF7FBFC0646F6
:1058600000285BD000F10C070A21384612F030FD09
:105870000446002303604360038105F18803294A3D
:1058800092F8D11092F8D020914201D905F19603F7
:105890001A68C4F802209A889B79E28023729DF8E6
:1058A0000B3063701F4B9B6813F0020F14D01D4B1D
:1058B0009B6813F0010F1FD1012300930C231A4A98
:1058C0000DEB03013046FFF7B3FC0022314642F2F4
:1058D0004300FFF7FDFCB0E7012363721021384657
:1058E00012F0F6FC01460F4B9A890280DB89438057
:1058F00028460EF04FFBDAE7637A43F00403637245
:105900001021384612F0E4FC0146064B1A8A028048
:105910005B8A438028460EF03DFBCDE76FF06800C0
:105920008BE700BF000000208400002030B587B066
:10593000002142F20E00FFF78DFC04460025009581
:105940000C23064A0DEB0301FFF772FC2A462146A1
:1059500042F20E00FFF7BCFC07B030BD840000200F
:10596000437B072B00D0704710B582B004460D2151
:1059700004300EF03EFB60B9E3782BB11B4B93F87B
:10598000883013F0080F04D020460EF0E9FB0346E0
:1059900070B9164B93F8883013F0200F06D0134BD4
:1059A000D3F814319B6813F0020F07D102B010BD79
:1059B0000F4A01210F480DF04CFBEAE70DF10601FB
:1059C00001A8FFF753FD0028F0D1BDF80620BDF86F
:1059D000041020460EF034FC03460028E6D0064AA8
:1059E000012104480DF035FBE0E700BF0000002076
:1059F00064BB010840A4010888BB01082DE9F041FF
:105A000086B000AF0446B0F801603046FEF718FFDC
:105A1000804601F035F923788BB1022B08D0774A04
:105A2000022177480DF015FB1837BD46BDE8F0811F
:105A30001846FEF7EDFF002001F01AFDF4E7E278CA
:105A4000012A66D0224607F1080107F110000EF086
:105A5000FDFA07F10801E0780EF024FB0546E37833
:105A600063B9684BBFF35B8F53E8001F21F480518B
:105A700043E80012002AF7D1BFF35B8F002D4CD012
:105A8000224607F1080128460EF0C0FA012385F8E6
:105A9000B83085F8B930EB78F3B93869C5F89600B5
:105AA000BA8ABB7DA5F89A2085F89C30012385F839
:105AB0008F3004F10B0606225349304614F0F5F9F5
:105AC000002840F08680514BD3F81D20C5F8902067
