:020000040800F2
:10000000C03B0020A54C0008DB9D0108914C000876
:10001000914C0008914C0008914C00080000000031
:10002000000000000000000000000000A94D0008D2
:10003000914C000800000000414D00088563010854
:10004000754F0008754F0008754F0008754F000880
:10005000754F0008754F0008754F0008754F000870
:10006000754F0008754F0008754F0008754F000860
:10007000754F0008754F0008754F0008754F000850
:10008000754F0008754F0008754F0008754F000840
:10009000754F0008754F0008754F0008754F000830
:1000A000754F0008754F0008754F0008754F000820
:1000B000754F0008754F0008754F0008754F000810
:1000C000754F0008754F0008754F0008754F000800
:1000D000754F0008754F0008754F0008754F0008F0
:1000E000754F0008754F0008754F0008754F0008E0
:1000F000754F0008754F0008754F0008754F0008D0
:10010000754F0008754F0008754F0008754F0008BF
:10011000754F0008754F0008754F0008754F0008AF
:10012000754F0008754F0008754F0008754F00089F
:0C013000754F0008754F0008754F00085F
:04013C00FFFFFFFFC3
:1001400053B94AB9002908BF00281CBF4FF0FF313E
:100150004FF0FF3000F00CB8ADF1080C6DE904CEA3
:1001600000F008F8DDF804E0DDE9022304B0704790
:10017000704700BF2DE9F04786468C460846089E2A
:10018000154674461946002B40F0C2808542B2FAEB
:1001900082F245D94AB1C2F1200300FA02FC2EFADC
:1001A00003F3954043EA0C0C94404FEA154EA8B275
:1001B000BCFBFEF8230C0EFB18CC08FB00F943EA4D
:1001C0000C43994528D9EB1808F1FF3704D299451B
:1001D00002D9A8F102072B44A3EB0903A4B2B3FB95
:1001E000FEFC0EFB1C330CFB00F044EA0344A0426F
:1001F00014D92C190CF1FF3304D2A04202D9ACF16E
:1002000002032C44241A43EA07401EB1D4400023C1
:1002100034607360BDE8F0874746DDE76346F1E789
:1002200092BB431B01214FEA154EAFB2B3FBFEFC5C
:10023000200C0EFB1C330CFB07F840EA03439845E7
:1002400062D9EB180CF1FF3004D2984502D9ACF119
:1002500002002B44A3EB0803A4B2B3FBFEFC0EFB8D
:100260001C330CFB07F744EA0344A7424ED92C1970
:100270000CF1FF3304D2A74202D9ACF102032C44A3
:10028000E41B43EA0040C0E7C2F1200320FA03F177
:10029000954090402EFA03F303434FEA154EAFB258
:1002A000B1FBFEFC0EFB1C10190C0CFB07F841EA1D
:1002B0000041884504FA02F422D969180CF1FF3094
:1002C00004D2884502D9ACF102002944A1EB08010F
:1002D0009BB2B1FBFEFC0EFB1C110CFB07F743EAC3
:1002E00001439F420ED9EB180CF1FF3104D29F421B
:1002F00002D9ACF102012B44DB1B41EA004192E739
:100300006046E3E76146F7E76046A3E76346B7E781
:10031000834206D916B9002108467BE7C6E900E00A
:10032000F9E7B3FA83F78FB9834201D3724508D84E
:10033000BEEB020460EB030301209C461EB90021C2
:1003400068E73846FAE7C6E9004CF8E7C7F1200C41
:10035000BB4022FA0CF41C432EFA0CF120FA0CF3E9
:10036000B84001434FEA14490EFA07F5B3FBF9F818
:100370001FFA84FE09FB18300B0C08FB0EFA43EA47
:1003800000439A4502FA07F240D9E31808F1FF301A
:1003900004D29A4502D9A8F102002344A3EB0A0330
:1003A00089B2B3FBF9F809FB183308FB0EFE41EAEA
:1003B00003418E452CD9611808F1FF3304D28E45D4
:1003C00002D9A8F10203214443EA0040A0FB0298AD
:1003D000A1EB0E014145CE46434602D306D14D4521
:1003E00004D2B9EB020E68EB04030138002EA6D04C
:1003F000B5EB0E0261EB030101FA0CFC22FA07F3E4
:100400004CEA0303F940C6E9003198E74046C5E7E6
:100410004346D9E710F8012B11F8013B012A28BF08
:100420009A42F7D0D01A7047034611F8012B03F80F
:10043000012B002AF9D17047034613F8012B002A3B
:10044000FBD1181A0138704710B5082140F6014059
:1004500006F0E8FBD8B1044608210C301DF05CFF23
:1004600002460F4B93F8D83013F0010F0BD10D4813
:100470004FF0005119F015FE0022214640F60140D0
:1004800006F00EFC10BD04A1D1E90001F2E76FF007
:100490006800F7E7AFF3008090880002008000203A
:1004A000000000201088000208B539B1074A127810
:1004B00002B908BD064818F030FBFAE7034B1B7879
:1004C000002BF6D0034818F028FBF2E7F0020020DA
:1004D000400602085C06020810B50F210D4B186893
:1004E00018F055F80C4B1B7853B90C4B01221A70BD
:1004F00014F0E6F904F070FD094BC3E9000110BDEA
:10050000044616F007F801462246064818F005FB97
:10051000EBE700BF00160020F0020020F61A0020D2
:10052000E006002074060208F0B58BB004460D46C4
:1005300016460378032B38D8DFE803F002212B316D
:100540001D4B93E803000790ADF82010090C8DF8BF
:10055000221063792279E178A07867780DF11C0C7C
:10056000CDF814C004970390029101920093A379EF
:10057000124A3146284617F035FD0BB0F0BD104B3E
:1005800093E803000790ADF82010090C8DF82210B5
:10059000DFE70C4A07AB07CA03C31A80D9E70A4A48
:1005A00007AB07CA03C31A80D3E7084A0A2107A882
:1005B00017F018FDCDE700BF9C060208AC06020844
:1005C000A4060208D0060208DC060208D03C020895
:1005D00000B587B00023019302930393049305931E
:1005E00001238DF804306023ADF80C303023ADF8D2
:1005F0000E300C4901A809F075FC28B90A4B1B788C
:100600005BB907B05DF804FB0146074B1B78002B74
:10061000F7D0064818F081FAF3E7054818F07DFA9C
:10062000EFE700BF35060008F0020020E8060208E8
:100630000C070208354B1B6803B1704730B597B003
:1006400005460C46012A01D917B030BD1E2208A963
:10065000FFF76AFF2E4B1B78FBB914F15A0FF3DB3F
:100660002C4B1C682C4B53F824106846FFF7DCFE1B
:10067000112208A968461FF015FCA0B1274A13688B
:1006800001331360264A12689342DDDB234B0022BC
:100690001A6001341F4B1C60D6E7224608A9214886
:1006A00018F03BFAD9E71D4B00221A6009F09AFCBA
:1006B0000028C9D11C4B1B68012B1AD01B4C0DF113
:1006C000400C94E80F008CE80F0014AA103494E852
:1006D000030082E803000D4B614628460BF072F9D7
:1006E00002460028B0D00A4B1B7853B9FFF770FFC1
:1006F000AAE714F0E5F804F06FFC0D4BC3E9000124
:10070000DCE708A90B4818F008FAEFE7C01500204D
:10071000F002002014160020880100201816002086
:10072000840100202C07020880010020F804020840
:10073000E006002048070208F0B591B051B1064626
:100740000F46454B1B78A3B9444B1B78B3B100202F
:1007500011B0F0BD1446404B1B7833B90023236021
:100760006360A360E3602361F1E73D4818F0D5F9C9
:10077000F4E7098A3B4818F0D0F9E5E701AC3A4DB7
:100780000FCD0FC42B68237001A9384B186819F0DE
:1007900017FC002834D0398A0131354B19602F4BB2
:1007A00001221A702C4B1B78002B4DD12A4B1B7841
:1007B000002B4DD10BAC2C4D0FCD0FC42B682370EB
:1007C0002C4F3C460BAD0FCD0FC42B68237027492F
:1007D0000F60294B4B6001230B814FF6FF73CB81D8
:1007E00000230B7430460FF08FFD01460028AED079
:1007F000194B1B78002BABD0204818F08EF9A7E7D7
:1008000006AC04350FCD0FC42B682370DFF864C02D
:10081000644606AD0FCD0FC42B6823701349C1F891
:1008200000C03B8A01330B8103230B7430460FF069
:100830006BFD014600288AD0074B1B78002B86D021
:100840000F4818F06AF982E70E4818F066F9ADE72C
:100850000D4818F062F9ADE7F0020020F81A002008
:10086000680702087C07020810050208AC15002082
:100870007C0100206801002065090008FC070208CF
:1008800094070208B0070208C807020810B58AB02A
:100890008646164B0093002301930123ADF80830E0
:1008A0004FF6FF73ADF80A300DF1140C104C0FCC5D
:1008B000ACE80F0023688CF8003005AB0393694661
:1008C00070460FF07FFF48B101460A4B1B780BB909
:1008D0000AB010BD084818F020F9F9E7054B1B785D
:1008E000002BF5D0054818F018F9F1E701130008BE
:1008F00038050208F002002018080208340802082F
:1009000010B584B00446124B0093ADF804100023D8
:10091000ADF806300F4B02930423ADF80C30694656
:1009200010F068F850B101460B4B1B7843B90A4BE5
:100930001B784BB9132120461AF0B9FA04B010BD48
:10094000064818F0EAF8F2E7054818F0E6F8F1E78B
:10095000A904000880010020F00200204C080208D1
:100960006C080208F0B5A1B0C1B105460E46A14B16
:100970001B7813BBA04B1B68022B23D09E4B1B681C
:10098000012B2AD09C4B1B68032B32D09A4B1B683F
:10099000042B00F0C380002021B0F0BD1446954B1D
:1009A0001B7833B9002323606360A360E360236195
:1009B000F1E7924818F0B1F8F4E7098A904818F086
:1009C000ACF8D7E713F07CFF04F006FB8D4BC3E9CE
:1009D00000012846FFF75AFFD0E7864B1B7823B962
:1009E000132128461AF063FACCE7874818F095F8E7
:1009F000F6E76C46854F0FCF0FC43B6823706946FE
:100A0000834B186819F0DCFA18BB05AC2C370FCFF4
:100A10000FC43B682370DFF8FCC1644605AF0FCFFD
:100A20000FC43B6823707A49C1F800C0338A013390
:100A30000B8103230B7428460FF066FC0146002847
:100A4000A4D06C4B1B78002BA0D0734818F065F82D
:100A50009CE70AAC714F0FCF0FC43B6823700AA903
:100A60006B4B186819F0ACFA60BB00238DF83C3072
:100A700042F60213ADF83E30DFF898C164460FAF7E
:100A80000FCF0FC43B682370614CC4F800C0338A99
:100A9000023323810423237430461CF0C7F8604BD3
:100AA0009881214628460FF02FFC014600283FF48C
:100AB0006DAF504B1B78002B3FF468AF564818F0D1
:100AC0002CF863E75649574B0B6002230B82338A9D
:100AD000CB81284610F08EF8014658B110F1780FFE
:100AE00008D0444B1B78002B3FF455AF4E4818F00C
:100AF00014F850E73F4B1B7843B93E4B1B784BB97A
:100B00004A4B19882846FFF7FBFE44E7484818F08F
:100B100004F8F2E7474818F000F8F1E710AC3B4F53
:100B20000FCF0FC43B68237010A9394B186819F018
:100B300047FA28BB15AC40370FCF0FC43B68237072
:100B4000DFF8D0C0644615AF0FCF0FC43B682370E9
:100B50002F49C1F800C0338A01330B8103230B7482
:100B600028460FF0D1FB014600283FF414AF214B7B
:100B70001B78002B3FF40FAF274817F0CEFF0AE792
:100B80001AAC2D4F0FCF0FC43B6823701AA9204B0E
:100B9000186819F015FA002850D100238DF87C3020
:100BA00042F60213ADF87E30DFF868C064461FAF2E
:100BB0000FCF0FC43B682370154CC4F800C0338AB4
:100BC000023323810423237430461CF02FF8144B86
:100BD0009881214628460FF097FB014600283FF4F4
:100BE000DAAE044B1B78002B3FF4D5AE0A4817F061
:100BF00094FFD0E6F0020020800100206807020880
:100C00007C070208E0060020AC0802081005020874
:100C1000AC15002068010020940702084C0502086A
:100C2000901500207D100008D80802087C010020E3
:100C3000F40802080C090208600502081549164B61
:100C40000B6001230B82338ACB8128460FF0D2FF41
:100C5000014658B110F1780F08D0104B1B78002BCB
:100C60003FF499AE0E4817F058FF94E60B4B1B78F3
:100C700043B90A4B1B784BB90A4B19882846FFF732
:100C80003FFE88E6084817F048FFF2E7074817F0EC
:100C900044FFF1E7901500207D100008F0020020CD
:100CA000D80802087C0100202C0902080C0902085F
:100CB00070B50C46154615F033FD064678B12A4648
:100CC000214617F030FC002811DB4FF0B8622146B6
:100CD000304617F010FC002812DB304670BD0D4B7B
:100CE0001B78002BF9D00C4817F017FFF5E7094BDC
:100CF0001B780BB90026F0E7084817F00EFFF9E75C
:100D0000044B1B780BB90026E7E7054817F005FFF1
:100D1000F9E700BFF0020020440902086009020858
:100D20008009020870B502462648002300F8153FE6
:100D30000024531842D22344234CA4FB035626F02C
:100D4000030505EB96055B1BD31A61F100054FF017
:100D5000CC3C0CFB03FC04FB05CCA3FB0434A444F7
:100D60005B0843EACC7303EB8303A2EB430330330A
:100D700000F8013D96468C460024531820D22344A7
:100D8000114CA4FB035626F0030505EB96055B1BEF
:100D9000D31A61F100024FF0CC3103FB01F104FBE7
:100DA0000211A3FB043421445B0843EAC1724908E1
:100DB000BEF10A0F7CF1000CBAD270BD0124BAE773
:100DC0000124DCE778150020CDCCCCCC70B58EB0FA
:100DD00004460D46504B1B68012B15D020461AF0D7
:100DE00064F81E2201A9FFF79FFB4C4B1B78FBB94F
:100DF000494B1B68012B20D0002D47D1484B1B6865
:100E0000A34255D00EB070BD04F0E6F802460B4682
:100E10004449C1E90023444819F01DF8434B1E68BA
:100E200019F023F8424B03EBC603C3E90001D5E7F1
:100E300001A9404817F071FEDAE7384B1B787BB9FF
:100E4000364B1B7883B9354B1B78DBB9334B1B789A
:100E5000002BD1D0354B1968374817F05EFECBE731
:100E6000364817F05AFEEBE7304B1A68304B03EB6D
:100E7000C203D3E90001FFF755FF0146304817F0E0
:100E80004CFEE0E72F4817F048FEDFE7234B1B78C6
:100E900043B9234C206819F0BBFE00232360FFF701
:100EA00097FBAFE72A4601A9274817F036FEF0E77F
:100EB00009AD264E0FCE0FC533682B70244E354634
:100EC0000DF1240CBCE80F000FC5DCF800302B70CE
:100ED000204B1E60204B1B78D3B91E4B1F4A5A6013
:100EE0001C4901230B814FF6FF73CB8100230B7448
:100EF00020460FF009FA10F0FF0F83D0074B1B7844
:100F0000002B3FF47FAFC1B2154817F006FE79E71A
:100F1000104B144A5A60E3E780010020F0020020E1
:100F2000C0150020D8060020E00600201016002082
:100F300088060020AC090208D4090208BC0902088E
:100F4000CC1D0208AC070208EC09020810050208D3
:100F500068010020AC150020F81A002039070008AD
:100F6000FC07020865090008F0B583B007460E4685
:100F7000002410E007EBC403094A1568D3E90023F5
:100F8000CDE90023074B1A68074B53F82510074893
:100F900017F0C3FD0134A642ECD803B0F0BD00BF8A
:100FA0001416002080010020880100200C0A02088D
:100FB000284B1B68834200D0704710B588B00C46A0
:100FC00019F073FF1E226946FFF7AEFA224B1B7819
:100FD00083B9204C206819F01BFE002323601F4BAF
:100FE0001B68012B0CD01E4B00221A70FFF7F0FA81
:100FF00008B010BD224669461A4817F08EFDE8E792
:10100000194A136801331360092B16DD13460022B9
:101010001A60114B1B78A3B90A211448FFF7A4FFEB
:10102000134A136801331360032B06D913460022B9
:101030001A600A4A136801331360642017F0C1FA7A
:10104000D1E70B4B1A680B4B53F822100A4817F0E4
:1010500064FDE1E7C0150020F002002080010020BF
:10106000F61A0020400A0208101600208806002008
:101070001416002088010020640A020838B562B105
:1010800005461468844B1B68032B11D0824B1B68E8
:10109000042B00F08480012038BD0C467F4B1B7868
:1010A00013B90020A081F7E77D4817F036FDF8E777
:1010B0007C4B1B7853B9794B1B781BB9794B0122B8
:1010C0001A70E3E7784817F028FDF7E7774B1A68BE
:1010D000774B03EBC20143F8324000234B606F4B68
:1010E0001B7883B96D4B1B788BB96C4B1B7893B90C
:1010F0006A4B1B78A3B9684B1B68032B14D0694B50
:1011000000221A70C2E76B4817F007FDEAE76A4849
:1011100017F003FDE9E72146684817F0FEFCE7E712
:10112000674817F0FAFCE6E75C4B1B7823BB5F4A85
:10113000136801331360092BE1DD134600221A60A6
:10114000564B1B78F3B90A215948FFF70DFF5D4A4A
:10115000136801331360032B06D9134600221A606B
:101160004D4A1368013313604C4B1B789BB9132114
:10117000284619F09CFEC2E74C4B1968524817F0FC
:10118000CCFCD4E74F4B1A68504B53F82210504810
:1011900017F0C3FCD7E74F4817F0BFFCE7E74E4B0B
:1011A0001B780BB9012077E703F016FF02460B46C8
:1011B0004A49C1E900234A4818F04DFE494B1C68D2
:1011C00018F053FE484B03EBC403C3E90001424B44
:1011D00000221A70314B1B78002B31D12F4B1B781A
:1011E000002B31D12D4B1B78002B3BD12B4B1B7887
:1011F000002B3BD13B4A136801331360092B48DDB8
:10120000134600221A60254B1B78002B34D10A218B
:101210003548FFF7A9FE2B4A136801331360032BEF
:1012200005D9134600221A601B4B01221A601B4B82
:101230001B7853BB1321284619F039FE01202BE7F8
:101240002A4817F06AFCC9E7264B1A68264B03EBBD
:10125000C203D3E90001FFF765FD0146244817F0FA
:101260005CFCBFE7164817F058FCBFE71D4B196838
:10127000204817F052FCBDE7124B1A68134B53F885
:1012800022101D4817F049FCC1E71C4817F045FC27
:10129000D0E7012000E700BF80010020F00200201D
:1012A0008C0A0208F71A0020A40A02080816002077
:1012B000E8050020BC0A0208E40A0208804102088E
:1012C000AC07020814160020040B02088801002055
:1012D0001C0B0208440B0208F61A0020D806002056
:1012E000E00600200416002098050020700B02087C
:1012F000CC1D0208900B0208A80B0208D00B0208B4
:101300002DE9F04188B005460C461E46BDF8387000
:1013100003F062FE02460B463F49C1E900233F4805
:1013200018F099FD3E4BD3F8008018F09EFD3D4B20
:1013300003EBC803C3E90001EEB1E4B93A4B1B78F3
:101340000BB9002405E03946384817F0E6FBF8E70A
:101350000134A74208DD344A1278002AF8D0315D02
:10136000334817F0DAFBF3E72F4B1B783BB13148DA
:1013700017F0D3FB03E02C4B1B78002B3BD1284606
:1013800019F093FD1E226946FFF7CEF8244A136830
:1013900001331360092B1FDD134600221A60224B14
:1013A0001B7863BB0A211F48FFF7DEFD224A136842
:1013B000013313601C4B1B7853BB1321284619F0D3
:1013C00076FD1D4B1B68032B06D91B4B00221A60B0
:1013D0001A4A136801331360642017F0F2F803F01F
:1013E000FBFD0E4BC3E900012846FFF74FFA002032
:1013F00008B0BDE8F081124817F08FFBBFE70E4B35
:101400001A68104B53F822100F4817F086FBC9E7F3
:101410000E4817F082FBD0E7D8060020E006002037
:101420000C16002038060020F0020020FC0B0208F9
:10143000100C0208AC0702081416002080010020DE
:10144000180C020888010020240C02084C0C020829
:1014500008B54FF480320F213148FFF729FC314B9A
:10146000186000283CD03049304B4B604FF40043AB
:101470008B6017F09CF84FF480320E212848FFF75C
:1014800017FC2B4B1860002832D02A49274B4B60A1
:101490004FF480438B6017F08AF84FF480320D21AF
:1014A0001F48FFF705FC244B186048B323491F4B26
:1014B0004B604FF400538B6017F079F84FF4803293
:1014C0000C211748FFF7F4FB1D4B186000B31D49B2
:1014D000164B4B604FF480538B6017F068F808BDD3
:1014E000194B1B78002BFAD0184817F016FBF6E7BB
:1014F000154B1B78002BF2D0154817F00EFBEEE7CA
:10150000114B1B78002BEAD0124817F006FBE6E7D8
:101510000D4B1B78002BE2D00E4817F0FEFADEE7E9
:10152000780C020800160020F4150020D9040008E9
:10153000F0150020E4150020E0150020D41500204F
:10154000D0150020C4150020F0020020800C0208F5
:10155000A00C0208C00C020808B54FF4FA6017F09E
:1015600030F813F09FF9FFF773FF002007F0BEFA81
:1015700028B9094B1B785BB9FFF72AF808BD01466B
:10158000054B1B78002BF9D0044817F0C6FAF5E795
:10159000034817F0C2FAEFE7F0020020E00C02085F
:1015A000000D02082DE9F04F91B005920293134609
:1015B00002F004020092C3F3C20210F0030301938D
:1015C00040F02D8280468A460132041D00284FD00B
:1015D000B8F1000F05D0A4EB08030433534500F223
:1015E0002182029B5D1E019B0493069303930026B8
:1015F0004FF0FF3B0427B946B8F1000F01D0029B22
:101600002360531E0793002A40F35F81059B13F06C
:10161000020228D00120A4EB08018B081AB1B1F511
:10162000007F80F0058203990F2900F20482B8F14F
:10163000000F00F06281DBB201F140026A4402F85F
:10164000103C02F820BC002800F0538163F07F03B7
:1016500001F140026A4402F8103C049B01330493F8
:10166000039B0133039304340022CC4640463DE003
:1016700001F0070A5444CAF1080AA9E7002634E039
:10168000002632E0002630E00827BC462DE0252960
:101690002BD10BF1010B01260427BC4625E047297D
:1016A000EED82A2914D32A39C9B24FF0010E0EFA06
:1016B00001F14FF6DA7E11EA0E0F16D111F0625FDA
:1016C00040F0C18011F0010F40F08C8000260CE04A
:1016D000252903D10BF1FF3B002606E001D90026A6
:1016E00003E0202901D02329CCD11D466B1C697849
:1016F000002900F01B81002EC9D07A29BED84C29C0
:10170000CDD34C392E2961D80FF2040E5EF821F0AA
:10171000EB160008CD170008CD170008CD170008FC
:10172000CD170008CD170008CD170008CD17000809
:10173000CD170008CD170008CD170008CD170008F9
:10174000DD170008CD170008CD170008CD170008D9
:10175000CD170008CD170008CD170008CD170008D9
:10176000CD17000847180008CD170008DD1700083E
:10177000DD17000847180008471800084718000838
:10178000EB160008DD17000889160008CD170008C1
:10179000EB160008CD170008A3180008DD17000895
:1017A000A3180008CD170008CD170008AB180008D3
:1017B000D7170008DD170008CD170008CD1700085F
:1017C000DD170008CD170008D117000800268CE7A8
:1017D0000427BC4689E70427BC4686E729786C299C
:1017E00025D000263C44013CB4FBF7F407FB04F48D
:1017F000254620B1211A6144514500F21681002A84
:1018000058D1BCF1040F00F08980BCF1080F40F002
:1018100015811A99073121F0070101F108051A9580
:10182000D1E9008908B1C4E9008908345DE713F8FB
:10183000021C6C2903D000260427BC46D2E70026F0
:101840000827BC46CEE729784C291AD01A990731C7
:1018500021F0070101F108061A96D1E90067073463
:1018600024F0070440B1211A0831514513D82978D2
:101870004C2913D0C4E90067083400260827BC4669
:1018800033E71A99073121F0070101F108061A968A
:10189000D1E90067E3E76FF01B00BDE0C4E9006732
:1018A000EAE700260427BC469CE7324600260427C8
:1018B000BC4697E72C46E14680461A9A111D1A91BC
:1018C00012680292079A1D4696E6624B029A9A4265
:1018D00004D3614B9A420AD3002300E00023002B7B
:1018E0007FF494AE059B03F00202002093E60123EF
:1018F000F5E7069B01330693B2E610B10AF1010A3F
:10190000AEE6009B13B10AF1020AA9E60298FEF7BF
:1019100093FD00EB0A0303F1020AA1E61A990D1DDB
:101920001A95096800B121600434DEE68046231A66
:10193000B3F5806F80F0858090B1002202609B0833
:101940000370009B83B1069BC370049B88F8023030
:101950001BBB019DDDF80C90DDF810B0029F3DE04F
:101960005344A3F1080057E0069B4370EDE70133B1
:101970009842EED903F140026A4412F8101C12F9A1
:10198000102C002AF3DA01F07F01A4EB08020132E7
:10199000524559D804F8011BE9E7019B0398E7E792
:1019A000009B43B305F140036B4413F8203C04F85B
:1019B000013B019EA4EB080333440133534546D851
:1019C00005F140036B4413F8103C04F8013B324628
:1019D000394620461EF0EBFA34440135A94519D9A1
:1019E000BBF1000FDCD005F140036B4413F9103C50
:1019F000002BD5DAF1E705F140036B4413F8103CF6
:101A000058F82370002248F823203846FEF714FDCA
:101A1000461CCFE7A4EB080011B0BDE8F08F6FF0D3
:101A20000D00F9E76FF01B00F6E76FF01B00F3E71E
:101A30006FF01500F0E76FF01500EDE76FF015009F
:101A4000EAE76FF01500E7E76FF01B00E4E76FF0DF
:101A50001B00E1E700000208144902082DE9F04FDD
:101A600097B000AF8346BA613B61D7F88030C3F3CB
:101A7000C0033B62F96011B916F0C7FFF8609BF82C
:101A80000260B14636B1D7F8803013F0010F0DD1A6
:101A9000002300E000239BF803207A6242B1D7F8CC
:101AA000802012F0020F22D1002202E00123F2E78F
:101AB000002202B9EBB19BF80050AA00BA60DBF833
:101AC00004207A610BEB8505BA69F2B1002B40F076
:101AD0000981B9F1000F00F01481D7F8803013F0BC
:101AE000040F40F012810020F8610646FEE001225A
:101AF000DFE7BB691BB13A69F96858469847FC684B
:101B000020465C37BD46BDE8F08FFC68E3B94D4424
:101B100000233B6123E00444013501364E451AD2CF
:101B20002A7800235BF822201946B86916F082FF54
:101B3000BAF1000FEFD0D7F888309845EBD22AF8E9
:101B4000180008F10108E6E70026C7F81C80B04637
:101B5000D7F884A0E2E7C7F81080D7F81C80D7F840
:101B6000803003F00503FB604FF0000AA146C7F880
:101B70001CB0A1E000253B6A7BB9002D7ED0D7F8D0
:101B8000803013F0010F7ED1FB68002B74D102234B
:101B9000A9EB03098DE00125EDE75946786916F0B8
:101BA0008FFF0028E9D06C46012387F82C300323EF
:101BB00087F82D308AB0694611F110023CD0162505
:101BC00042B12B46042D01DDB4484861082B01DDEC
:101BD000B34B8B61012387F82830032387F8293022
:101BE0006ABB152D45DD162362B1052087F82C0050
:101BF000002087F82D0087F82E00012087F82F009D
:101C0000F86A08616FF300086FF341086FF3820808
:101C10006FF3C508022161F38818C3F30A0363F365
:101C200053286FF31F58002341469E4800F004FDDF
:101C3000A546A9F102093CE06FF00045C0E72B463C
:101C40000C2D01DD7869C861102B01DDC1F820B0D1
:101C500001F12403002009E000F1300C07F1280E07
:101C6000F4441CF830CC03F801CB01300128F3D93F
:101C7000B7E76FF01B03B7E7012389E7D7F8803098
:101C800013F0020F15D0002322461946B86916F04A
:101C9000D1FED7F8843053B13B69D7F888209342FE
:101CA00005D2D7F8842022F8130001333B610138B4
:101CB00081440AF1010A35467B6A9A4510D22E46C4
:101CC00016F802BB6B78FA6952F82340764B9C42B7
:101CD000FFF450AF754B9C42FFF45DAF00254AE71F
:101CE0004C460DE707F144000023FB6118B14A465A
:101CF00029461EF05CF94D444FF00008C7F80490E7
:101D00001EE00020F8610646F0E7FE6107F13400AE
:101D10000026EBE700253B6A33BB002D3BD0D7F80C
:101D2000803013F0010F26D0731C06F1300207F14A
:101D30002801561806F8149CDEB208F10108254661
:101D40007B6A98454AD22C4614F802AB95F801906C
:101D50005BF82930544A9342DCD3544A934201D36E
:101D60000025D8E70125D6E75146786916F0A8FE88
:101D70000028D2D0E1E7D7F8803013F0040FDCD090
:101D8000FA69531C303207F128010A4402F8249CF6
:101D9000DBB2FB61D1E7D7F8803013F0020F09D036
:101DA000731C06F1300207F12801561806F8149C3E
:101DB000DEB2C2E7F869431C00F1300107F12802E6
:101DC0008A1802F824AC02460232D2B2FA6107F154
:101DD000580252FA83F303F8249CAEE7D7F8049034
:101DE0009BF8003087F854309BF80130334487F873
:101DF0005530D7F8803013F0020F0ED1FB69C3F3D2
:101E0000470387F85730D7F8803013F0010F06D119
:101E100013F0040F3FD1002302E00023F1E7002379
:101E200087F85630DBF800003863786DCBF8000097
:101E3000D7F810804246B9685846D7F818A0D0475E
:101E4000041EFFF65DAE386BCBF80000C7F81080BB
:101E50004246F96907F13400D047002859DB04EB0A
:101E60000008B96849447B6A01EB4301D7F8109038
:101E70004A46FB68591A2846D047041EFFF640AE72
:101E800008EB04054FF000087E62C7F820B0564604
:101E9000D7F884B021E0FB69C2E700BF680D0208F3
:101EA000100E02084C04020800000208144902083F
:101EB0004FF0000A4A46012107F12C00B0470028E4
:101EC00029DB0544534622464946304616F0B2FD0A
:101ED000002822DB054408F101087B6A984511D2ED
:101EE00008F1300307F12802134413F8143C87F873
:101EF0002C303A6A52F82340BBF1000FD8D03BF89F
:101F000018A0D7E73A6900210846BB6998472C46D4
:101F1000F6E50446F4E50446F2E50446F0E500BFC4
:101F2000014B1860704700BF9801002080B505463E
:101F30000E461746984615F077FB03461EF056F8F6
:101F40000446DFF8189049F80030424639463046DA
:101F5000A84754F8090002F0BFFE00BF08000000C7
:101F6000064B074A1A60074AD2F8803023F007036D
:101F700043F00403C2F8803000207047DC020020E8
:101F800000093D0000040058034A536823F002038F
:101F900053600020704700BF002004E038B50546BC
:101FA0000B4C00E010340B4B9C420FD263685B7902
:101FB000002BF7D02946204617F0D3F80028F1D09F
:101FC00023681B68294620469847EBE738BD00BFC9
:101FD000A4040208B404020870B506460D46084C75
:101FE00004E02A463146204698471034054B9C426F
:101FF00004D223689B69002BF3D1F6E770BD00BFC4
:10200000A4040208B404020808B51DF0DBFC002299
:10201000431819D213440D4AA2FB03CE2EF0030C31
:102020000CEB9E0CA3EB0C03C01A61F100014FF006
:10203000CC3300FB03F302FB0133A0FB0202134489
:10204000400840EAC37008BD0122E3E7CDCCCCCC08
:102050002DE9F041074605460AE007EA0807144B58
:1020600003EB06135B6804221968204600F0B6FAF9
:10207000D5B195FAA5F6B6FA86F60D4C04EB061422
:102080000123B3406FEA030825EA0305237B002BF5
:10209000EED03301064AD3581B69002BDDD0204611
:1020A00098470028E4D1D8E73846BDE8F08100BF62
:1020B000A40402082DE9F04180460F46204BBFF3EF
:1020C0005B8F53E8005F6A1C43E800210029F8D1C8
:1020D000BFF35B8F002D2FD11A4C002607E06368F9
:1020E00004221968204600F079FA01361034164BA4
:1020F0009C4213D2237B002BF8D02368DB680BB102
:102100002046984723681B69002BE8D02046984753
:102110000028E4D00123B3401D43E6E7B8F1000FE7
:102120000BD055B12846FFF793FF0546002FF8D096
:102130000A2017F018F8F4E700252846BDE8F081DA
:1021400030160020A4040208B404020808B5064BA7
:10215000186018B1054B1B68092B00DC08BD04484A
:1021600015F0BAFAFAE700BF241600202C1600205A
:102170000004002008B5024815F0AEFA08BD00BF03
:102180000004002030B589B000220F490F481DF02F
:1021900089FC0F4D00220023CDE90623002404947E
:1021A0000E2303930294019400940A4B4FF440725F
:1021B000094928461CF051FF0849284614F048FEFA
:1021C000204609B030BD00BF75210008A80B0020D3
:1021D000E806002035250008401B0020440E0208B8
:1021E000014B53F820007047600E020848B108B553
:1021F000054A1060054B1960084600F0DBFC002022
:1022000008BD6FF0150070479C01002020160020CB
:1022100008B5054B1B781BB1034B01221A7008BD92
:10222000024815F059FAF7E7F91A002000040020D7
:102230000D4BBFF35B8F53E8001F013143E80012E1
:10224000002AF8D1BFF35B8F00B97047074BBFF38B
:102250005B8F53E8001F013943E80012002AF8D1D0
:10226000BFF35B8FF1E700BF281600202C1600207B
:10227000064B00200146BFF35B8F53E8000F43E895
:102280000012002AF9D1BFF35B8F70472816002097
:1022900038B5FFF7EDFF0546094C00E01034094B57
:1022A0009C420BD263685B79002BF7D023685B6894
:1022B000002BF3D0294620469847EFE738BD00BFF2
:1022C000A4040208B4040208034B18680028D4BF11
:1022D00000200120704700BF2816002010B5044CD4
:1022E0000449204616F08CFD034B1C6010BD00BF56
:1022F000080300204C0E02081C16002008B500231D
:10230000064A1370064A1360064A13604FF47A7146
:102310000548FFF76BFFFFF7E1FF08BDFA1A002041
:10232000281600202C1600200920000808B50146B8
:10233000014816F028FF08BD0803002008B5024830
:1023400016F042FE08BD00BF0803002008B5014694
:10235000024B186816F01DFF08BD00BF1C160020B8
:1023600008B5024816F019FF08BD00BF0803002099
:1023700010B582B000220023CDE900232C4B187841
:1023800008B902B010BD684616F01FFF044688B1B8
:10239000284BBFF35B8F53E8001F013943E800125D
:1023A000002AF8D1BFF35B8F2046FFF7F7FD2046E8
:1023B000FFF7CCFFFFF788FF58B91F4A1368516831
:1023C00013F57A7341F1000113605160FFF7C8FF04
:1023D000D7E71DF0F7FA0022431827D21344174A13
:1023E000A2FB034C2CF0030404EB9C041B1BC01A3F
:1023F00061F100014FF0CC3300FB03F302FB01332A
:10240000A0FB02021344400840EAC3705B080A497B
:102410000A684968801A63EB010340F2E93290428E
:1024200073F10003C9D3FFF733FFC6E70122D5E7F5
:10243000F91A00202C160020A00B0020CDCCCCCC0B
:102440000F4B1B7803B1704710B500210120FFF737
:1024500031FE0C4C00E010340B4B9C4208D26368F8
:102460005B79002BF7D023689B6820469847F2E7FA
:10247000FFF77EFF0028FBD1014B01221A7010BD2F
:10248000FA1A0020A4040208B404020810B582B0AD
:102490001B4BBFF35B8F53E8002F511C43E8001028
:1024A0000028F8D1BFF35B8F164B1B7863B9164B2E
:1024B0001B68BBB1C2B1092A14D114481DF0FEFA41
:1024C000134815F009F90DE04FF01003EFF31184F4
:1024D00083F31288BFF36F8FFFF74AFF84F31188ED
:1024E000BFF36F8F02B010BD00220023CDE900239F
:1024F00042F210720023054815F08EFCF2E700BF8F
:102500002C160020FA1A002024160020A80B002008
:102510000004002010B50446044B1B689847A060D7
:102520002146034816F055FE10BD00BF9C01002057
:10253000080300202DE9F04100210846FFF7BAFD0D
:10254000804650B14FF4FA7600271DF04FFD154B31
:102550001858FFF7FBFD002515E04FF0FF364FF050
:10256000FF37F2E74046FFF773FD804670B94FF042
:10257000FF364FF0FF3709E02C4632463B460A480B
:1025800015F0D2F82546B8F1000FEBD1FFF7F0FEB9
:1025900004460028F6D1002DEED000210846FFF7B2
:1025A0001BFDEAE708000000000400200248034B7E
:1025B000C01AC008704700BFA4040208DC03020868
:1025C00010B50C46FFF7F2FFA04203D9024B53F8B7
:1025D000340010BD0020FCE7DC03020808B5094BFD
:1025E000C31A1B110133D0F804C08CF804304368BF
:1025F0009A7143681960436801225A71FFF708FE17
:1026000008BD00BFA404020800B589B00592069376
:102610000023079362B1074A0C9B02930B9B019323
:102620000A9B009305ABFFF719FA09B05DF804FBAC
:102630000022F1E7E39101082DE9F04F8BB004AFE0
:1026400005461E468846C1F34A24002C00F08E80C1
:1026500091460022FA603A617A6104230293FB18E2
:1026600001930A23009307F10C0321464846FFF724
:10267000F5F9B0F5006F5DD3D9F804106D4601236C
:102680003B7303237B738AB004AC14F110021CD09B
:10269000162042B10346042801DD3E4E6661082B38
:1026A00001DD3D4BA36101233B7003237B70CAB165
:1026B00003460C2800DDE161102B02DD40F2FF73C0
:1026C000236204F1240300210AE06FF00040E0E7F8
:1026D00001F118063E4416F8186C03F8016B01313D
:1026E0000129F5D9152822DD162342B105213973B8
:1026F00000217973B9730121F973F8682061002111
:102700006FF300016FF341016FF382016FF3C501B5
:10271000022060F38811C3F30A0363F353210023FB
:10272000C1F313011D4816F089FDAD462DE06FF091
:102730001B03DAE760F35328C0F30A0A0AEB1850C8
:10274000173020F007008008FFF7F0FD8346B0B196
:1027500004230293FB1801930A230093534600F1CC
:10276000100221464846FFF74FFF08E004EB1154E2
:10277000173424F00704A008FFF7D8FD834633463A
:1027800042462946584616F042FD1C37BD46BDE874
:10279000F08F00BF800E0208C40E02085C0402081D
:1027A0000EB400B582B0014603AB53F8042B01937D
:1027B000034802F0DBFE02B05DF804EB03B07047A3
:1027C0006393010830B585B011F0440F05D01A4B62
:1027D0001C6834B9002005B030BD1849FFF7E0FF90
:1027E000F9E7174B1968B2FBF1F1B1FBF4FC154A9C
:1027F000A2FB0C32D20A4FF4616E0EFB12CE124BCA
:10280000A3FB0E535B0904FB1C114FF47A7C0CFBF9
:1028100001F1B1FBF4F504FB15110CFB01F1B1FB67
:10282000F4F102910195C3EB0311AEEB810100912C
:102830000649FFF7B5FFCEE738160020E40E020880
:1028400034160020C5B3A29189888888F00E02084A
:1028500061B108B52AB1064A52F8232012B9054AD7
:1028600000E0044A0449FFF79BFF08BD704700BF22
:10287000900F02080C0F0208CC1D02082DE9F04150
:1028800005461746069EDDF81C8099B900242EB136
:10289000324612492846FFF783FF0444B8F1000F7F
:1028A00017D087B10123099A934013F01E0F13D15B
:1028B0000B4909E00B4B099A53F822200A49FFF70C
:1028C0006FFF0446E3E7064942462846FFF768FFE4
:1028D00004442046BDE8F0810449F5E7280F0208CA
:1028E000180F0208A40F0208200F0208140F020894
:1028F0002DE9F04F87B005460C46049205939DF8EC
:102900004C7001F0020B01F0010AC1F3C00801F4A0
:10291000807916F064FC18B3024616492846FFF782
:102920003FFF0646BBF1000F1CD13A4651462846F0
:1029300016F0D7FCB9F1000F01D0002311930397D3
:10294000129B0293119B0193109B00930023049A06
:1029500041462846FFF792FF304407B0BDE8F08FAC
:102960000026DFE7059A21462846FFF72BFF06449D
:10297000DBE700BF2C0F020811F0100F0BD108B5D8
:1029800011F0200F03D00449FFF70AFF08BD0349E7
:10299000FFF706FFFAE77047AC070208300F02089E
:1029A0002DE9F04105460F46164698460699FFF771
:1029B000E3FF0024444505DA24492846FFF7F0FEEA
:1029C0000134F7E7002409E020492846FFF7E8FE34
:1029D0000BE01F492846FFF7E3FE01340F2C0CDC07
:1029E000002C02DD14F0070FEED0B442F1D23A5DB4
:1029F00018492846FFF7D4FEEFE717492846FFF7A6
:102A0000CFFE002409E011492846FFF7C9FE0BE07C
:102A100012492846FFF7C4FE01340F2C13DC002CAA
:102A200002DD14F0070FEED0B44207D23A5D0C4B32
:102A30009B5C13F0970FEBD12E22E9E70349284660
:102A4000FFF7AEFEE8E7BDE8F08100BF000B02082B
:102A50003C0F0208340F0208400F0208440F02081E
:102A6000054802082DE9F04184B004469DF82C5039
:102A70000C9F0E9E95B9012B1ED019484FF00008EF
:102A800027B13B462246174915F0EAFFC6B905BBF8
:102A9000204616F059FC04B0BDE8F08103950A9871
:102AA0000290019300920B4600220F992046FFF7F7
:102AB0001FFF80460C48E3E70B484FF00008DFE7B4
:102AC0000F9B0093434632460D99204616F021FC99
:102AD000DDE72A460F99204616F00FFCD8E700BF25
:102AE0009B9301086D550008639301082DE9F0439D
:102AF00087B006460C469046D1F808900F88C7F379
:102B000082170878C0F3C2004B6833B11249591AD2
:102B100041F3CF0100291ADA0023214651F8105B56
:102B2000C5F34A256288C2F30B12481905B9002182
:102B3000CDF8148004920390029101970022009234
:102B400049463046FFF78EFF07B0BDE8F083FFF738
:102B500037FD0346E1E700BFDC03020870B582B031
:102B60000446056842F20F738B4228BF0B460E4A9B
:102B70000521684615F036FA064663685B680B2245
:102B80000A49284616F0A0FB63685B68324669462E
:102B9000284616F099FB63685B681B2204492846A7
:102BA00016F092FB02B070BD80410208640F02086B
:102BB000480F0208074B01221A6004E04008054A4A
:102BC00013685B001360044B9842F7D8034B1860FE
:102BD000704700BF3416002040420F003816002016
:102BE00070B506460D46002405E0315D0448836853
:102BF0005B6898470134AC42F7D3284670BD00BFEC
:102C000078010208014B0360002070470C10020895
:102C100010B5064C636843F400236360044B1B68E3
:102C200098474FF40023A36010BD00BF000C00586C
:102C30006C16002082B04FF0B043D3F8502142F41C
:102C40008012C3F85021D3F8503103F4801301935C
:102C5000019B0A4B1A6A42F400721A62D3F8D4201C
:102C600042F40072C3F8D42040BF20BF044AD368A6
:102C700043F40043D36002B0704700BF000800581F
:102C80000004005800B583B04FF0B0431A6D42F411
:102C900080121A651B6D03F480130193019B094B8D
:102CA0001A6842F001021A601A6842F480321A600F
:102CB0002C201CF0BDF82D201CF0BAF803B05DF8F4
:102CC00004FB00BF000C0058024A536823F00103C4
:102CD00053607047000C0058024B4FF480329A60EA
:102CE000704700BF000C0058044B4FF400129A606C
:102CF0005A6822F400125A60704700BF000C005856
:102D000008B5044A536843F40013536000F02CFAEA
:102D100008BD00BF000C005808B500F001FA024BD6
:102D200001229A6008BD00BF000C0058024A536897
:102D300023F0020353607047000C0058044B4FF41B
:102D400000329A605A6822F400325A60704700BF1D
:102D5000000C005808B5044A536843F4003353602C
:102D600000F036FA08BD00BF000C005808B5144B3F
:102D7000DB6813F0020F04D1114B5B6813F4003FC2
:102D800014D00F4BDB6813F0080F04D10C4B5B68B9
:102D900013F4002F0DD00A4BDB6813F0200F04D181
:102DA000074B5B6813F4001F06D008BDFFF7D2FF86
:102DB000FBE7FFF72DFFF8E7FFF7A2FFF5E700BFFE
:102DC000000C005808B500F011FA024B02229A607C
:102DD00008BD00BF000C005808B5094BDB6813F0B4
:102DE000080F05D18047064B4FF400229A6008BDBA
:102DF000044B1860024A536823F400235360F6E73B
:102E0000000C00586C16002008B500F039FA024B8F
:102E100008229A6008BD00BF000C005808B5144B8A
:102E2000DB6913F0020F0AD1114BDB6913F0010FBC
:102E30000DD10F4BDB6913F0080F10D108BD0C4BFF
:102E40005B6813F0020FEFD1FFF7BCFFF6E7084B0A
:102E50005B6813F0010FECD1FFF75EFFEEE7044B68
:102E60005B6813F0080FE9D1FFF7CEFFE6E700BF7C
:102E7000000C005808B538B9084B1B6803B19847D7
:102E8000074B00221A7008BD054B01221A70034B34
:102E90001B68002BF7D010469847F4E77016002007
:102EA000FD1A002010B584B004460B4B18600B4887
:102EB00016F0CFFA0120FFF7DDFF094B01221A704F
:102EC000084B1B6833B10394074A0192074A0292E8
:102ED00001A8984704B010BD941600209816002051
:102EE000FC1A00207416002049940108F12E0008F5
:102EF00010B50146034C204616F0C6FA20461BF0DA
:102F0000E7FA10BD9816002010B50C464A68054B2C
:102F10001A60054BD861184600F07CF82068FFF76E
:102F2000C1FF10BD701600207416002000B585B0DA
:102F30001B4816F091FA10B91A4B1B784BB9184878
:102F400016F08AFA10B9174B1B7823BB05B05DF851
:102F500004FB03A9124816F0AFFA134BDB698BB1DF
:102F6000039A029201228DF8042001A898479DF847
:102F700004200C4B1A700B4B1B783BB1039800F0EC
:102F800071F9DCE7074B01221A70F4E70399044852
:102F900016F06EFAD3E702481BF09AFAD6E700BFA4
:102FA00098160020FC1A0020741600202DE9F0412C
:102FB00007460C4616461D460020FFF75BFFDFF86C
:102FC0004880D8F80000A0F80970C4722246314643
:102FD0000C301CF0ECFF01240C4B1C700C4B1B69DB
:102FE00000210846984748F2E80012F0A3F8D8F804
:102FF00000108A78033205F108001CF0D8FF204643
:10300000FFF738FFBDE8F08194160020FB1A00207E
:1030100074160020024B0360024B0361704700BF2F
:1030200079310008B531000800B583B009E001A985
:10303000084816F041FA084B1B690199186916F007
:1030400023FA044816F008FA0028F0D003B05DF81F
:1030500004FB00BFB41600200000032008B50C4B91
:103060000C4A1A600C4A5A600C4A9A600C4A1A625E
:103070000C4A5A620C4ADA600C4A1A610C4A5A61CC
:103080000C4A9A610C4ADA61FFF7FCFD08BD00BFEB
:1030900000000320B8000320A800032098000320AC
:1030A0009000032088000320800003206400032098
:1030B00060000320540003204800032038B5044674
:1030C0000B4D284616F0C5F90A4B5B68A2681A60DA
:1030D000E268DA60084A5A609D60FFF7F5FD2268F1
:1030E000064B1A606268064B1A60002038BD00BFAC
:1030F0003000032000000320E4010320B01600206C
:10310000AC16002008B5054B5A68126801211172EF
:103110005B68FFF7E1FD002008BD00BF0000032051
:1031200000B583B007E001A9074816F0C5F9074BC1
:103130001B6801989847044816F08EF90028F2D0D1
:1031400003B05DF804FB00BF30000320B016002080
:1031500008B5044B5B68DB6802221A72FFF7C4FDF6
:10316000002008BD0000032008B5024B1B689847EB
:1031700008BD00BFAC16002038B50446094D2846EE
:1031800016F067F9084BDB68A2681A605D60FFF70C
:10319000CDFD2268054B1A606268054B1A6000205D
:1031A00038BD00BF2800032000000320A81600201F
:1031B000A416002008B5054BDA68126810211172B8
:1031C000DB68FFF7BBFD002008BD00BF0000032047
:1031D00008B5044BDA68DA68034B1B681068984737
:1031E00008BD00BF00000320A816002000B583B072
:1031F00007E001A9074816F05FF9074B1B68019823
:103200009847044816F028F90028F2D003B05DF87A
:1032100004FB00BF28000320A416002038B5044694
:103220000C4D284616F015F90B4816F012F90B4B09
:103230001B690B4A1360A2689A60E268DA601D613C
:1032400022681A6062685A6022695A6162699A61EA
:1032500038BD00BF40000320B4160020000003204A
:10326000A016002008B50146034816F00DF90348E2
:10327000FFF7B2FD08BD00BFB416002029300008DA
:1032800000B583B006E001A9064816F015F90198CB
:1032900016F022F9034816F0DFF80028F3D003B047
:1032A0005DF804FB3800032070B48DB006460D466F
:1032B0000DF1040C2B4C0FCCACE80F000FCCACE89C
:1032C0000F0094E807008CE80700002E45D0304638
:1032D000002D44D000230FE015F8234005EB8301B7
:1032E0004A78120442EA04628C7842EA0422C978DD
:1032F0000A4340F823200133032BEDD906E0191FC0
:1033000050F821104A4040F8232001332B2B20D8BD
:103310005A1E50F8222013F0030FF0D14FEA326208
:10332000110E114C655CC2F30741615C090441EA6E
:103330000561C2F30725655D41EA0521D2B2A25CB1
:10334000114323F0030230326A4452F82C2C4A40D5
:10335000D5E701200DB070BC70470020FAE70020CF
:10336000F8E700BF740502080C10020800284ED0D0
:1033700070B584B01546064600294AD0002A4AD0C6
:1033800010230A461946684616F0A7F829466846EB
:1033900016F0BDF8002414E01DF803101F48415C2E
:1033A0000DF8031001330F2BF6D9684616F0F0F82C
:1033B000684616F067F9013405EB0411684616F00B
:1033C000A6F8082C01D80023EDE7002306E01DF83D
:1033D000032012498A5C0DF8032001330F2BF6D924
:1033E000684616F0D5F8611C05EB0111684616F029
:1033F0008EF810236A461946304616F06EF81022F1
:103400000021684616F076F8012004B070BD002057
:1034100070470020F9E70020F7E700BF0C10020812
:103420002DE9F04F95B003910568D0F804808768C6
:10343000D0F80CB00469D0F814A0D0F81890D0F8E7
:103440001CC00026CDF804B0E346029030E003A88B
:1034500016F043FA14AB03EB860343F8400C4FEA33
:10346000F42383EAB41383EA74635B4404EA0A0234
:1034700029EA04014A4013444E4A52F826201344D4
:1034800018444FEA753383EAB50383EAB55388EAF3
:1034900007022A4008EA07014A4013440136CB4696
:1034A000D146A246019C044401974746A846C51848
:1034B0000F2ECCD9DC46DDF804B03F2E5ED806F1E5
:1034C000010E0EF00F0314AA02EB830353F8402CF5
:1034D0004FEAB24383EAF21383EAD20306F10E0203
:1034E00002F00F0214A901EB820252F8401C4FEACD
:1034F000F14282EA714282EA912206F00F0114A899
:1035000000EB810151F8400C0190134406F10902CF
:1035100002F00F0214A800EB820252F8402C134470
:10352000019A134441F8403C4FEAF42282EAB41273
:1035300082EA7462624404EA0A0129EA0400414012
:103540000A441C4951F826100A4413444FEA7532C4
:1035500082EAB50282EAB55188EA07022A4008EAFF
:10356000070042400A447646CC46D146A2460BEBC1
:103570000304BB464746A8469D189EE70298036889
:103580002B44036043684344436083683B44836047
:10359000C3685B44C36003692344036143695344C4
:1035A000436183694B448361C3696344C36115B05C
:1035B000BDE8F08F0C110208E0B110B5044670228E
:1035C000002115F097FF0C4B23600C4B63600C4BF4
:1035D000A3600C4BE3600C4B23610C4B63610C4B01
:1035E000A36103F17453A3F52303A3F69243E361AC
:1035F000012010BD0020704767E6096A85AE67BBF1
:1036000072F36E3C3AF54FA57F520E518C68059BC4
:10361000ABD9831F2DE9F04182B000AF0446D0F84A
:1036200000E0D0F804C086686D468AB06B4613F19E
:10363000100200F001811820BAB10146042803DD10
:10364000DFF82482C3F81480082903DDDFF81C8228
:10365000C3F818800C2901DDC3F81CE0102901DD36
:10366000C3F820C0142900DD5E62172840F3E7800C
:103670004FF0180C3AB10621397100217971B971F6
:10368000F9717868186100216FF300016FF341014F
:103690006FF382016FF3C501012363F38811CCF34B
:1036A0000A0C6CF353216FF31F5100237048FEF78F
:1036B000C3FFAD46D4F80CE0D4F810C066696D467F
:1036C0008AB06B4613F1100200F0BC801820BAB12A
:1036D0000146042803DDDFF89C81C3F81480082923
:1036E00003DDDFF88881C3F818800C2901DDC3F8F9
:1036F0001CE0102901DDC3F820C0142900DD5E6242
:10370000172840F3A2804FF0180C3AB10621397106
:1037100000217971B971F9717868186100216FF32E
:1037200000016FF341016FF382016FF3C5010123C3
:1037300063F38811CCF30A0C6CF353216FF31F5120
:1037400000234B48FEF778FFAD46E6696D4688B02A
:103750006B4613F110027BD010217AB10846042980
:1037600003DDDFF814C1C3F814C0082803DDDFF857
:10377000FCC0C3F818C00C2800DDDE610F296ADD2B
:103780004FF0100C3AB10421397100217971B971EF
:10379000F9717868186100216FF300016FF341013E
:1037A0006FF382016FF3C501012363F38811CCF33A
:1037B0000A0C6CF353216FF31F5100232C48FEF7C2
:1037C0003BFFAD46A46988B06B4613F1100245D0AB
:1037D00010215AB10846042901DD284D5D610828F1
:1037E00001DD224D9D610C2800DDDC610F2938DDF3
:1037F00010243AB10421397100217971B971F9713C
:103800007868186100216FF300016FF341016FF3D5
:1038100082016FF3C501012363F38811C4F30A0425
:1038200064F353216FF31F5100231148FEF704FF87
:103830000837BD46BDE8F0816FF00040FCE66FF050
:103840001B0C17E76FF0004041E76FF01B0C5CE7C3
:103850006FF0004181E76FF01B0C93E76FF00041C0
:10386000B7E76FF01B04C4E70C120208BC12020891
:103870008C0402084012020874120208881202081E
:1038800030BFFFF7FDBF00BF38B50446084D2A46DC
:1038900008491CF08CFB0848431E2B44B3FBF0F393
:1038A000064A002100FB03401CF08FFB38BD00BF1F
:1038B00000000000F80402080100000004000000FD
:1038C00070B505460C480D4A0244013AB2FBF0F2CD
:1038D0000B4B0C4C1C44013CB4FBF3F404FB03F312
:1038E00000FB02340E1B3046FFF7CEFF083EC5F842
:1038F000A86004F1080070BD010000000000000095
:103900000400000004000000044B996858698842D4
:1039100003D003494FF080520A607047B41A002068
:1039200004ED00E081690D4B5A6942F480725A61DE
:10393000BFF34F8FBFF36F8F31F8021C5A6922F427
:1039400080725A61BFF34F8FBFF36F8F4DF60273D2
:10395000994201D0002070470120704700ED00E03F
:103960004FF0000C83F800C002F07F4CBCF17F4F99
:103970004ED102F00C0CBCF1080F04D012F0080F6D
:1039800043D008467047B0B582B000AF6C4688B0EF
:103990006B4613F1100232D00C2142B108460429C3
:1039A00001DD1C4D5D61082801DD1B4898610B2974
:1039B00028DD4FF00C0C3AB10321397100217971E7
:1039C000B971F9717868186100216FF300016FF324
:1039D00041016FF382016FF3C501012363F3881185
:1039E000CCF30A0363F353216FF31F5100230B48F9
:1039F000FEF722FEA54600200837BD46B0BD6FF099
:103A00000041CAE76FF01B0CD5E701221A7070471E
:103A100000207047C8120208001702088C04020830
:103A20002DE9F04182B000AF05460E461446E84647
:103A300088B06B4613F1100200F041810C2152B1A5
:103A40000846042903DDDFF8B8C2C3F814C008280B
:103A500001DDAC4898610B2940F334814FF00C0C28
:103A60003AB10321397100217971B971F97178681E
:103A7000186100216FF300016FF341016FF38201C0
:103A80006FF3C501012363F38811CCF30A0C6CF3C7
:103A900053216FF31F5100239B48FEF7CDFDC54610
:103AA0009A4B9B6A13F4805F00F01581E84688B05A
:103AB0006B4613F1100200F008810C2152B1084648
:103AC000042903DDDFF848C2C3F814C0082801DD6B
:103AD0008C4898610B2940F3FB804FF00C0C3AB1F5
:103AE0000321397100217971B971F9717868186110
:103AF00000216FF300016FF341016FF382016FF357
:103B0000C501012363F38811CCF30A0C6CF3532134
:103B10006FF31F5100237C48FEF78EFDC5464FF022
:103B200017087A4B9B6A13F4006F3AD0E84688B0C6
:103B30006B4613F1100200F0D1800C2152B10846FF
:103B4000042903DDDFF8CCC1C3F814C0082801DD67
:103B50006C4898610B2940F3C4804FF00C0C3AB1CB
:103B60000321397100217971B971F971786818618F
:103B700000216FF300016FF341016FF382016FF3D6
:103B8000C501012363F38811CCF30A0C6CF35321B4
:103B90006FF31F5100235C48FEF74EFDC5464FF002
:103BA00018085A4B9B6A13F4007F00F0BB80E8466C
:103BB00088B06B4613F1100200F096800C2152B1D0
:103BC0000846042903DDDFF850C1C3F814C00828F3
:103BD00001DD4C4898610B2940F389804FF00C0CB3
:103BE0003AB10321397100217971B971F97178689D
:103BF000186100216FF300016FF341016FF382013F
:103C00006FF3C501012363F38811CCF30A0C6CF345
:103C100053216FF31F5100233B48FEF70DFDC546AE
:103C20003A4B986B9B6A13F4004F79D0E84688B002
:103C30006B4613F110025DD010218AB18C46042925
:103C400003DDDFF8D8E0C3F814E0BCF1080F03DDB2
:103C5000DFF8B0E0C3F818E0BCF10C0F00DDD8616C
:103C60000F294ADD4FF0100C3AB1042139710021BF
:103C70007971B971F9717868186100216FF30001E9
:103C80006FF341016FF382016FF3C501012363F309
:103C90008811CCF30A0C6CF353216FF31F510023EE
:103CA0001948FEF7C9FCC546002E00F0C080174A2F
:103CB000936A23F4004393624FF0190832E06FF0E7
:103CC0000041BCE66FF01B0CCAE66FF00041F5E660
:103CD0006FF01B0C03E74FF0160822E76FF000416E
:103CE0002CE76FF01B0C3AE76FF0004167E76FF0CD
:103CF0001B0C75E76FF000419FE76FF01B0CB3E7FB
:103D0000F8120208D41602088C04020800ED00E044
:103D1000141302082C130208441302086413020847
:103D20004FF019086A4B9B6A13F4806F35D0E84650
:103D300088B06B4613F110027CD00C2142B10846CA
:103D4000042901DD634E5E61082801DD6248986147
:103D50000B2972DD0C263AB10321397100217971EA
:103D6000B971F9717868186100216FF300016FF380
:103D700041016FF382016FF3C501012363F38811E1
:103D8000C6F30A0666F353216FF31F51002353480D
:103D9000FEF752FCC5464FF01A084D4B9B6A13F4D0
:103DA000807F53D0E84688B06B4613F1100247D0AD
:103DB0000C2142B10846042901DD494E5E61082804
:103DC00001DD454898610B293DDD0C263AB1032100
:103DD000397100217971B971F97178681861002120
:103DE0006FF300016FF341016FF382016FF3C501BF
:103DF000012363F38811C6F30A0666F353216FF3B8
:103E00001F5100233548FEF717FCC5464FF01B082D
:103E10002F4A936A43F47F4393620121284615F0A9
:103E2000E2FF207040460837BD46BDE8F0814FF004
:103E3000190877E76FF0004180E76FF01B068AE70B
:103E40006FF00041B5E76FF01B06BFE7204B9B6AA0
:103E500013F4005FDCD0E84688B06B4613F1100223
:103E600030D00C2142B10846042901DD1D4E5E61AF
:103E7000082801DD184898610B2926DD0C263AB187
:103E80000321397100217971B971F971786818616C
:103E900000216FF300016FF341016FF382016FF3B3
:103EA000C501012363F38811C6F30A0666F35321A3
:103EB0006FF31F5100230948FEF7BEFBC5464FF0C4
:103EC0001C08A5E76FF00041CCE76FF01B06D6E7B2
:103ED00000ED00E080130208D41602088C040208EA
:103EE000A0130208BC130208B0B582B000AF6C4644
:103EF00088B06B4613F1100200F06A810C2142B1C8
:103F00000846042901DDB84D5D61082801DDB74888
:103F100098610B2940F35F814FF00C0C3AB10321FB
:103F2000397100217971B971F971786818610021CE
:103F30006FF300016FF341016FF382016FF3C5016D
:103F4000012363F38811CCF30A0C6CF353216FF354
:103F50001F510023A648FEF76FFBA546A54B9B6AA1
:103F600013F0007F00F052816D4688B06B4613F16C
:103F7000100200F033810C2142B10846042901DD12
:103F80009D4C5C61082801DD984898610B2940F33D
:103F900028810C243AB10321397100217971B9715A
:103FA000F9717868186100216FF300016FF3410126
:103FB0006FF382016FF3C501012363F38811C4F32A
:103FC0000A0464F353216FF31F5100238848FEF75E
:103FD00033FBAD461E20874B9B6A13F0807F36D0A3
:103FE0006D4688B06B4613F1100200F011810C2170
:103FF00042B10846042901DD804C5C61082801DDDE
:104000007A4898610B2940F306810C243AB10321C8
:10401000397100217971B971F971786818610021DD
:104020006FF300016FF341016FF382016FF3C5017C
:10403000012363F38811C4F30A0464F353216FF37B
:104040001F5100236A48FEF7F7FAAD461F20694B5F
:104050009B6A13F4002F36D06D4688B06B4613F17F
:10406000100200F0DB800C2142B10846042901DD7A
:10407000634C5C61082801DD5C4898610B2940F3C2
:10408000D0800C243AB10321397100217971B971C2
:10409000F9717868186100216FF300016FF3410135
:1040A0006FF382016FF3C501012363F38811C4F339
:1040B0000A0464F353216FF31F5100234C48FEF7A9
:1040C000BBFAAD4621204B4B9B6A13F4802F36D0B0
:1040D0006D4688B06B4613F1100200F0A5800C21EC
:1040E00042B10846042901DD464C5C61082801DD27
:1040F0003E4898610B2940F39A800C243AB1032181
:10410000397100217971B971F971786818610021EC
:104110006FF300016FF341016FF382016FF3C5018B
:10412000012363F38811C4F30A0464F353216FF38A
:104130001F5100232E48FEF77FFAAD4622202D4B5B
:104140009B6A13F4003F34D06D4688B06B4613F180
:1041500010026FD00C2142B10846042901DD2A4C1F
:104160005C61082801DD214898610B2965DD0C247C
:104170003AB10321397100217971B971F971786807
:10418000186100216FF300016FF341016FF38201A9
:104190006FF3C501012363F38811C4F30A0464F3C8
:1041A00053216FF31F5100231148FEF745FAAD4626
:1041B0002320104B9B6A13F4803F41D10D4A936A30
:1041C0006FEA03436FEA134393620837BD46B0BDFD
:1041D0006FF0004193E66FF01B0C9FE66FF000411B
:1041E000CAE66FF01B04D5E6F0130208C8160208F1
:1041F0008C04020800ED00E00C14020824140208EC
:104200004414020868140208941402081D20E2E60F
:104210006FF00041ECE66FF01B04F7E66FF0004131
:1042200022E76FF01B042DE76FF0004158E76FF0B5
:104230001B0463E76FF000418DE76FF01B0497E705
:104240006D4688B06B4613F110022FD00C2142B19D
:104250000846042901DD184C5C61082801DD174877
:1042600098610B2925DD0C243AB103213971002115
:104270007971B971F9717868186100216FF30001E3
:104280006FF341016FF382016FF3C501012363F303
:104290008811C4F30A0464F353216FF31F51002300
:1042A0000748FEF7C9F9AD46242087E76FF00041C3
:1042B000CDE76FF01B04D7E7B4140208C816020854
:1042C0008C04020890B583B000AF00230B7088B057
:1042D0006B4613F1100230D00C2142B1084604297C
:1042E00001DD194C5C61082801DD184898610B2933
:1042F00026DD4FF00C0C3AB10321397100217971A0
:10430000B971F9717868186100216FF300016FF3DA
:1043100041016FF382016FF3C501012363F388113B
:10432000CCF30A0C6CF353216FF31F5100230848A0
:10433000FEF782F90C37BD4690BD6FF00041CCE727
:104340006FF01B0CD7E700BFE4140208B816020890
:104350008C040208B0B582B000AF0F2929DC324CC2
:10436000103901233B7103237B718AB0EC461CF1A9
:10437000100220D0162052B10346042802DD2B4D36
:10438000CCF81450082B02DD294BCCF8183001234F
:104390003B7003237B70E2B103460C2801DDCCF8AF
:1043A0001C40102B01DDCCF820100CF1240300215F
:1043B0000DE0204CD4E76FF00040DCE701F1080489
:1043C00004EB070E1EF808EC03F801EB013101299C
:1043D000F4D9152824DD16234AB1052139710021AD
:1043E0007971B9710121F9717868CCF81000002158
:1043F0006FF300016FF341016FF382016FF3C501A9
:10440000012060F38811C3F30A0363F353216FF3B0
:104410001F5100230848FEF70FF90837BD46B0BD0D
:104420006FF01B03D8E700BF0C1502084015020807
:10443000A4160208241502088C0402082DE9F04392
:1044400083B000AF04460E461546E84688B06B467A
:1044500013F1100200F042810C2152B108460429E8
:1044600003DDDFF8BCC2C3F814C0082801DDAD4885
:1044700098610B2940F335814FF00C0C3AB10321C0
:10448000397100217971B971F97178681861002169
:104490006FF300016FF341016FF382016FF3C50108
:1044A000012363F38811CCF30A0C6CF353216FF3EF
:1044B0001F5100239C48FEF7BFF8C5469B4B9B6AE3
:1044C00013F0100F00F01681E84688B06B4613F128
:1044D000100200F009810C2152B10846042903DDC5
:1044E000DFF84CC2C3F814C0082801DD8D4898617C
:1044F0000B2940F3FC804FF00C0C3AB103213971C9
:1045000000217971B971F9717868186100216FF330
:1045100000016FF341016FF382016FF3C5010123C5
:1045200063F38811CCF30A0C6CF353216FF31F5122
:1045300000237D48FEF780F8C5464FF011087B4BFD
:104540009B6A13F0080F3AD0E84688B06B4613F127
:10455000100200F0D2800C2152B10846042903DD7C
:10456000DFF8D0C1C3F814C0082801DD6D48986198
:104570000B2940F3C5804FF00C0C3AB1032139717F
:1045800000217971B971F9717868186100216FF3B0
:1045900000016FF341016FF382016FF3C501012345
:1045A00063F38811CCF30A0C6CF353216FF31F51A2
:1045B00000235D48FEF740F8C5464FF012085B4BFC
:1045C0009B6A13F0020F00F0BB80E84688B06B4690
:1045D00013F1100200F097800C2152B10846042913
:1045E00003DDDFF854C1C3F814C0082801DD4D48CD
:1045F00098610B2940F38A804FF00C0C3AB10321EB
:10460000397100217971B971F971786818610021E7
:104610006FF300016FF341016FF382016FF3C50186
:10462000012363F38811CCF30A0C6CF353216FF36D
:104630001F5100233C48FDF7FFFFC5463B4BD3F815
:1046400034909B6A13F0800F00F02281E84688B016
:104650006B4613F110025CD0102182B10846042988
:1046600003DDDFF8D8C0C3F814C0082803DDDFF885
:10467000B4C0C3F818C00C2801DDC3F81C900F2982
:104680004ADD4FF0100C3AB10421397100217971E3
:10469000B971F9717868186100216FF300016FF347
:1046A00041016FF382016FF3C501012363F38811A8
:1046B000CCF30A0C6CF353216FF31F5100231A48FB
:1046C000FDF7BAFFC546002E00F0E780174A936A4F
:1046D00023F0800393624FF0130833E06FF0004142
:1046E000BBE66FF01B0CC9E66FF00041F4E66FF01B
:1046F0001B0C02E74FF0100821E76FF000412BE799
:104700006FF01B0C39E76FF0004166E76FF01B0C90
:1047100074E76FF00041A0E76FF01B0CB3E700BF38
:1047200058150208E01602088C04020800ED00E0AB
:10473000741502082C130208AC150208C8150208EB
:104740006FF01509624B9B6A13F0010F3AD06E4669
:1047500088B06B4613F1100200F0A2800C2152B118
:104760000846042903DDDFF86CC1C3F814C008282B
:1047700001DD594898610B2940F395804FF00C0CEE
:104780003AB10321397100217971B971F9717868F1
:10479000186100216FF300016FF341016FF3820193
:1047A0006FF3C501012363F38811CCF30A0C6CF39A
:1047B00053216FF31F5100234848FDF73DFFB546D5
:1047C0004FF01408424B9B6A13F0200F38D06E460E
:1047D00088B06B4613F1100268D00C2152B1084624
:1047E000042903DDDFF8F8C0C3F814C0082801DD90
:1047F000394898610B295CDD4FF00C0C3AB103216C
:10480000397100217971B971F971786818610021E5
:104810006FF300016FF341016FF382016FF3C50184
:10482000012363F38811CCF30A0C6CF353216FF36B
:104830001F5100232948FDF7FFFEB5464FF015082C
:10484000234B9B6A13F0100F04D1214B9B6A13F08A
:10485000020F04D01E4B5B6813F4006F2CD11C4B6D
:104860009B6A13F0200F04D0194A536A23F40053B3
:104870005362174A936A43F0FF0393620121204673
:1048800015F0B1FA287040460C37BD46BDE8F083FC
:104890006FF015094FF0130854E74FF0130851E774
:1048A0006FF000415BE76FF01B0C69E76FF00041B0
:1048B00094E76FF01B0CA1E72146484600F0ECFAA4
:1048C0000028CCD080F309884FF00208C7E700BF6A
:1048D00000ED00E0E4150208E01602088C0402086E
:1048E000BC130208F0B583B000AF05460C466E4617
:1048F00088B06B4613F1100270D00C2152B10846FB
:10490000042903DDDFF8D0C2C3F814C0082801DD94
:10491000B24898610B2964DD4FF00C0C3AB10321C9
:10492000397100217971B971F971786818610021C4
:104930006FF300016FF341016FF382016FF3C50163
:10494000012363F38811CCF30A0C6CF353216FF34A
:104950001F510023A248FDF76FFEB54600232370C8
:10496000A04BDE6A16F0020644D06D4688B06B4656
:1049700013F1100238D00C2142B10846042901DDA0
:10498000994C5C61082801DD944898610B292EDD63
:104990000C243AB10321397100217971B971F9718F
:1049A0007868186100216FF300016FF341016FF324
:1049B00082016FF3C501012363F38811C4F30A0474
:1049C00064F353216FF31F5100238548FDF734FE34
:1049D000AD46002630460C37BD46F0BD6FF00041B5
:1049E0008CE76FF01B0C99E76FF00041C4E76FF0A4
:1049F0001B04CEE77B4BDB6A002BC0F28280794B35
:104A0000DE6A16F08046E5D06E4688B06B4613F13C
:104A1000100200F0B1800C2152B10846042903DDD8
:104A2000DFF8C8C1C3F814C0082801DD6B489861DD
:104A30000B2940F3A4804FF00C0C3AB103213971DB
:104A400000217971B971F9717868186100216FF3EB
:104A500000016FF341016FF382016FF3C501012380
:104A600063F38811CCF30A0363F353216FF31F51EF
:104A700000235B48FDF7E0FDB5462846FEF752FFF0
:104A8000002800F085802C686E4688B06B4613F1D4
:104A9000100277D010217AB10846042903DDDFF82F
:104AA00050C1C3F814C0082803DDDFF830C1C3F8D3
:104AB00018C00C2800DDDC610F2966DD10243AB136
:104AC0000421397100217971B971F971786818611F
:104AD00000216FF300016FF341016FF382016FF367
:104AE000C501012363F38811C4F30A0363F353215F
:104AF0006FF31F5100233A48FDF79EFDB5462E681F
:104B000068E76D4688B06B4613F110022ED00C2179
:104B100042B10846042901DD364C5C61082801DDFC
:104B20002E4898610B2924DD0C243AB103213971F8
:104B300000217971B971F9717868186100216FF3FA
:104B400000016FF341016FF382016FF3C50101238F
:104B500063F38811C4F30A0363F353216FF31F5106
:104B600000231F48FDF768FDAD4633E76FF00041B5
:104B7000CEE76FF01B04D8E76FF000414CE76FF011
:104B80001B0C5AE76FF0004185E76FF01B0496E7B6
:104B9000144B9B6A13F0FF0F0FD1124B9E6A16F451
:104BA0007F4611D10F4B9B6AB3F5803FFFF412AFE4
:104BB0002846FFF799F906460CE7224601212846C8
:104BC000FFF73CFC064605E7224601212846FEF792
:104BD00027FF0646FEE600BF08160208F416020884
:104BE0008C04020800ED00E024160208601602089A
:104BF000841602084C16020830B58BB01F4B5D6856
:104C0000C5F30805002383F31188BFF36F8F0DF1FF
:104C10002603FEF7A5FE04460DF12702294615F0EE
:104C2000E4F89DF827300BB10BB030BD05460DF10F
:104C3000040C20686168A268E368ACE80F00206992
:104C40006169A269E369ACE80F009DF826304BB1B9
:104C5000089BC3F308025AB96FEA53236FEA432350
:104C6000089305E0089B23F4FF7323F001030893E6
:104C700001A9284615F09FF8D6E700BF00ED00E037
:104C8000024A536943F010035361704700ED00E09E
:104C9000EFF30880EFF3098101B57246FFF7ACFF2F
:104CA00001BD00BF00200A490870102080F3118860
:104CB00008484FF40461401880F30988EFF314802A
:104CC0000221084380F31488BFF36F8F00F09EF831
:104CD000051B0020002E002008B50A4B9B6883426C
:104CE00002D01AF052FB08BDEFF30583002BF8D079
:104CF000054B5A6842F080525A605A6A22F40042C8
:104D00005A62EEE7B41A002000ED00E00A4A936808
:104D1000C3F8AC006FF00A01C3F8B01007494B6844
:104D200043F080534B60002383F31188BFF36F8FF0
:104D30009368D3F8B0007047B41A002000ED00E08B
:104D400016498A684FF030001044EFF3098C80E870
:104D5000F01F102080F31288BFF36F8F104F4FF0B9
:104D600000664A698A603E604FF0A8041419206802
:104D70000C4C2060D2F8AC000023C2F8AC3080F3B9
:104D8000118804B5104600F04BF9BDE8044002F16B
:104D9000300090E8F01F8CF309887047B41A0020A7
:104DA00004ED00E0BC1600201EF0040F0CBFEFF372
:104DB0000880EFF30980816911F8021C0229FFD0F5
:104DC00001B515F004F801BD002807DB00F01F0253
:104DD000400901239340024A42F82030704700BF47
:104DE00000E100E0002808DB0901C9B200F16040E1
:104DF00000F5614080F80013704700F00F000901D2
:104E0000C9B2014B1954704714ED00E008B50F4BBF
:104E10000F4A22F07F029A60BFF34F8FBFF36F8F6C
:104E2000D3F8882022F47002C3F88820EFF31483AB
:104E300023F0040383F31488BFF36F8F11F0DEFEB9
:104E400012F02AFE00F07CF811F044FF00ED00E0C3
:104E50000000000810B4A2F120040E4942F8081C1A
:104E600021F0010142F8081C42F8203C019B42F865
:104E70001C3C029B42F8183C039B42F8143C4FF048
:104E8000807342F8043C04650023C0F8AC3010BCC9
:104E9000704700BF2D1F0008104B9B68BBB110F17D
:104EA000160F0BD0D3F89820A2F1400C844510D8EF
:104EB000824210D98A4207D800207047D3F8982040
:104EC0008A4201D800207047D3F89800704700202C
:104ED0007047002070470020704700BFB41A0020C0
:104EE00008B50D4614460A4A9060D0F8A820094B30
:104EF0001A6000F095F8204685F30988002163B612
:104F000081F31188BFF36F8F00220023FDF70EF8A5
:104F1000B41A0020BC160020014910220A60704714
:104F200010ED00E072B6404080F31188BFF36F8F40
:104F3000BFF34F8F30BF62B6BFF36F8F704700BFB4
:104F4000002206E003F00F030949194410230B76F1
:104F500001323E2A0ADC53B2002BF3DB03F160433B
:104F600003F56143102183F80013F1E7704700BF98
:104F7000FCEC00E001B5EFF30580A0F110004FEA72
:104F8000C0000449014409C99847BDE801400249ED
:104F9000084700008C01020809390008074AD2F8C6
:104FA000FC3043F08073C2F8FC30054B00225A609D
:104FB0001A6842F001021A60704700BF00ED00E07D
:104FC000001000E0034B00225A601A6842F0010210
:104FD0001A607047001000E0014B586800217047CC
:104FE000001000E001480021704700BF0048E801C0
:104FF00008B5FFF7F7FF024A0023FBF7A1F808BD49
:1050000040420F0008B5034B034A0121034814F046
:1050100078FF08BD000003200000002008170208E8
:1050200008B5D0F89830403B044803604023436003
:10503000034B8360012114F068FF08BDC0160020F7
:1050400000000B15084AC2F898000B6823F01F03F4
:10505000034343F01003C2F89C308B6843F0010314
:10506000C2F8A030704700BF00ED00E0F0B583B09B
:1050700000AF0446264BD3F89030C3F30723013B1F
:10508000984205D8FFF7DEFF20460C37BD46F0BD3D
:105090006D4688B06B4613F1100233D010215AB11F
:1050A0000846042901DD1B4E5E61082801DD1A4E09
:1050B0009E610C2800DDDC610F2926DD10243AB149
:1050C0000421397100217971B971F9717868186119
:1050D00000216FF300016FF341016FF382016FF361
:1050E000C501012363F38811C4F30A0464F3532157
:1050F0006FF31F5100230948FDF79EFAAD466FF08C
:105100001500C2E76FF00041C9E76FF01B04D6E756
:1051100000ED00E018170208B41702087404020832
:105120002DE9F04782B000AF814688469A46164680
:1051300000250FE06FF0004124E06FF01B0431E028
:105140002146F0B214F0BEFE064610F1160F4BD009
:1051500001360135454547DA05EB450409EB840482
:105160006268002AF5D0BAF1000FE9D0204614F0A9
:1051700098FE0028E4D16E4688B06B4613F1100209
:10518000D8D010215AB10846042901DD194C5C61C0
:10519000082801DD184C9C610C2800DDDD610F2919
:1051A000CBDD10243AB10421397100217971B97134
:1051B000F9717868186100216FF300016FF3410104
:1051C0006FF382016FF3C501012363F38811C4F308
:1051D0000A0363F353216FF31F5100230748FDF7C0
:1051E0002BFAB5466FF0150630460837BD46BDE8C8
:1051F000F08700BF44170208D017020874040208A1
:1052000010B5034C01232278FFF78AFF207010BDF0
:10521000FE1A002008B500230B4A1278FFF780FF22
:1052200010F1160F0FD0024606E0084BC3F8982085
:105230000021C3F8A0100132044BD3F89030C3F31F
:1052400007239342F1DC08BDFE1A002000ED00E0C8
:10525000F0B585B000AF054607F10C00FDF7D2FCB4
:105260000646002426E0B3F5801F40F0CD8050684C
:1052700051F80C109368202B67D9B3F1004F66D812
:10528000013BB3FA83F3C3F11F035B0003F03E035A
:1052900043F0885343F4302338607960BB6039466B
:1052A0002878FFF7E3FE0028C0F2E2802B78013374
:1052B0002B700134B44280F0E6804FEA041CF96898
:1052C00001EB0412D3681B0D1B05B3F5000F61D071
:1052D0001ED8B3F5001F3CD0B3F5800FC3D1506882
:1052E00051F80C109368202B50D9B3F1004F4FD8D0
:1052F000013BB3FA83F3C3F11F035B0003F03E03EA
:1053000043F0E06343F4003338607960BB60C6E784
:10531000B3F1807F59D0B3F1007F75D1506851F857
:105320000C109368202B6BD9B3F1004F6AD8013B66
:10533000B3FA83F3C3F11F035B0003F03E0343F4AE
:10534000802338607960BB60A9E70823A0E73E238B
:105350009EE7506851F80C109368202B12D9B3F1D6
:10536000004F11D8013BB3FA83F3C3F11F035B0075
:1053700003F03E0343F0885343F400233860796020
:10538000BB608CE70823F5E73E23F3E70823B7E784
:105390003E23B5E7506851F80C109368202B10D9C4
:1053A000B3F1004F0FD8013BB3FA83F3C3F11F03EE
:1053B0005B0003F03E0343F0827338607960BB60AA
:1053C0006DE70823F7E73E23F5E7506851F80C1026
:1053D0009368202B10D9B3F1004F0FD8013BB3FADB
:1053E00083F3C3F11F035B0003F03E0343F08873B4
:1053F00038607960BB6052E70823F7E73E23F5E7A2
:1054000008239CE73E239AE76D4688B06B4613F16C
:10541000100232D00C2142B10846042901DD1B4C98
:105420005C61082801DD1A4898610B2928DD0C24ED
:105430003AB10321397000217970B970F970386878
:10544000186100216FF300016FF341016FF38201D6
:105450006FF3C501012363F38811C4F30A0363F3F7
:1054600053216FF31F5100230A48FDF7E5F8AD46BD
:105470006FF015001437BD46F0BD6FF00041CAE76C
:105480006FF01B04D4E70020F4E700BF6C1702089C
:105490009417020874040208044B0522C3F89420F0
:1054A000BFF34F8FBFF36F8F704700BF00ED00E079
:1054B000BFF35F8F024B0022C3F89420704700BFF8
:1054C00000ED00E038B51C4B1D681C4BD3F8903044
:1054D000C3F307239D422BD8FFF7EAFF002409E01E
:1054E000154B5B6804EB440103EB81012046FFF799
:1054F000A9FD0134A542F3D811480570FFF7A8FEB5
:1055000010F1160F13D00E4B1A780C4BD3F89030C5
:10551000C3F307239A4207DA084BC3F89820002107
:10552000C3F8A0100132F0E7FFF7B6FF002038BD46
:105530004FF0FF30FBE700BFE817020800ED00E086
:10554000FE1A002008B5024B1B689847002008BDD2
:10555000CC160020034B1860034A937843F00203F3
:1055600093707047CC160020A801002030B587B09A
:105570000D4611460024009401940294039404946F
:10558000059402228DF80220044A019204900595A8
:105590001A46684612F052FD07B030BD139F01084D
:1055A00008B5064921F00701C1F1005202F5403269
:1055B000034813F0DAF9002008BD00BF234A002099
:1055C000D0160020F0B58BB004460D461646037881
:1055D000032B38D8DFE803F002212B311D4B93E871
:1055E00003000790ADF82010090C8DF822106379A4
:1055F0002279E178A07867780DF11C0CCDF814C001
:1056000004970390029101920093A379124A3146C4
:10561000284612F0E7FC0BB0F0BD104B93E80300F6
:105620000790ADF82010090C8DF82210DFE70C4A26
:1056300007AB07CA03C31A80D9E70A4A07AB07CAF0
:1056400003C31A80D3E7084A0A2107A812F0CAFC4C
:10565000CDE700BF9C060208AC060208A4060208BB
:10566000D0060208DC060208D03C0208402928BF08
:10567000402100238B421CD230B410F803C04FEA03
:105680001C1C5A000D4D15F80CC00D4C04F813C02D
:1056900010F803C00CF00F0C013215F80C50A55493
:1056A00001338B42E9D30648002200F8132030BCB6
:1056B00070470348002200F8132070473018020892
:1056C000FC16002010B5034C1E222146FFF77AFF7E
:1056D000204610BDDC16002070B584B002AE002458
:1056E00002940394084B0293084D28461AF080F860
:1056F00000960A234FF4A3620549284612F07EF96A
:10570000204604B070BD00BF4C180208E00B00201A
:10571000801E002008B5014601481AF08BF808BD2C
:10572000E00B002010B586468C460378012B18D07C
:10573000022B32D003B110BD224C0FCCCCF80000AC
:10574000CCF80410CCF80820CCF80C3023788CF876
:105750001030BEF802308CF80D301B0A8CF80E3079
:10576000E9E7184C0FCCCCF80000CCF80410CCF8CA
:105770000820CCF80C3023788CF81030DEF8043098
:105780008CF80D30C3F307228CF80E201A0C8CF81D
:105790000F201B0E8CF81030CDE70068DEF80410E7
:1057A000DEF80820DEF80C30CCF80000CCF804104D
:1057B000CCF80820CCF80C309EF810308CF8103063
:1057C000B9E700BF5818020838B50446054818F074
:1057D000D8FC054620B101210C3018F099FD2C763B
:1057E000284638BD3C05002010B513280ED091B1D5
:1057F0000B4818F0C6FC044634B1012104F10C003A
:1058000018F086FD01232376204610BD054818F0C8
:10581000B8FC0446F0E70120FFF7D6FF0446F3E7A3
:10582000B804002068050020002303B17047054A32
:1058300032F8132022B940F47042024921F81320B3
:105840000133F2E78017002040F4704000230BB1D1
:1058500000207047064A32F81320824201D00133FB
:10586000F5E7034A002122F813100120704700BF1A
:1058700080170020C2685178084B83F87010518857
:10588000A3F87210117983F87110B2F80710A3F819
:105890007410B2F80520A3F87620704700000020AD
:1058A000C268034BD2F80100D2F8051003C3704759
:1058B000D800002030B5C46804F1010C094D413412
:1058C000AE46DCF80000DCF80410DCF80820DCF858
:1058D0000C30AEE80F000CF1100C7546A445EFD16A
:1058E00030BD00BF80000020C268034BD2F8010029
:1058F000D2F8051003C370477800002008B5C068CF
:10590000013014F0DFFB024BC3E9380108BD00BFD2
:1059100000000020C3685A78014B83F820217047AB
:105920000000002008B5C3681B789BB904F0ACF8F0
:10593000094BBFF35B8F1A68BFF35B8F02F009025C
:10594000BFF35B8F53E8001F43E800200028F9D124
:10595000BFF35B8F08BD00BFD000002008B5C3684F
:10596000B3F8012091B209B1D97801B908BD054851
:10597000A0F80421D9780A4600F5847019F020FEB9
:10598000F4E700BF0000002008B5C268084BB3F878
:10599000043103B108BDB2F801300548A0F8043164
:1059A00091880A4600F5847019F00AFEF2E700BFFC
:1059B00000000020B0B582B000AFC3681C7888B08A
:1059C0006B4613F1100233D010215AB10846042956
:1059D00001DD1A4D5D61082801DD194D9D610C281E
:1059E00000DDDC610F2926DD4FF0100C3AB10421F7
:1059F000397100217971B971F971786818610021E4
:105A00006FF300016FF341016FF382016FF3C50182
:105A1000022363F38811CCF30A0C6CF353216FF368
:105A20001F5100230748FCF707FE0837BD46B0BDED
:105A30006FF00041C9E76FF01B0CD7E7A41802080C
:105A4000702102080C040208F0B583B000AF0446D0
:105A500008464FF0000C634558D902EBCC0112F810
:105A60003CE0A64509D1038A4A78934208D34B68A3
:105A7000984700200C37BD46F0BD0CF1010CEAE759
:105A80006D468AB0694611F1100239D014208AB1EE
:105A90008446042801DD1F4E4E61BCF1080F01DD74
:105AA0001D4E8E61BCF10C0F00DDCB61BCF1100FFF
:105AB00000DD0C62132826DD14233AB1052038716D
:105AC00000207871B871F8717868086100216FF36F
